{
  "_format": "hh-sol-artifact-1",
  "contractName": "ProfileNFTContract",
  "sourceName": "contracts/ProfileNFTContract.sol",
  "abi": [
    {
      "inputs": [
        {
          "internalType": "address",
          "name": "router",
          "type": "address"
        }
      ],
      "stateMutability": "nonpayable",
      "type": "constructor"
    },
    {
      "inputs": [],
      "name": "ERC721EnumerableForbiddenBatchMint",
      "type": "error"
    },
    {
      "inputs": [
        {
          "internalType": "address",
          "name": "sender",
          "type": "address"
        },
        {
          "internalType": "uint256",
          "name": "tokenId",
          "type": "uint256"
        },
        {
          "internalType": "address",
          "name": "owner",
          "type": "address"
        }
      ],
      "name": "ERC721IncorrectOwner",
      "type": "error"
    },
    {
      "inputs": [
        {
          "internalType": "address",
          "name": "operator",
          "type": "address"
        },
        {
          "internalType": "uint256",
          "name": "tokenId",
          "type": "uint256"
        }
      ],
      "name": "ERC721InsufficientApproval",
      "type": "error"
    },
    {
      "inputs": [
        {
          "internalType": "address",
          "name": "approver",
          "type": "address"
        }
      ],
      "name": "ERC721InvalidApprover",
      "type": "error"
    },
    {
      "inputs": [
        {
          "internalType": "address",
          "name": "operator",
          "type": "address"
        }
      ],
      "name": "ERC721InvalidOperator",
      "type": "error"
    },
    {
      "inputs": [
        {
          "internalType": "address",
          "name": "owner",
          "type": "address"
        }
      ],
      "name": "ERC721InvalidOwner",
      "type": "error"
    },
    {
      "inputs": [
        {
          "internalType": "address",
          "name": "receiver",
          "type": "address"
        }
      ],
      "name": "ERC721InvalidReceiver",
      "type": "error"
    },
    {
      "inputs": [
        {
          "internalType": "address",
          "name": "sender",
          "type": "address"
        }
      ],
      "name": "ERC721InvalidSender",
      "type": "error"
    },
    {
      "inputs": [
        {
          "internalType": "uint256",
          "name": "tokenId",
          "type": "uint256"
        }
      ],
      "name": "ERC721NonexistentToken",
      "type": "error"
    },
    {
      "inputs": [
        {
          "internalType": "address",
          "name": "owner",
          "type": "address"
        },
        {
          "internalType": "uint256",
          "name": "index",
          "type": "uint256"
        }
      ],
      "name": "ERC721OutOfBoundsIndex",
      "type": "error"
    },
    {
      "inputs": [],
      "name": "EmptyArgs",
      "type": "error"
    },
    {
      "inputs": [],
      "name": "EmptySecrets",
      "type": "error"
    },
    {
      "inputs": [],
      "name": "EmptySource",
      "type": "error"
    },
    {
      "inputs": [],
      "name": "EnforcedPause",
      "type": "error"
    },
    {
      "inputs": [],
      "name": "ExpectedPause",
      "type": "error"
    },
    {
      "inputs": [],
      "name": "NoInlineSecrets",
      "type": "error"
    },
    {
      "inputs": [],
      "name": "OnlyRouterCanFulfill",
      "type": "error"
    },
    {
      "inputs": [
        {
          "internalType": "bytes32",
          "name": "requestId",
          "type": "bytes32"
        }
      ],
      "name": "UnexpectedRequestID",
      "type": "error"
    },
    {
      "anonymous": false,
      "inputs": [
        {
          "indexed": true,
          "internalType": "address",
          "name": "owner",
          "type": "address"
        },
        {
          "indexed": true,
          "internalType": "address",
          "name": "approved",
          "type": "address"
        },
        {
          "indexed": true,
          "internalType": "uint256",
          "name": "tokenId",
          "type": "uint256"
        }
      ],
      "name": "Approval",
      "type": "event"
    },
    {
      "anonymous": false,
      "inputs": [
        {
          "indexed": true,
          "internalType": "address",
          "name": "owner",
          "type": "address"
        },
        {
          "indexed": true,
          "internalType": "address",
          "name": "operator",
          "type": "address"
        },
        {
          "indexed": false,
          "internalType": "bool",
          "name": "approved",
          "type": "bool"
        }
      ],
      "name": "ApprovalForAll",
      "type": "event"
    },
    {
      "anonymous": false,
      "inputs": [
        {
          "indexed": false,
          "internalType": "uint256",
          "name": "_fromTokenId",
          "type": "uint256"
        },
        {
          "indexed": false,
          "internalType": "uint256",
          "name": "_toTokenId",
          "type": "uint256"
        }
      ],
      "name": "BatchMetadataUpdate",
      "type": "event"
    },
    {
      "anonymous": false,
      "inputs": [
        {
          "indexed": true,
          "internalType": "bytes32",
          "name": "requestId",
          "type": "bytes32"
        },
        {
          "indexed": false,
          "internalType": "bytes",
          "name": "response",
          "type": "bytes"
        },
        {
          "indexed": false,
          "internalType": "bytes",
          "name": "err",
          "type": "bytes"
        }
      ],
      "name": "FunctionsResponse",
      "type": "event"
    },
    {
      "anonymous": false,
      "inputs": [
        {
          "indexed": false,
          "internalType": "uint256",
          "name": "_tokenId",
          "type": "uint256"
        }
      ],
      "name": "MetadataUpdate",
      "type": "event"
    },
    {
      "anonymous": false,
      "inputs": [
        {
          "indexed": true,
          "internalType": "uint256",
          "name": "tokenId",
          "type": "uint256"
        },
        {
          "indexed": false,
          "internalType": "string",
          "name": "name",
          "type": "string"
        },
        {
          "indexed": false,
          "internalType": "string",
          "name": "description",
          "type": "string"
        },
        {
          "indexed": false,
          "internalType": "string",
          "name": "image",
          "type": "string"
        }
      ],
      "name": "MetadataUpdated",
      "type": "event"
    },
    {
      "anonymous": false,
      "inputs": [
        {
          "indexed": false,
          "internalType": "address",
          "name": "addr",
          "type": "address"
        },
        {
          "indexed": false,
          "internalType": "uint256",
          "name": "ti",
          "type": "uint256"
        }
      ],
      "name": "MintResponse",
      "type": "event"
    },
    {
      "anonymous": false,
      "inputs": [
        {
          "indexed": true,
          "internalType": "address",
          "name": "from",
          "type": "address"
        },
        {
          "indexed": true,
          "internalType": "address",
          "name": "to",
          "type": "address"
        }
      ],
      "name": "OwnershipTransferRequested",
      "type": "event"
    },
    {
      "anonymous": false,
      "inputs": [
        {
          "indexed": true,
          "internalType": "address",
          "name": "from",
          "type": "address"
        },
        {
          "indexed": true,
          "internalType": "address",
          "name": "to",
          "type": "address"
        }
      ],
      "name": "OwnershipTransferred",
      "type": "event"
    },
    {
      "anonymous": false,
      "inputs": [
        {
          "indexed": false,
          "internalType": "address",
          "name": "account",
          "type": "address"
        }
      ],
      "name": "Paused",
      "type": "event"
    },
    {
      "anonymous": false,
      "inputs": [
        {
          "indexed": true,
          "internalType": "bytes32",
          "name": "id",
          "type": "bytes32"
        }
      ],
      "name": "RequestFulfilled",
      "type": "event"
    },
    {
      "anonymous": false,
      "inputs": [
        {
          "indexed": false,
          "internalType": "bytes32",
          "name": "req1",
          "type": "bytes32"
        },
        {
          "indexed": false,
          "internalType": "bytes32",
          "name": "req2",
          "type": "bytes32"
        }
      ],
      "name": "RequestMismatch",
      "type": "event"
    },
    {
      "anonymous": false,
      "inputs": [
        {
          "indexed": true,
          "internalType": "bytes32",
          "name": "id",
          "type": "bytes32"
        }
      ],
      "name": "RequestSent",
      "type": "event"
    },
    {
      "anonymous": false,
      "inputs": [
        {
          "indexed": true,
          "internalType": "address",
          "name": "from",
          "type": "address"
        },
        {
          "indexed": true,
          "internalType": "address",
          "name": "to",
          "type": "address"
        },
        {
          "indexed": true,
          "internalType": "uint256",
          "name": "tokenId",
          "type": "uint256"
        }
      ],
      "name": "Transfer",
      "type": "event"
    },
    {
      "anonymous": false,
      "inputs": [
        {
          "indexed": false,
          "internalType": "address",
          "name": "account",
          "type": "address"
        }
      ],
      "name": "Unpaused",
      "type": "event"
    },
    {
      "inputs": [],
      "name": "acceptOwnership",
      "outputs": [],
      "stateMutability": "nonpayable",
      "type": "function"
    },
    {
      "inputs": [
        {
          "internalType": "address",
          "name": "to",
          "type": "address"
        },
        {
          "internalType": "uint256",
          "name": "tokenId",
          "type": "uint256"
        }
      ],
      "name": "approve",
      "outputs": [],
      "stateMutability": "nonpayable",
      "type": "function"
    },
    {
      "inputs": [
        {
          "internalType": "address",
          "name": "owner",
          "type": "address"
        }
      ],
      "name": "balanceOf",
      "outputs": [
        {
          "internalType": "uint256",
          "name": "",
          "type": "uint256"
        }
      ],
      "stateMutability": "view",
      "type": "function"
    },
    {
      "inputs": [
        {
          "internalType": "uint256",
          "name": "tokenId",
          "type": "uint256"
        }
      ],
      "name": "getAddressForTokenId",
      "outputs": [
        {
          "internalType": "address",
          "name": "",
          "type": "address"
        }
      ],
      "stateMutability": "view",
      "type": "function"
    },
    {
      "inputs": [
        {
          "internalType": "uint256",
          "name": "tokenId",
          "type": "uint256"
        }
      ],
      "name": "getApproved",
      "outputs": [
        {
          "internalType": "address",
          "name": "",
          "type": "address"
        }
      ],
      "stateMutability": "view",
      "type": "function"
    },
    {
      "inputs": [
        {
          "internalType": "bytes32",
          "name": "requestId",
          "type": "bytes32"
        },
        {
          "internalType": "bytes",
          "name": "response",
          "type": "bytes"
        },
        {
          "internalType": "bytes",
          "name": "err",
          "type": "bytes"
        }
      ],
      "name": "handleOracleFulfillment",
      "outputs": [],
      "stateMutability": "nonpayable",
      "type": "function"
    },
    {
      "inputs": [
        {
          "internalType": "address",
          "name": "owner",
          "type": "address"
        },
        {
          "internalType": "address",
          "name": "operator",
          "type": "address"
        }
      ],
      "name": "isApprovedForAll",
      "outputs": [
        {
          "internalType": "bool",
          "name": "",
          "type": "bool"
        }
      ],
      "stateMutability": "view",
      "type": "function"
    },
    {
      "inputs": [
        {
          "internalType": "string",
          "name": "newTokenURI",
          "type": "string"
        }
      ],
      "name": "manualMint",
      "outputs": [],
      "stateMutability": "nonpayable",
      "type": "function"
    },
    {
      "inputs": [
        {
          "internalType": "string",
          "name": "newTokenURI",
          "type": "string"
        },
        {
          "internalType": "uint256",
          "name": "tokenId",
          "type": "uint256"
        }
      ],
      "name": "mintBioToken",
      "outputs": [],
      "stateMutability": "nonpayable",
      "type": "function"
    },
    {
      "inputs": [
        {
          "internalType": "string",
          "name": "source",
          "type": "string"
        },
        {
          "internalType": "bytes",
          "name": "encryptedSecretsUrl",
          "type": "bytes"
        },
        {
          "internalType": "string[]",
          "name": "args",
          "type": "string[]"
        },
        {
          "internalType": "uint64",
          "name": "subscriptionId",
          "type": "uint64"
        }
      ],
      "name": "mintRequest",
      "outputs": [
        {
          "internalType": "bytes32",
          "name": "requestId",
          "type": "bytes32"
        }
      ],
      "stateMutability": "nonpayable",
      "type": "function"
    },
    {
      "inputs": [],
      "name": "name",
      "outputs": [
        {
          "internalType": "string",
          "name": "",
          "type": "string"
        }
      ],
      "stateMutability": "view",
      "type": "function"
    },
    {
      "inputs": [
        {
          "internalType": "uint256",
          "name": "",
          "type": "uint256"
        }
      ],
      "name": "originalMinter",
      "outputs": [
        {
          "internalType": "address",
          "name": "",
          "type": "address"
        }
      ],
      "stateMutability": "view",
      "type": "function"
    },
    {
      "inputs": [],
      "name": "owner",
      "outputs": [
        {
          "internalType": "address",
          "name": "",
          "type": "address"
        }
      ],
      "stateMutability": "view",
      "type": "function"
    },
    {
      "inputs": [
        {
          "internalType": "uint256",
          "name": "tokenId",
          "type": "uint256"
        }
      ],
      "name": "ownerOf",
      "outputs": [
        {
          "internalType": "address",
          "name": "",
          "type": "address"
        }
      ],
      "stateMutability": "view",
      "type": "function"
    },
    {
      "inputs": [],
      "name": "paused",
      "outputs": [
        {
          "internalType": "bool",
          "name": "",
          "type": "bool"
        }
      ],
      "stateMutability": "view",
      "type": "function"
    },
    {
      "inputs": [],
      "name": "s_lastError",
      "outputs": [
        {
          "internalType": "bytes",
          "name": "",
          "type": "bytes"
        }
      ],
      "stateMutability": "view",
      "type": "function"
    },
    {
      "inputs": [],
      "name": "s_lastRequestId",
      "outputs": [
        {
          "internalType": "bytes32",
          "name": "",
          "type": "bytes32"
        }
      ],
      "stateMutability": "view",
      "type": "function"
    },
    {
      "inputs": [],
      "name": "s_lastResponse",
      "outputs": [
        {
          "internalType": "bytes",
          "name": "",
          "type": "bytes"
        }
      ],
      "stateMutability": "view",
      "type": "function"
    },
    {
      "inputs": [
        {
          "internalType": "address",
          "name": "from",
          "type": "address"
        },
        {
          "internalType": "address",
          "name": "to",
          "type": "address"
        },
        {
          "internalType": "uint256",
          "name": "tokenId",
          "type": "uint256"
        }
      ],
      "name": "safeTransferFrom",
      "outputs": [],
      "stateMutability": "nonpayable",
      "type": "function"
    },
    {
      "inputs": [
        {
          "internalType": "address",
          "name": "from",
          "type": "address"
        },
        {
          "internalType": "address",
          "name": "to",
          "type": "address"
        },
        {
          "internalType": "uint256",
          "name": "tokenId",
          "type": "uint256"
        },
        {
          "internalType": "bytes",
          "name": "data",
          "type": "bytes"
        }
      ],
      "name": "safeTransferFrom",
      "outputs": [],
      "stateMutability": "nonpayable",
      "type": "function"
    },
    {
      "inputs": [
        {
          "internalType": "bytes",
          "name": "request",
          "type": "bytes"
        },
        {
          "internalType": "uint64",
          "name": "subscriptionId",
          "type": "uint64"
        }
      ],
      "name": "sendRequestCBOR",
      "outputs": [
        {
          "internalType": "bytes32",
          "name": "requestId",
          "type": "bytes32"
        }
      ],
      "stateMutability": "nonpayable",
      "type": "function"
    },
    {
      "inputs": [
        {
          "internalType": "address",
          "name": "operator",
          "type": "address"
        },
        {
          "internalType": "bool",
          "name": "approved",
          "type": "bool"
        }
      ],
      "name": "setApprovalForAll",
      "outputs": [],
      "stateMutability": "nonpayable",
      "type": "function"
    },
    {
      "inputs": [
        {
          "internalType": "bytes4",
          "name": "interfaceId",
          "type": "bytes4"
        }
      ],
      "name": "supportsInterface",
      "outputs": [
        {
          "internalType": "bool",
          "name": "",
          "type": "bool"
        }
      ],
      "stateMutability": "view",
      "type": "function"
    },
    {
      "inputs": [],
      "name": "symbol",
      "outputs": [
        {
          "internalType": "string",
          "name": "",
          "type": "string"
        }
      ],
      "stateMutability": "view",
      "type": "function"
    },
    {
      "inputs": [
        {
          "internalType": "uint256",
          "name": "index",
          "type": "uint256"
        }
      ],
      "name": "tokenByIndex",
      "outputs": [
        {
          "internalType": "uint256",
          "name": "",
          "type": "uint256"
        }
      ],
      "stateMutability": "view",
      "type": "function"
    },
    {
      "inputs": [
        {
          "internalType": "address",
          "name": "owner",
          "type": "address"
        },
        {
          "internalType": "uint256",
          "name": "index",
          "type": "uint256"
        }
      ],
      "name": "tokenOfOwnerByIndex",
      "outputs": [
        {
          "internalType": "uint256",
          "name": "",
          "type": "uint256"
        }
      ],
      "stateMutability": "view",
      "type": "function"
    },
    {
      "inputs": [
        {
          "internalType": "uint256",
          "name": "tokenId",
          "type": "uint256"
        }
      ],
      "name": "tokenURI",
      "outputs": [
        {
          "internalType": "string",
          "name": "",
          "type": "string"
        }
      ],
      "stateMutability": "view",
      "type": "function"
    },
    {
      "inputs": [],
      "name": "totalSupply",
      "outputs": [
        {
          "internalType": "uint256",
          "name": "",
          "type": "uint256"
        }
      ],
      "stateMutability": "view",
      "type": "function"
    },
    {
      "inputs": [
        {
          "internalType": "address",
          "name": "from",
          "type": "address"
        },
        {
          "internalType": "address",
          "name": "to",
          "type": "address"
        },
        {
          "internalType": "uint256",
          "name": "tokenId",
          "type": "uint256"
        }
      ],
      "name": "transferFrom",
      "outputs": [],
      "stateMutability": "nonpayable",
      "type": "function"
    },
    {
      "inputs": [
        {
          "internalType": "address",
          "name": "to",
          "type": "address"
        }
      ],
      "name": "transferOwnership",
      "outputs": [],
      "stateMutability": "nonpayable",
      "type": "function"
    }
  ],
  "bytecode": "0x60a06040527f66756e2d6176616c616e6368652d66756a692d3100000000000000000000000060001b601255620493e0601360006101000a81548163ffffffff021916908363ffffffff1602179055503480156200005c57600080fd5b506040516200571638038062005716833981810160405281019062000082919062000408565b33806000836040518060400160405280601181526020017f43727970746f436173696e6f20506c75730000000000000000000000000000008152506040518060400160405280600381526020017f43435000000000000000000000000000000000000000000000000000000000008152508160009081620001049190620006b4565b508060019081620001169190620006b4565b5050506000600b60006101000a81548160ff0219169083151502179055508073ffffffffffffffffffffffffffffffffffffffff1660808173ffffffffffffffffffffffffffffffffffffffff168152505050600073ffffffffffffffffffffffffffffffffffffffff168273ffffffffffffffffffffffffffffffffffffffff1603620001db576040517f08c379a0000000000000000000000000000000000000000000000000000000008152600401620001d290620007fc565b60405180910390fd5b81600b60016101000a81548173ffffffffffffffffffffffffffffffffffffffff021916908373ffffffffffffffffffffffffffffffffffffffff160217905550600073ffffffffffffffffffffffffffffffffffffffff168173ffffffffffffffffffffffffffffffffffffffff1614620002635762000262816200026d60201b60201c565b5b5050505062000890565b3373ffffffffffffffffffffffffffffffffffffffff168173ffffffffffffffffffffffffffffffffffffffff1603620002de576040517f08c379a0000000000000000000000000000000000000000000000000000000008152600401620002d5906200086e565b60405180910390fd5b80600c60006101000a81548173ffffffffffffffffffffffffffffffffffffffff021916908373ffffffffffffffffffffffffffffffffffffffff1602179055508073ffffffffffffffffffffffffffffffffffffffff16600b60019054906101000a900473ffffffffffffffffffffffffffffffffffffffff1673ffffffffffffffffffffffffffffffffffffffff167fed8889f560326eb138920d842192f0eb3dd22b4f139c87a2c57538e05bae127860405160405180910390a350565b600080fd5b600073ffffffffffffffffffffffffffffffffffffffff82169050919050565b6000620003d082620003a3565b9050919050565b620003e281620003c3565b8114620003ee57600080fd5b50565b6000815190506200040281620003d7565b92915050565b6000602082840312156200042157620004206200039e565b5b60006200043184828501620003f1565b91505092915050565b600081519050919050565b7f4e487b7100000000000000000000000000000000000000000000000000000000600052604160045260246000fd5b7f4e487b7100000000000000000000000000000000000000000000000000000000600052602260045260246000fd5b60006002820490506001821680620004bc57607f821691505b602082108103620004d257620004d162000474565b5b50919050565b60008190508160005260206000209050919050565b60006020601f8301049050919050565b600082821b905092915050565b6000600883026200053c7fffffffffffffffffffffffffffffffffffffffffffffffffffffffffffffffff82620004fd565b620005488683620004fd565b95508019841693508086168417925050509392505050565b6000819050919050565b6000819050919050565b6000620005956200058f620005898462000560565b6200056a565b62000560565b9050919050565b6000819050919050565b620005b18362000574565b620005c9620005c0826200059c565b8484546200050a565b825550505050565b600090565b620005e0620005d1565b620005ed818484620005a6565b505050565b5b81811015620006155762000609600082620005d6565b600181019050620005f3565b5050565b601f82111562000664576200062e81620004d8565b6200063984620004ed565b8101602085101562000649578190505b620006616200065885620004ed565b830182620005f2565b50505b505050565b600082821c905092915050565b6000620006896000198460080262000669565b1980831691505092915050565b6000620006a4838362000676565b9150826002028217905092915050565b620006bf826200043a565b67ffffffffffffffff811115620006db57620006da62000445565b5b620006e78254620004a3565b620006f482828562000619565b600060209050601f8311600181146200072c576000841562000717578287015190505b62000723858262000696565b86555062000793565b601f1984166200073c86620004d8565b60005b8281101562000766578489015182556001820191506020850194506020810190506200073f565b8683101562000786578489015162000782601f89168262000676565b8355505b6001600288020188555050505b505050505050565b600082825260208201905092915050565b7f43616e6e6f7420736574206f776e657220746f207a65726f0000000000000000600082015250565b6000620007e46018836200079b565b9150620007f182620007ac565b602082019050919050565b600060208201905081810360008301526200081781620007d5565b9050919050565b7f43616e6e6f74207472616e7366657220746f2073656c66000000000000000000600082015250565b6000620008566017836200079b565b915062000863826200081e565b602082019050919050565b60006020820190508181036000830152620008898162000847565b9050919050565b608051614e63620008b3600039600081816107e801526115a70152614e636000f3fe608060405234801561001057600080fd5b50600436106101da5760003560e01c80634f6ccce711610104578063a22cb465116100a2578063c87b56dd11610071578063c87b56dd1461057d578063d1b3cb8d146105ad578063e985e9c5146105c9578063f2fde38b146105f9576101da565b8063a22cb465146104f7578063b1e2174914610513578063b2884c1a14610531578063b88d4fde14610561576101da565b806370a08231116100de57806370a082311461048157806379ba5097146104b15780638da5cb5b146104bb57806395d89b41146104d9576101da565b80634f6ccce7146104035780635c975abb146104335780636352211e14610451576101da565b806318160ddd1161017c5780633944ea3a1161014b5780633944ea3a1461037b57806342842e0e146103995780634b0795a8146103b55780634d598342146103d3576101da565b806318160ddd146102e157806323b872dd146102ff5780632d414ae51461031b5780632f745c591461034b576101da565b806308792794116101b8578063087927941461025d578063095ea7b3146102795780630ca7617514610295578063170b70f1146102b1576101da565b806301ffc9a7146101df57806306fdde031461020f578063081812fc1461022d575b600080fd5b6101f960048036038101906101f491906137c3565b610615565b604051610206919061380b565b60405180910390f35b610217610627565b60405161022491906138b6565b60405180910390f35b6102476004803603810190610242919061390e565b6106b9565b604051610254919061397c565b60405180910390f35b61027760048036038101906102729190613acc565b6106d5565b005b610293600480360381019061028e9190613b54565b6107d0565b005b6102af60048036038101906102aa9190613c6b565b6107e6565b005b6102cb60048036038101906102c69190613d36565b6108a8565b6040516102d89190613da1565b60405180910390f35b6102e96108e3565b6040516102f69190613dcb565b60405180910390f35b61031960048036038101906103149190613de6565b6108f0565b005b6103356004803603810190610330919061390e565b6109f2565b604051610342919061397c565b60405180910390f35b61036560048036038101906103609190613b54565b610a25565b6040516103729190613dcb565b60405180910390f35b610383610ace565b6040516103909190613e8e565b60405180910390f35b6103b360048036038101906103ae9190613de6565b610b5c565b005b6103bd610b7c565b6040516103ca9190613e8e565b60405180910390f35b6103ed60048036038101906103e89190613f96565b610c0a565b6040516103fa9190613da1565b60405180910390f35b61041d6004803603810190610418919061390e565b610d98565b60405161042a9190613dcb565b60405180910390f35b61043b610e0e565b604051610448919061380b565b60405180910390f35b61046b6004803603810190610466919061390e565b610e25565b604051610478919061397c565b60405180910390f35b61049b60048036038101906104969190614051565b610e37565b6040516104a89190613dcb565b60405180910390f35b6104b9610ef1565b005b6104c3611088565b6040516104d0919061397c565b60405180910390f35b6104e16110b2565b6040516104ee91906138b6565b60405180910390f35b610511600480360381019061050c91906140aa565b611144565b005b61051b61115a565b6040516105289190613da1565b60405180910390f35b61054b6004803603810190610546919061390e565b611160565b604051610558919061397c565b60405180910390f35b61057b600480360381019061057691906140ea565b61119d565b005b6105976004803603810190610592919061390e565b6111ba565b6040516105a491906138b6565b60405180910390f35b6105c760048036038101906105c2919061416d565b6111cc565b005b6105e360048036038101906105de91906141b6565b611207565b6040516105f0919061380b565b60405180910390f35b610613600480360381019061060e9190614051565b61129b565b005b6000610620826112af565b9050919050565b60606000805461063690614225565b80601f016020809104026020016040519081016040528092919081815260200182805461066290614225565b80156106af5780601f10610684576101008083540402835291602001916106af565b820191906000526020600020905b81548152906001019060200180831161069257829003601f168201915b5050505050905090565b60006106c482611310565b506106ce82611398565b9050919050565b60006011600083815260200190815260200160002060009054906101000a900473ffffffffffffffffffffffffffffffffffffffff169050600061071882610e37565b14610758576040517f08c379a000000000000000000000000000000000000000000000000000000000815260040161074f906142a2565b60405180910390fd5b61076281836113d5565b61076c82846113f3565b600d600081548092919061077f906142f1565b91905055507fdb9f333040f8b5d86a531e98226922c2aa25df6ff1a0ccb0cb143eb5a4614e2e816001600d546107b59190614339565b6040516107c392919061436d565b60405180910390a1505050565b6107e282826107dd61144f565b611457565b5050565b7f000000000000000000000000000000000000000000000000000000000000000073ffffffffffffffffffffffffffffffffffffffff163373ffffffffffffffffffffffffffffffffffffffff161461086b576040517fc6829f8300000000000000000000000000000000000000000000000000000000815260040160405180910390fd5b610876838383611469565b827f85e1543bf2f84fe80c6badbce3648c8539ad1df4d2b3d822938ca0538be727e660405160405180910390a2505050565b60006108b2611510565b6108d28383601360009054906101000a900463ffffffff166012546115a2565b600e81905550600e54905092915050565b6000600880549050905090565b600073ffffffffffffffffffffffffffffffffffffffff168273ffffffffffffffffffffffffffffffffffffffff16036109625760006040517f64a0ae92000000000000000000000000000000000000000000000000000000008152600401610959919061397c565b60405180910390fd5b6000610976838361097161144f565b611685565b90508373ffffffffffffffffffffffffffffffffffffffff168173ffffffffffffffffffffffffffffffffffffffff16146109ec578382826040517f64283d7b0000000000000000000000000000000000000000000000000000000081526004016109e393929190614396565b60405180910390fd5b50505050565b60116020528060005260406000206000915054906101000a900473ffffffffffffffffffffffffffffffffffffffff1681565b6000610a3083610e37565b8210610a755782826040517fa57d13dc000000000000000000000000000000000000000000000000000000008152600401610a6c92919061436d565b60405180910390fd5b600660008473ffffffffffffffffffffffffffffffffffffffff1673ffffffffffffffffffffffffffffffffffffffff168152602001908152602001600020600083815260200190815260200160002054905092915050565b600f8054610adb90614225565b80601f0160208091040260200160405190810160405280929190818152602001828054610b0790614225565b8015610b545780601f10610b2957610100808354040283529160200191610b54565b820191906000526020600020905b815481529060010190602001808311610b3757829003601f168201915b505050505081565b610b778383836040518060200160405280600081525061119d565b505050565b60108054610b8990614225565b80601f0160208091040260200160405190810160405280929190818152602001828054610bb590614225565b8015610c025780601f10610bd757610100808354040283529160200191610c02565b820191906000526020600020905b815481529060010190602001808311610be557829003601f168201915b505050505081565b600080610c1633610e37565b14610c56576040517f08c379a0000000000000000000000000000000000000000000000000000000008152600401610c4d906142a2565b60405180910390fd5b6000600267ffffffffffffffff811115610c7357610c726139a1565b5b604051908082528060200260200182016040528015610ca657816020015b6060815260200190600190039081610c915790505b50905083600081518110610cbd57610cbc6143cd565b5b602002602001015181600081518110610cd957610cd86143cd565b5b6020026020010181905250610cef600d5461169b565b81600181518110610d0357610d026143cd565b5b6020026020010181905250610d1a600d5433611769565b610d226136ab565b610d3587826117bf90919063ffffffff16565b610d4886826117d090919063ffffffff16565b610d5b828261184990919063ffffffff16565b610d83610d6782611891565b85601360009054906101000a900463ffffffff166012546115a2565b600e81905550600e5492505050949350505050565b6000610da26108e3565b8210610de8576000826040517fa57d13dc000000000000000000000000000000000000000000000000000000008152600401610ddf92919061436d565b60405180910390fd5b60088281548110610dfc57610dfb6143cd565b5b90600052602060002001549050919050565b6000600b60009054906101000a900460ff16905090565b6000610e3082611310565b9050919050565b60008073ffffffffffffffffffffffffffffffffffffffff168273ffffffffffffffffffffffffffffffffffffffff1603610eaa5760006040517f89c62b64000000000000000000000000000000000000000000000000000000008152600401610ea1919061397c565b60405180910390fd5b600360008373ffffffffffffffffffffffffffffffffffffffff1673ffffffffffffffffffffffffffffffffffffffff168152602001908152602001600020549050919050565b600c60009054906101000a900473ffffffffffffffffffffffffffffffffffffffff1673ffffffffffffffffffffffffffffffffffffffff163373ffffffffffffffffffffffffffffffffffffffff1614610f81576040517f08c379a0000000000000000000000000000000000000000000000000000000008152600401610f7890614448565b60405180910390fd5b6000600b60019054906101000a900473ffffffffffffffffffffffffffffffffffffffff16905033600b60016101000a81548173ffffffffffffffffffffffffffffffffffffffff021916908373ffffffffffffffffffffffffffffffffffffffff1602179055506000600c60006101000a81548173ffffffffffffffffffffffffffffffffffffffff021916908373ffffffffffffffffffffffffffffffffffffffff1602179055503373ffffffffffffffffffffffffffffffffffffffff168173ffffffffffffffffffffffffffffffffffffffff167f8be0079c531659141344cd1fd0a4f28419497f9722a3daafe3b4186f6b6457e060405160405180910390a350565b6000600b60019054906101000a900473ffffffffffffffffffffffffffffffffffffffff16905090565b6060600180546110c190614225565b80601f01602080910402602001604051908101604052809291908181526020018280546110ed90614225565b801561113a5780601f1061110f5761010080835404028352916020019161113a565b820191906000526020600020905b81548152906001019060200180831161111d57829003601f168201915b5050505050905090565b61115661114f61144f565b8383611cad565b5050565b600e5481565b60006011600083815260200190815260200160002060009054906101000a900473ffffffffffffffffffffffffffffffffffffffff169050919050565b6111a88484846108f0565b6111b484848484611e1c565b50505050565b60606111c582611fd3565b9050919050565b6111d833600d546113d5565b6111e4600d5433611769565b611204600d60008154809291906111fa906142f1565b91905055826113f3565b50565b6000600560008473ffffffffffffffffffffffffffffffffffffffff1673ffffffffffffffffffffffffffffffffffffffff16815260200190815260200160002060008373ffffffffffffffffffffffffffffffffffffffff1673ffffffffffffffffffffffffffffffffffffffff16815260200190815260200160002060009054906101000a900460ff16905092915050565b6112a3611510565b6112ac816120e6565b50565b6000634906490660e01b7bffffffffffffffffffffffffffffffffffffffffffffffffffffffff1916827bffffffffffffffffffffffffffffffffffffffffffffffffffffffff19161480611309575061130882612214565b5b9050919050565b60008061131c8361228e565b9050600073ffffffffffffffffffffffffffffffffffffffff168173ffffffffffffffffffffffffffffffffffffffff160361138f57826040517f7e2732890000000000000000000000000000000000000000000000000000000081526004016113869190613dcb565b60405180910390fd5b80915050919050565b60006004600083815260200190815260200160002060009054906101000a900473ffffffffffffffffffffffffffffffffffffffff169050919050565b6113ef8282604051806020016040528060008152506122cb565b5050565b80600a600084815260200190815260200160002090816114139190614614565b507ff8e1a15aba9398e019f0b49df1a4fde98ee17ae345cb5f6b5e2c27f5033e8ce7826040516114439190613dcb565b60405180910390a15050565b600033905090565b61146483838360016122e7565b505050565b82600e54146114af57826040517fd068bf5b0000000000000000000000000000000000000000000000000000000081526004016114a69190613da1565b60405180910390fd5b81600f90816114be9190614741565b5080601090816114ce9190614741565b50827ff0f413c077269966d7e2dabc8eb21ba825fef41a93078a6ae69923b9c718f444600f6010604051611503929190614897565b60405180910390a2505050565b600b60019054906101000a900473ffffffffffffffffffffffffffffffffffffffff1673ffffffffffffffffffffffffffffffffffffffff163373ffffffffffffffffffffffffffffffffffffffff16146115a0576040517f08c379a00000000000000000000000000000000000000000000000000000000081526004016115979061491a565b60405180910390fd5b565b6000807f000000000000000000000000000000000000000000000000000000000000000073ffffffffffffffffffffffffffffffffffffffff1663461d27628688600188886040518663ffffffff1660e01b8152600401611607959493929190614985565b6020604051808303816000875af1158015611626573d6000803e3d6000fd5b505050506040513d601f19601f8201168201806040525081019061164a91906149f4565b9050807f1131472297a800fee664d1d89cfa8f7676ff07189ecc53f80bbb5f4969099db860405160405180910390a280915050949350505050565b60006116928484846124ac565b90509392505050565b6060600060016116aa846125c9565b01905060008167ffffffffffffffff8111156116c9576116c86139a1565b5b6040519080825280601f01601f1916602001820160405280156116fb5781602001600182028036833780820191505090505b509050600082602001820190505b60011561175e578080600190039150507f3031323334353637383961626364656600000000000000000000000000000000600a86061a8153600a858161175257611751614a21565b5b04945060008503611709575b819350505050919050565b806011600084815260200190815260200160002060006101000a81548173ffffffffffffffffffffffffffffffffffffffff021916908373ffffffffffffffffffffffffffffffffffffffff1602179055505050565b6117cc826000808461271c565b5050565b600081510361180b576040517fe889636f00000000000000000000000000000000000000000000000000000000815260040160405180910390fd5b60018260200190600281111561182457611823614a50565b5b9081600281111561183857611837614a50565b5b815250508082608001819052505050565b6000815103611884576040517ffe936cb700000000000000000000000000000000000000000000000000000000815260040160405180910390fd5b808260a001819052505050565b606060006118a06101006127c6565b90506118ea6040518060400160405280600c81526020017f636f64654c6f636174696f6e0000000000000000000000000000000000000000815250826127ed90919063ffffffff16565b6119138360000151600281111561190457611903614a50565b5b8261281690919063ffffffff16565b61195b6040518060400160405280600881526020017f6c616e6775616765000000000000000000000000000000000000000000000000815250826127ed90919063ffffffff16565b6119848360400151600081111561197557611974614a50565b5b8261281690919063ffffffff16565b6119cc6040518060400160405280600681526020017f736f757263650000000000000000000000000000000000000000000000000000815250826127ed90919063ffffffff16565b6119e38360600151826127ed90919063ffffffff16565b60008360a00151511115611a9f57611a396040518060400160405280600481526020017f6172677300000000000000000000000000000000000000000000000000000000815250826127ed90919063ffffffff16565b611a4281612866565b60005b8360a0015151811015611a9457611a838460a001518281518110611a6c57611a6b6143cd565b5b6020026020010151836127ed90919063ffffffff16565b80611a8d906142f1565b9050611a45565b50611a9e8161288e565b5b60008360800151511115611be05760006002811115611ac157611ac0614a50565b5b83602001516002811115611ad857611ad7614a50565b5b03611b0f576040517fa80d31f700000000000000000000000000000000000000000000000000000000815260040160405180910390fd5b611b576040518060400160405280600f81526020017f736563726574734c6f636174696f6e0000000000000000000000000000000000815250826127ed90919063ffffffff16565b611b8083602001516002811115611b7157611b70614a50565b5b8261281690919063ffffffff16565b611bc86040518060400160405280600781526020017f7365637265747300000000000000000000000000000000000000000000000000815250826127ed90919063ffffffff16565b611bdf8360800151826128b690919063ffffffff16565b5b60008360c00151511115611c9c57611c366040518060400160405280600981526020017f6279746573417267730000000000000000000000000000000000000000000000815250826127ed90919063ffffffff16565b611c3f81612866565b60005b8360c0015151811015611c9157611c808460c001518281518110611c6957611c686143cd565b5b6020026020010151836128b690919063ffffffff16565b80611c8a906142f1565b9050611c42565b50611c9b8161288e565b5b806000015160000151915050919050565b600073ffffffffffffffffffffffffffffffffffffffff168273ffffffffffffffffffffffffffffffffffffffff1603611d1e57816040517f5b08ba18000000000000000000000000000000000000000000000000000000008152600401611d15919061397c565b60405180910390fd5b80600560008573ffffffffffffffffffffffffffffffffffffffff1673ffffffffffffffffffffffffffffffffffffffff16815260200190815260200160002060008473ffffffffffffffffffffffffffffffffffffffff1673ffffffffffffffffffffffffffffffffffffffff16815260200190815260200160002060006101000a81548160ff0219169083151502179055508173ffffffffffffffffffffffffffffffffffffffff168373ffffffffffffffffffffffffffffffffffffffff167f17307eab39ab6107e8899845ad3d59bd9653f200f220920489ca2b5937696c3183604051611e0f919061380b565b60405180910390a3505050565b60008373ffffffffffffffffffffffffffffffffffffffff163b1115611fcd578273ffffffffffffffffffffffffffffffffffffffff1663150b7a02611e6061144f565b8685856040518563ffffffff1660e01b8152600401611e829493929190614a7f565b6020604051808303816000875af1925050508015611ebe57506040513d601f19601f82011682018060405250810190611ebb9190614ae0565b60015b611f42573d8060008114611eee576040519150601f19603f3d011682016040523d82523d6000602084013e611ef3565b606091505b506000815103611f3a57836040517f64a0ae92000000000000000000000000000000000000000000000000000000008152600401611f31919061397c565b60405180910390fd5b805181602001fd5b63150b7a0260e01b7bffffffffffffffffffffffffffffffffffffffffffffffffffffffff1916817bffffffffffffffffffffffffffffffffffffffffffffffffffffffff191614611fcb57836040517f64a0ae92000000000000000000000000000000000000000000000000000000008152600401611fc2919061397c565b60405180910390fd5b505b50505050565b6060611fde82611310565b506000600a60008481526020019081526020016000208054611fff90614225565b80601f016020809104026020016040519081016040528092919081815260200182805461202b90614225565b80156120785780601f1061204d57610100808354040283529160200191612078565b820191906000526020600020905b81548152906001019060200180831161205b57829003601f168201915b5050505050905060006120896128df565b9050600081510361209e5781925050506120e1565b6000825111156120d35780826040516020016120bb929190614b49565b604051602081830303815290604052925050506120e1565b6120dc846128f6565b925050505b919050565b3373ffffffffffffffffffffffffffffffffffffffff168173ffffffffffffffffffffffffffffffffffffffff1603612154576040517f08c379a000000000000000000000000000000000000000000000000000000000815260040161214b90614bb9565b60405180910390fd5b80600c60006101000a81548173ffffffffffffffffffffffffffffffffffffffff021916908373ffffffffffffffffffffffffffffffffffffffff1602179055508073ffffffffffffffffffffffffffffffffffffffff16600b60019054906101000a900473ffffffffffffffffffffffffffffffffffffffff1673ffffffffffffffffffffffffffffffffffffffff167fed8889f560326eb138920d842192f0eb3dd22b4f139c87a2c57538e05bae127860405160405180910390a350565b60007f780e9d63000000000000000000000000000000000000000000000000000000007bffffffffffffffffffffffffffffffffffffffffffffffffffffffff1916827bffffffffffffffffffffffffffffffffffffffffffffffffffffffff1916148061228757506122868261295f565b5b9050919050565b60006002600083815260200190815260200160002060009054906101000a900473ffffffffffffffffffffffffffffffffffffffff169050919050565b6122d58383612a41565b6122e26000848484611e1c565b505050565b80806123205750600073ffffffffffffffffffffffffffffffffffffffff168273ffffffffffffffffffffffffffffffffffffffff1614155b1561245457600061233084611310565b9050600073ffffffffffffffffffffffffffffffffffffffff168373ffffffffffffffffffffffffffffffffffffffff161415801561239b57508273ffffffffffffffffffffffffffffffffffffffff168173ffffffffffffffffffffffffffffffffffffffff1614155b80156123ae57506123ac8184611207565b155b156123f057826040517fa9fbf51f0000000000000000000000000000000000000000000000000000000081526004016123e7919061397c565b60405180910390fd5b811561245257838573ffffffffffffffffffffffffffffffffffffffff168273ffffffffffffffffffffffffffffffffffffffff167f8c5be1e5ebec7d5bd14f71427d1e84f3dd0314c0f7b2291e5b200ac8c7c3b92560405160405180910390a45b505b836004600085815260200190815260200160002060006101000a81548173ffffffffffffffffffffffffffffffffffffffff021916908373ffffffffffffffffffffffffffffffffffffffff16021790555050505050565b6000806124ba858585612b3a565b9050600073ffffffffffffffffffffffffffffffffffffffff168173ffffffffffffffffffffffffffffffffffffffff16036124fe576124f984612d54565b61253d565b8473ffffffffffffffffffffffffffffffffffffffff168173ffffffffffffffffffffffffffffffffffffffff161461253c5761253b8185612d9d565b5b5b600073ffffffffffffffffffffffffffffffffffffffff168573ffffffffffffffffffffffffffffffffffffffff160361257f5761257a84612efe565b6125be565b8473ffffffffffffffffffffffffffffffffffffffff168173ffffffffffffffffffffffffffffffffffffffff16146125bd576125bc8585612fcf565b5b5b809150509392505050565b600080600090507a184f03e93ff9f4daa797ed6e38ed64bf6a1f0100000000000000008310612627577a184f03e93ff9f4daa797ed6e38ed64bf6a1f010000000000000000838161261d5761261c614a21565b5b0492506040810190505b6d04ee2d6d415b85acef81000000008310612664576d04ee2d6d415b85acef8100000000838161265a57612659614a21565b5b0492506020810190505b662386f26fc10000831061269357662386f26fc10000838161268957612688614a21565b5b0492506010810190505b6305f5e10083106126bc576305f5e10083816126b2576126b1614a21565b5b0492506008810190505b61271083106126e15761271083816126d7576126d6614a21565b5b0492506004810190505b6064831061270457606483816126fa576126f9614a21565b5b0492506002810190505b600a8310612713576001810190505b80915050919050565b6000815103612757576040517f22ce3edd00000000000000000000000000000000000000000000000000000000815260040160405180910390fd5b828460000190600281111561276f5761276e614a50565b5b9081600281111561278357612782614a50565b5b81525050818460400190600081111561279f5761279e614a50565b5b908160008111156127b3576127b2614a50565b5b8152505080846060018190525050505050565b6127ce61371d565b6127dc81600001518361305a565b506000816020018181525050919050565b6127fa82600383516130d3565b61281181836000015161327c90919063ffffffff16565b505050565b61283860026005600660ff16901b17836000015161329890919063ffffffff16565b50612862828260405160200161284e9190613dcb565b6040516020818303038152906040526128b6565b5050565b612871816004613302565b6001816020018181516128849190614bd9565b9150818152505050565b612899816007613302565b6001816020018181516128ac9190614339565b9150818152505050565b6128c382600283516130d3565b6128da81836000015161327c90919063ffffffff16565b505050565b606060405180602001604052806000815250905090565b606061290182611310565b50600061290c6128df565b9050600081511161292c5760405180602001604052806000815250612957565b806129368461169b565b604051602001612947929190614b49565b6040516020818303038152906040525b915050919050565b60007f80ac58cd000000000000000000000000000000000000000000000000000000007bffffffffffffffffffffffffffffffffffffffffffffffffffffffff1916827bffffffffffffffffffffffffffffffffffffffffffffffffffffffff19161480612a2a57507f5b5e139f000000000000000000000000000000000000000000000000000000007bffffffffffffffffffffffffffffffffffffffffffffffffffffffff1916827bffffffffffffffffffffffffffffffffffffffffffffffffffffffff1916145b80612a3a5750612a3982613328565b5b9050919050565b600073ffffffffffffffffffffffffffffffffffffffff168273ffffffffffffffffffffffffffffffffffffffff1603612ab35760006040517f64a0ae92000000000000000000000000000000000000000000000000000000008152600401612aaa919061397c565b60405180910390fd5b6000612ac183836000611685565b9050600073ffffffffffffffffffffffffffffffffffffffff168173ffffffffffffffffffffffffffffffffffffffff1614612b355760006040517f73c6ac6e000000000000000000000000000000000000000000000000000000008152600401612b2c919061397c565b60405180910390fd5b505050565b600080612b468461228e565b9050600073ffffffffffffffffffffffffffffffffffffffff168373ffffffffffffffffffffffffffffffffffffffff1614612b8857612b87818486613392565b5b600073ffffffffffffffffffffffffffffffffffffffff168173ffffffffffffffffffffffffffffffffffffffff1614612c1957612bca6000856000806122e7565b6001600360008373ffffffffffffffffffffffffffffffffffffffff1673ffffffffffffffffffffffffffffffffffffffff168152602001908152602001600020600082825403925050819055505b600073ffffffffffffffffffffffffffffffffffffffff168573ffffffffffffffffffffffffffffffffffffffff1614612c9c576001600360008773ffffffffffffffffffffffffffffffffffffffff1673ffffffffffffffffffffffffffffffffffffffff168152602001908152602001600020600082825401925050819055505b846002600086815260200190815260200160002060006101000a81548173ffffffffffffffffffffffffffffffffffffffff021916908373ffffffffffffffffffffffffffffffffffffffff160217905550838573ffffffffffffffffffffffffffffffffffffffff168273ffffffffffffffffffffffffffffffffffffffff167fddf252ad1be2c89b69c2b068fc378daa952ba7f163c4a11628f55a4df523b3ef60405160405180910390a4809150509392505050565b6008805490506009600083815260200190815260200160002081905550600881908060018154018082558091505060019003906000526020600020016000909190919091505550565b6000612da883610e37565b9050600060076000848152602001908152602001600020549050818114612e8d576000600660008673ffffffffffffffffffffffffffffffffffffffff1673ffffffffffffffffffffffffffffffffffffffff168152602001908152602001600020600084815260200190815260200160002054905080600660008773ffffffffffffffffffffffffffffffffffffffff1673ffffffffffffffffffffffffffffffffffffffff168152602001908152602001600020600084815260200190815260200160002081905550816007600083815260200190815260200160002081905550505b6007600084815260200190815260200160002060009055600660008573ffffffffffffffffffffffffffffffffffffffff1673ffffffffffffffffffffffffffffffffffffffff16815260200190815260200160002060008381526020019081526020016000206000905550505050565b60006001600880549050612f129190614339565b9050600060096000848152602001908152602001600020549050600060088381548110612f4257612f416143cd565b5b906000526020600020015490508060088381548110612f6457612f636143cd565b5b906000526020600020018190555081600960008381526020019081526020016000208190555060096000858152602001908152602001600020600090556008805480612fb357612fb2614c0d565b5b6001900381819060005260206000200160009055905550505050565b60006001612fdc84610e37565b612fe69190614339565b905081600660008573ffffffffffffffffffffffffffffffffffffffff1673ffffffffffffffffffffffffffffffffffffffff168152602001908152602001600020600083815260200190815260200160002081905550806007600084815260200190815260200160002081905550505050565b61306261373d565b60006020836130719190614c3c565b1461309d576020826130839190614c3c565b602061308f9190614339565b8261309a9190614bd9565b91505b8183602001818152505060405180845260008152828101602001818110156130c457600080fd5b80604052505082905092915050565b60178167ffffffffffffffff161161310e576131088160058460ff16901b60ff1617846000015161329890919063ffffffff16565b50613277565b60ff8167ffffffffffffffff161161316c57613141601860058460ff16901b17846000015161329890919063ffffffff16565b506131668167ffffffffffffffff16600185600001516134569092919063ffffffff16565b50613276565b61ffff8167ffffffffffffffff16116131cb576131a0601960058460ff16901b17846000015161329890919063ffffffff16565b506131c58167ffffffffffffffff16600285600001516134569092919063ffffffff16565b50613275565b63ffffffff8167ffffffffffffffff161161322c57613201601a60058460ff16901b17846000015161329890919063ffffffff16565b506132268167ffffffffffffffff16600485600001516134569092919063ffffffff16565b50613274565b61324d601b60058460ff16901b17846000015161329890919063ffffffff16565b506132728167ffffffffffffffff16600885600001516134569092919063ffffffff16565b505b5b5b5b505050565b61328461373d565b613290838384516134e3565b905092915050565b6132a061373d565b6000836000015151905060006001826132b99190614bd9565b9050846020015182106132dd576132dc856002836132d79190614c6d565b6135c6565b5b845160208382010185815381518311156132f5578282525b5050849250505092915050565b613323601f60058360ff16901b17836000015161329890919063ffffffff16565b505050565b60007f01ffc9a7000000000000000000000000000000000000000000000000000000007bffffffffffffffffffffffffffffffffffffffffffffffffffffffff1916827bffffffffffffffffffffffffffffffffffffffffffffffffffffffff1916149050919050565b61339d8383836135ea565b61345157600073ffffffffffffffffffffffffffffffffffffffff168373ffffffffffffffffffffffffffffffffffffffff160361341257806040517f7e2732890000000000000000000000000000000000000000000000000000000081526004016134099190613dcb565b60405180910390fd5b81816040517f177e802f00000000000000000000000000000000000000000000000000000000815260040161344892919061436d565b60405180910390fd5b505050565b61345e61373d565b60008460000151519050600081846134769190614bd9565b9050856020015181111561349b5761349a866002836134959190614c6d565b6135c6565b5b60006001856101006134ad9190614de2565b6134b79190614339565b9050865182810187831982511617815281518411156134d4578382525b50508693505050509392505050565b6134eb61373d565b82518211156134f957600080fd5b60008460000151519050600083826135119190614bd9565b9050856020015181111561353657613535866002836135309190614c6d565b6135c6565b5b60008087518051856020830101935080851115613551578482525b60208901925050505b6020861061359857805182526020826135739190614bd9565b91506020816135829190614bd9565b90506020866135919190614339565b955061355a565b60006001876020036101000a0390508019825116818451168181178552505050879450505050509392505050565b6000826000015190506135d9838361305a565b506135e4838261327c565b50505050565b60008073ffffffffffffffffffffffffffffffffffffffff168373ffffffffffffffffffffffffffffffffffffffff16141580156136a257508273ffffffffffffffffffffffffffffffffffffffff168473ffffffffffffffffffffffffffffffffffffffff16148061366357506136628484611207565b5b806136a157508273ffffffffffffffffffffffffffffffffffffffff1661368983611398565b73ffffffffffffffffffffffffffffffffffffffff16145b5b90509392505050565b6040518060e00160405280600060028111156136ca576136c9614a50565b5b8152602001600060028111156136e3576136e2614a50565b5b81526020016000808111156136fb576136fa614a50565b5b8152602001606081526020016060815260200160608152602001606081525090565b604051806040016040528061373061373d565b8152602001600081525090565b604051806040016040528060608152602001600081525090565b6000604051905090565b600080fd5b600080fd5b60007fffffffff0000000000000000000000000000000000000000000000000000000082169050919050565b6137a08161376b565b81146137ab57600080fd5b50565b6000813590506137bd81613797565b92915050565b6000602082840312156137d9576137d8613761565b5b60006137e7848285016137ae565b91505092915050565b60008115159050919050565b613805816137f0565b82525050565b600060208201905061382060008301846137fc565b92915050565b600081519050919050565b600082825260208201905092915050565b60005b83811015613860578082015181840152602081019050613845565b60008484015250505050565b6000601f19601f8301169050919050565b600061388882613826565b6138928185613831565b93506138a2818560208601613842565b6138ab8161386c565b840191505092915050565b600060208201905081810360008301526138d0818461387d565b905092915050565b6000819050919050565b6138eb816138d8565b81146138f657600080fd5b50565b600081359050613908816138e2565b92915050565b60006020828403121561392457613923613761565b5b6000613932848285016138f9565b91505092915050565b600073ffffffffffffffffffffffffffffffffffffffff82169050919050565b60006139668261393b565b9050919050565b6139768161395b565b82525050565b6000602082019050613991600083018461396d565b92915050565b600080fd5b600080fd5b7f4e487b7100000000000000000000000000000000000000000000000000000000600052604160045260246000fd5b6139d98261386c565b810181811067ffffffffffffffff821117156139f8576139f76139a1565b5b80604052505050565b6000613a0b613757565b9050613a1782826139d0565b919050565b600067ffffffffffffffff821115613a3757613a366139a1565b5b613a408261386c565b9050602081019050919050565b82818337600083830152505050565b6000613a6f613a6a84613a1c565b613a01565b905082815260208101848484011115613a8b57613a8a61399c565b5b613a96848285613a4d565b509392505050565b600082601f830112613ab357613ab2613997565b5b8135613ac3848260208601613a5c565b91505092915050565b60008060408385031215613ae357613ae2613761565b5b600083013567ffffffffffffffff811115613b0157613b00613766565b5b613b0d85828601613a9e565b9250506020613b1e858286016138f9565b9150509250929050565b613b318161395b565b8114613b3c57600080fd5b50565b600081359050613b4e81613b28565b92915050565b60008060408385031215613b6b57613b6a613761565b5b6000613b7985828601613b3f565b9250506020613b8a858286016138f9565b9150509250929050565b6000819050919050565b613ba781613b94565b8114613bb257600080fd5b50565b600081359050613bc481613b9e565b92915050565b600067ffffffffffffffff821115613be557613be46139a1565b5b613bee8261386c565b9050602081019050919050565b6000613c0e613c0984613bca565b613a01565b905082815260208101848484011115613c2a57613c2961399c565b5b613c35848285613a4d565b509392505050565b600082601f830112613c5257613c51613997565b5b8135613c62848260208601613bfb565b91505092915050565b600080600060608486031215613c8457613c83613761565b5b6000613c9286828701613bb5565b935050602084013567ffffffffffffffff811115613cb357613cb2613766565b5b613cbf86828701613c3d565b925050604084013567ffffffffffffffff811115613ce057613cdf613766565b5b613cec86828701613c3d565b9150509250925092565b600067ffffffffffffffff82169050919050565b613d1381613cf6565b8114613d1e57600080fd5b50565b600081359050613d3081613d0a565b92915050565b60008060408385031215613d4d57613d4c613761565b5b600083013567ffffffffffffffff811115613d6b57613d6a613766565b5b613d7785828601613c3d565b9250506020613d8885828601613d21565b9150509250929050565b613d9b81613b94565b82525050565b6000602082019050613db66000830184613d92565b92915050565b613dc5816138d8565b82525050565b6000602082019050613de06000830184613dbc565b92915050565b600080600060608486031215613dff57613dfe613761565b5b6000613e0d86828701613b3f565b9350506020613e1e86828701613b3f565b9250506040613e2f868287016138f9565b9150509250925092565b600081519050919050565b600082825260208201905092915050565b6000613e6082613e39565b613e6a8185613e44565b9350613e7a818560208601613842565b613e838161386c565b840191505092915050565b60006020820190508181036000830152613ea88184613e55565b905092915050565b600067ffffffffffffffff821115613ecb57613eca6139a1565b5b602082029050602081019050919050565b600080fd5b6000613ef4613eef84613eb0565b613a01565b90508083825260208201905060208402830185811115613f1757613f16613edc565b5b835b81811015613f5e57803567ffffffffffffffff811115613f3c57613f3b613997565b5b808601613f498982613a9e565b85526020850194505050602081019050613f19565b5050509392505050565b600082601f830112613f7d57613f7c613997565b5b8135613f8d848260208601613ee1565b91505092915050565b60008060008060808587031215613fb057613faf613761565b5b600085013567ffffffffffffffff811115613fce57613fcd613766565b5b613fda87828801613a9e565b945050602085013567ffffffffffffffff811115613ffb57613ffa613766565b5b61400787828801613c3d565b935050604085013567ffffffffffffffff81111561402857614027613766565b5b61403487828801613f68565b925050606061404587828801613d21565b91505092959194509250565b60006020828403121561406757614066613761565b5b600061407584828501613b3f565b91505092915050565b614087816137f0565b811461409257600080fd5b50565b6000813590506140a48161407e565b92915050565b600080604083850312156140c1576140c0613761565b5b60006140cf85828601613b3f565b92505060206140e085828601614095565b9150509250929050565b6000806000806080858703121561410457614103613761565b5b600061411287828801613b3f565b945050602061412387828801613b3f565b9350506040614134878288016138f9565b925050606085013567ffffffffffffffff81111561415557614154613766565b5b61416187828801613c3d565b91505092959194509250565b60006020828403121561418357614182613761565b5b600082013567ffffffffffffffff8111156141a1576141a0613766565b5b6141ad84828501613a9e565b91505092915050565b600080604083850312156141cd576141cc613761565b5b60006141db85828601613b3f565b92505060206141ec85828601613b3f565b9150509250929050565b7f4e487b7100000000000000000000000000000000000000000000000000000000600052602260045260246000fd5b6000600282049050600182168061423d57607f821691505b6020821081036142505761424f6141f6565b5b50919050565b7f4164647265737320616c7265616479206f776e7320616e204e46540000000000600082015250565b600061428c601b83613831565b915061429782614256565b602082019050919050565b600060208201905081810360008301526142bb8161427f565b9050919050565b7f4e487b7100000000000000000000000000000000000000000000000000000000600052601160045260246000fd5b60006142fc826138d8565b91507fffffffffffffffffffffffffffffffffffffffffffffffffffffffffffffffff820361432e5761432d6142c2565b5b600182019050919050565b6000614344826138d8565b915061434f836138d8565b9250828203905081811115614367576143666142c2565b5b92915050565b6000604082019050614382600083018561396d565b61438f6020830184613dbc565b9392505050565b60006060820190506143ab600083018661396d565b6143b86020830185613dbc565b6143c5604083018461396d565b949350505050565b7f4e487b7100000000000000000000000000000000000000000000000000000000600052603260045260246000fd5b7f4d7573742062652070726f706f736564206f776e657200000000000000000000600082015250565b6000614432601683613831565b915061443d826143fc565b602082019050919050565b6000602082019050818103600083015261446181614425565b9050919050565b60008190508160005260206000209050919050565b60006020601f8301049050919050565b600082821b905092915050565b6000600883026144ca7fffffffffffffffffffffffffffffffffffffffffffffffffffffffffffffffff8261448d565b6144d4868361448d565b95508019841693508086168417925050509392505050565b6000819050919050565b600061451161450c614507846138d8565b6144ec565b6138d8565b9050919050565b6000819050919050565b61452b836144f6565b61453f61453782614518565b84845461449a565b825550505050565b600090565b614554614547565b61455f818484614522565b505050565b5b818110156145835761457860008261454c565b600181019050614565565b5050565b601f8211156145c85761459981614468565b6145a28461447d565b810160208510156145b1578190505b6145c56145bd8561447d565b830182614564565b50505b505050565b600082821c905092915050565b60006145eb600019846008026145cd565b1980831691505092915050565b600061460483836145da565b9150826002028217905092915050565b61461d82613826565b67ffffffffffffffff811115614636576146356139a1565b5b6146408254614225565b61464b828285614587565b600060209050601f83116001811461467e576000841561466c578287015190505b61467685826145f8565b8655506146de565b601f19841661468c86614468565b60005b828110156146b45784890151825560018201915060208501945060208101905061468f565b868310156146d157848901516146cd601f8916826145da565b8355505b6001600288020188555050505b505050505050565b60008190508160005260206000209050919050565b601f82111561473c5761470d816146e6565b6147168461447d565b81016020851015614725578190505b6147396147318561447d565b830182614564565b50505b505050565b61474a82613e39565b67ffffffffffffffff811115614763576147626139a1565b5b61476d8254614225565b6147788282856146fb565b600060209050601f8311600181146147ab5760008415614799578287015190505b6147a385826145f8565b86555061480b565b601f1984166147b9866146e6565b60005b828110156147e1578489015182556001820191506020850194506020810190506147bc565b868310156147fe57848901516147fa601f8916826145da565b8355505b6001600288020188555050505b505050505050565b6000815461482081614225565b61482a8186613e44565b94506001821660008114614845576001811461485b5761488e565b60ff19831686528115156020028601935061488e565b614864856146e6565b60005b8381101561488657815481890152600182019150602081019050614867565b808801955050505b50505092915050565b600060408201905081810360008301526148b18185614813565b905081810360208301526148c58184614813565b90509392505050565b7f4f6e6c792063616c6c61626c65206279206f776e657200000000000000000000600082015250565b6000614904601683613831565b915061490f826148ce565b602082019050919050565b60006020820190508181036000830152614933816148f7565b9050919050565b61494381613cf6565b82525050565b600061ffff82169050919050565b61496081614949565b82525050565b600063ffffffff82169050919050565b61497f81614966565b82525050565b600060a08201905061499a600083018861493a565b81810360208301526149ac8187613e55565b90506149bb6040830186614957565b6149c86060830185614976565b6149d56080830184613d92565b9695505050505050565b6000815190506149ee81613b9e565b92915050565b600060208284031215614a0a57614a09613761565b5b6000614a18848285016149df565b91505092915050565b7f4e487b7100000000000000000000000000000000000000000000000000000000600052601260045260246000fd5b7f4e487b7100000000000000000000000000000000000000000000000000000000600052602160045260246000fd5b6000608082019050614a94600083018761396d565b614aa1602083018661396d565b614aae6040830185613dbc565b8181036060830152614ac08184613e55565b905095945050505050565b600081519050614ada81613797565b92915050565b600060208284031215614af657614af5613761565b5b6000614b0484828501614acb565b91505092915050565b600081905092915050565b6000614b2382613826565b614b2d8185614b0d565b9350614b3d818560208601613842565b80840191505092915050565b6000614b558285614b18565b9150614b618284614b18565b91508190509392505050565b7f43616e6e6f74207472616e7366657220746f2073656c66000000000000000000600082015250565b6000614ba3601783613831565b9150614bae82614b6d565b602082019050919050565b60006020820190508181036000830152614bd281614b96565b9050919050565b6000614be4826138d8565b9150614bef836138d8565b9250828201905080821115614c0757614c066142c2565b5b92915050565b7f4e487b7100000000000000000000000000000000000000000000000000000000600052603160045260246000fd5b6000614c47826138d8565b9150614c52836138d8565b925082614c6257614c61614a21565b5b828206905092915050565b6000614c78826138d8565b9150614c83836138d8565b9250828202614c91816138d8565b91508282048414831517614ca857614ca76142c2565b5b5092915050565b60008160011c9050919050565b6000808291508390505b6001851115614d0657808604811115614ce257614ce16142c2565b5b6001851615614cf15780820291505b8081029050614cff85614caf565b9450614cc6565b94509492505050565b600082614d1f5760019050614ddb565b81614d2d5760009050614ddb565b8160018114614d435760028114614d4d57614d7c565b6001915050614ddb565b60ff841115614d5f57614d5e6142c2565b5b8360020a915084821115614d7657614d756142c2565b5b50614ddb565b5060208310610133831016604e8410600b8410161715614db15782820a905083811115614dac57614dab6142c2565b5b614ddb565b614dbe8484846001614cbc565b92509050818404811115614dd557614dd46142c2565b5b81810290505b9392505050565b6000614ded826138d8565b9150614df8836138d8565b9250614e257fffffffffffffffffffffffffffffffffffffffffffffffffffffffffffffffff8484614d0f565b90509291505056fea26469706673582212209e88b4ee463c6cc868066b4714f3a07e4c60ca1d92151329aeea13ec5f677b8e64736f6c63430008140033",
  "linkReferences": {},
  "deployedLinkReferences": {}
}