{
  "_format": "hh-sol-artifact-1",
  "contractName": "Roulette",
  "sourceName": "contracts/Roulette.sol",
  "abi": [
    {
      "inputs": [
        {
          "internalType": "uint64",
          "name": "subscriptionId",
          "type": "uint64"
        },
        {
          "internalType": "address",
          "name": "vrfCoordinator",
          "type": "address"
        },
        {
          "internalType": "bytes32",
          "name": "keyHash",
          "type": "bytes32"
        },
        {
          "internalType": "address",
          "name": "_linkToken",
          "type": "address"
        }
      ],
      "stateMutability": "nonpayable",
      "type": "constructor"
    },
    {
      "inputs": [
        {
          "internalType": "address",
          "name": "have",
          "type": "address"
        },
        {
          "internalType": "address",
          "name": "want",
          "type": "address"
        }
      ],
      "name": "OnlyCoordinatorCanFulfill",
      "type": "error"
    },
    {
      "anonymous": false,
      "inputs": [
        {
          "indexed": true,
          "internalType": "address",
          "name": "player",
          "type": "address"
        },
        {
          "indexed": false,
          "internalType": "uint256",
          "name": "totalBetAmount",
          "type": "uint256"
        }
      ],
      "name": "BetPlaced",
      "type": "event"
    },
    {
      "anonymous": false,
      "inputs": [
        {
          "indexed": true,
          "internalType": "uint256",
          "name": "requestId",
          "type": "uint256"
        },
        {
          "indexed": true,
          "internalType": "address",
          "name": "roller",
          "type": "address"
        }
      ],
      "name": "DiceRolled",
      "type": "event"
    },
    {
      "anonymous": false,
      "inputs": [
        {
          "indexed": true,
          "internalType": "address",
          "name": "from",
          "type": "address"
        },
        {
          "indexed": true,
          "internalType": "address",
          "name": "to",
          "type": "address"
        }
      ],
      "name": "OwnershipTransferRequested",
      "type": "event"
    },
    {
      "anonymous": false,
      "inputs": [
        {
          "indexed": true,
          "internalType": "address",
          "name": "from",
          "type": "address"
        },
        {
          "indexed": true,
          "internalType": "address",
          "name": "to",
          "type": "address"
        }
      ],
      "name": "OwnershipTransferred",
      "type": "event"
    },
    {
      "anonymous": false,
      "inputs": [
        {
          "indexed": true,
          "internalType": "uint256",
          "name": "requestId",
          "type": "uint256"
        },
        {
          "indexed": false,
          "internalType": "uint256",
          "name": "randomResult",
          "type": "uint256"
        },
        {
          "indexed": true,
          "internalType": "address",
          "name": "roller",
          "type": "address"
        },
        {
          "indexed": false,
          "internalType": "uint256",
          "name": "totalWinnings",
          "type": "uint256"
        }
      ],
      "name": "RandomNumberFulfilled",
      "type": "event"
    },
    {
      "anonymous": false,
      "inputs": [
        {
          "indexed": true,
          "internalType": "address",
          "name": "player",
          "type": "address"
        },
        {
          "indexed": false,
          "internalType": "uint256",
          "name": "amount",
          "type": "uint256"
        }
      ],
      "name": "WinningsWithdrawn",
      "type": "event"
    },
    {
      "inputs": [],
      "name": "acceptOwnership",
      "outputs": [],
      "stateMutability": "nonpayable",
      "type": "function"
    },
    {
      "inputs": [],
      "name": "callbackGasLimit",
      "outputs": [
        {
          "internalType": "uint32",
          "name": "",
          "type": "uint32"
        }
      ],
      "stateMutability": "view",
      "type": "function"
    },
    {
      "inputs": [
        {
          "internalType": "bytes",
          "name": "",
          "type": "bytes"
        }
      ],
      "name": "checkUpkeep",
      "outputs": [
        {
          "internalType": "bool",
          "name": "upkeepNeeded",
          "type": "bool"
        },
        {
          "internalType": "bytes",
          "name": "",
          "type": "bytes"
        }
      ],
      "stateMutability": "view",
      "type": "function"
    },
    {
      "inputs": [
        {
          "internalType": "address",
          "name": "user",
          "type": "address"
        }
      ],
      "name": "getCurrentWinnings",
      "outputs": [
        {
          "internalType": "uint256",
          "name": "",
          "type": "uint256"
        }
      ],
      "stateMutability": "view",
      "type": "function"
    },
    {
      "inputs": [],
      "name": "linkToken",
      "outputs": [
        {
          "internalType": "contract IERC20",
          "name": "",
          "type": "address"
        }
      ],
      "stateMutability": "view",
      "type": "function"
    },
    {
      "inputs": [],
      "name": "numWords",
      "outputs": [
        {
          "internalType": "uint32",
          "name": "",
          "type": "uint32"
        }
      ],
      "stateMutability": "view",
      "type": "function"
    },
    {
      "inputs": [],
      "name": "owner",
      "outputs": [
        {
          "internalType": "address",
          "name": "",
          "type": "address"
        }
      ],
      "stateMutability": "view",
      "type": "function"
    },
    {
      "inputs": [
        {
          "internalType": "bytes",
          "name": "",
          "type": "bytes"
        }
      ],
      "name": "performUpkeep",
      "outputs": [],
      "stateMutability": "nonpayable",
      "type": "function"
    },
    {
      "inputs": [
        {
          "internalType": "uint256[157]",
          "name": "betAmounts",
          "type": "uint256[157]"
        }
      ],
      "name": "placeBets",
      "outputs": [],
      "stateMutability": "nonpayable",
      "type": "function"
    },
    {
      "inputs": [
        {
          "internalType": "address",
          "name": "",
          "type": "address"
        },
        {
          "internalType": "uint256",
          "name": "",
          "type": "uint256"
        }
      ],
      "name": "playerBets",
      "outputs": [
        {
          "internalType": "uint256",
          "name": "",
          "type": "uint256"
        }
      ],
      "stateMutability": "view",
      "type": "function"
    },
    {
      "inputs": [
        {
          "internalType": "uint256",
          "name": "requestId",
          "type": "uint256"
        },
        {
          "internalType": "uint256[]",
          "name": "randomWords",
          "type": "uint256[]"
        }
      ],
      "name": "rawFulfillRandomWords",
      "outputs": [],
      "stateMutability": "nonpayable",
      "type": "function"
    },
    {
      "inputs": [],
      "name": "requestConfirmations",
      "outputs": [
        {
          "internalType": "uint16",
          "name": "",
          "type": "uint16"
        }
      ],
      "stateMutability": "view",
      "type": "function"
    },
    {
      "inputs": [
        {
          "internalType": "address",
          "name": "newroller",
          "type": "address"
        }
      ],
      "name": "rollDice",
      "outputs": [
        {
          "internalType": "uint256",
          "name": "requestId",
          "type": "uint256"
        }
      ],
      "stateMutability": "nonpayable",
      "type": "function"
    },
    {
      "inputs": [],
      "name": "rollDiceRequestId",
      "outputs": [
        {
          "internalType": "uint256",
          "name": "",
          "type": "uint256"
        }
      ],
      "stateMutability": "view",
      "type": "function"
    },
    {
      "inputs": [
        {
          "internalType": "address",
          "name": "to",
          "type": "address"
        }
      ],
      "name": "transferOwnership",
      "outputs": [],
      "stateMutability": "nonpayable",
      "type": "function"
    },
    {
      "inputs": [
        {
          "internalType": "address",
          "name": "",
          "type": "address"
        }
      ],
      "name": "winnings",
      "outputs": [
        {
          "internalType": "uint256",
          "name": "",
          "type": "uint256"
        }
      ],
      "stateMutability": "view",
      "type": "function"
    },
    {
      "inputs": [],
      "name": "withdrawWinnings",
      "outputs": [],
      "stateMutability": "nonpayable",
      "type": "function"
    }
  ],
  "bytecode": "0x610100604052622625a0600260146101000a81548163ffffffff021916908363ffffffff1602179055506003600260186101000a81548161ffff021916908361ffff16021790555060016002601a6101000a81548163ffffffff021916908363ffffffff1602179055506000600860006101000a81548160ff021916908315150217905550604051806102400160405280600160ff168152602001600360ff168152602001600560ff168152602001600760ff168152602001600960ff168152602001600c60ff168152602001600e60ff168152602001601060ff168152602001601260ff168152602001601360ff168152602001601560ff168152602001601760ff168152602001601960ff168152602001601b60ff168152602001601e60ff168152602001602060ff168152602001602260ff168152602001602460ff16815250600a9060126200015492919062000561565b50604051806102400160405280600260ff168152602001600460ff168152602001600660ff168152602001600860ff168152602001600a60ff168152602001600b60ff168152602001600d60ff168152602001600f60ff168152602001601160ff168152602001601460ff168152602001601660ff168152602001601860ff168152602001601a60ff168152602001601c60ff168152602001601d60ff168152602001601f60ff168152602001602160ff168152602001602360ff16815250600b9060126200022592919062000561565b503480156200023357600080fd5b50604051620040d1380380620040d1833981810160405281019062000259919062000718565b33806000858073ffffffffffffffffffffffffffffffffffffffff1660808173ffffffffffffffffffffffffffffffffffffffff168152505050600073ffffffffffffffffffffffffffffffffffffffff168273ffffffffffffffffffffffffffffffffffffffff160362000305576040517f08c379a0000000000000000000000000000000000000000000000000000000008152600401620002fc90620007eb565b60405180910390fd5b816000806101000a81548173ffffffffffffffffffffffffffffffffffffffff021916908373ffffffffffffffffffffffffffffffffffffffff160217905550600073ffffffffffffffffffffffffffffffffffffffff168173ffffffffffffffffffffffffffffffffffffffff16146200038c576200038b816200043260201b60201c565b5b5050508273ffffffffffffffffffffffffffffffffffffffff1660a08173ffffffffffffffffffffffffffffffffffffffff16815250508160e081815250508367ffffffffffffffff1660c08167ffffffffffffffff168152505080600260006101000a81548173ffffffffffffffffffffffffffffffffffffffff021916908373ffffffffffffffffffffffffffffffffffffffff160217905550505050506200087f565b3373ffffffffffffffffffffffffffffffffffffffff168173ffffffffffffffffffffffffffffffffffffffff1603620004a3576040517f08c379a00000000000000000000000000000000000000000000000000000000081526004016200049a906200085d565b60405180910390fd5b80600160006101000a81548173ffffffffffffffffffffffffffffffffffffffff021916908373ffffffffffffffffffffffffffffffffffffffff1602179055508073ffffffffffffffffffffffffffffffffffffffff1660008054906101000a900473ffffffffffffffffffffffffffffffffffffffff1673ffffffffffffffffffffffffffffffffffffffff167fed8889f560326eb138920d842192f0eb3dd22b4f139c87a2c57538e05bae127860405160405180910390a350565b82805482825590600052602060002090601f01602090048101928215620005fc5791602002820160005b83821115620005cb57835183826101000a81548160ff021916908360ff16021790555092602001926001016020816000010492830192600103026200058b565b8015620005fa5782816101000a81549060ff0219169055600101602081600001049283019260010302620005cb565b505b5090506200060b91906200060f565b5090565b5b808211156200062a57600081600090555060010162000610565b5090565b600080fd5b600067ffffffffffffffff82169050919050565b620006528162000633565b81146200065e57600080fd5b50565b600081519050620006728162000647565b92915050565b600073ffffffffffffffffffffffffffffffffffffffff82169050919050565b6000620006a58262000678565b9050919050565b620006b78162000698565b8114620006c357600080fd5b50565b600081519050620006d781620006ac565b92915050565b6000819050919050565b620006f281620006dd565b8114620006fe57600080fd5b50565b6000815190506200071281620006e7565b92915050565b600080600080608085870312156200073557620007346200062e565b5b6000620007458782880162000661565b94505060206200075887828801620006c6565b93505060406200076b8782880162000701565b92505060606200077e87828801620006c6565b91505092959194509250565b600082825260208201905092915050565b7f43616e6e6f7420736574206f776e657220746f207a65726f0000000000000000600082015250565b6000620007d36018836200078a565b9150620007e0826200079b565b602082019050919050565b600060208201905081810360008301526200080681620007c4565b9050919050565b7f43616e6e6f74207472616e7366657220746f2073656c66000000000000000000600082015250565b6000620008456017836200078a565b915062000852826200080d565b602082019050919050565b60006020820190508181036000830152620008788162000836565b9050919050565b60805160a05160c05160e051613811620008c06000396000610ea801526000610ec901526000610e6c01526000818161033b015261038f01526138116000f3fe608060405234801561001057600080fd5b506004361061010b5760003560e01c80638da5cb5b116100a2578063cc42e83a11610071578063cc42e83a14610295578063dd02d9e51461029f578063e871381f146102cf578063ea3a1499146102ed578063f2fde38b1461031d5761010b565b80638da5cb5b1461020d578063ab6b1f681461022b578063b0fb162f1461025b578063ca2a1573146102795761010b565b80636e04ff0d116100de5780636e04ff0d1461018457806378f5bb0d146101b557806379ba5097146101e55780637ccfd7fc146101ef5761010b565b80631fe543e31461011057806324f746971461012c5780634585e33b1461014a57806357970e9314610166575b600080fd5b61012a60048036038101906101259190612a18565b610339565b005b6101346103f9565b6040516101419190612a93565b60405180910390f35b610164600480360381019061015f9190612b09565b61040f565b005b61016e6104c9565b60405161017b9190612bd5565b60405180910390f35b61019e60048036038101906101999190612b09565b6104ef565b6040516101ac929190612c8a565b60405180910390f35b6101cf60048036038101906101ca9190612cf8565b610547565b6040516101dc9190612d34565b60405180910390f35b6101ed610590565b005b6101f7610725565b6040516102049190612a93565b60405180910390f35b61021561073b565b6040516102229190612d5e565b60405180910390f35b61024560048036038101906102409190612d79565b610764565b6040516102529190612d34565b60405180910390f35b61026361078c565b6040516102709190612dd6565b60405180910390f35b610293600480360381019061028e9190612e13565b6107a0565b005b61029d610be9565b005b6102b960048036038101906102b49190612cf8565b610de5565b6040516102c69190612d34565b60405180910390f35b6102d7611041565b6040516102e49190612d34565b60405180910390f35b61030760048036038101906103029190612cf8565b611047565b6040516103149190612d34565b60405180910390f35b61033760048036038101906103329190612cf8565b61105f565b005b7f000000000000000000000000000000000000000000000000000000000000000073ffffffffffffffffffffffffffffffffffffffff163373ffffffffffffffffffffffffffffffffffffffff16146103eb57337f00000000000000000000000000000000000000000000000000000000000000006040517f1cf993f40000000000000000000000000000000000000000000000000000000081526004016103e2929190612e41565b60405180910390fd5b6103f58282611073565b5050565b600260149054906101000a900463ffffffff1681565b60003073ffffffffffffffffffffffffffffffffffffffff16636e04ff0d6040518163ffffffff1660e01b815260040161044890612e90565b600060405180830381865afa158015610465573d6000803e3d6000fd5b505050506040513d6000823e3d601f19601f8201168201806040525081019061048e9190612f82565b50905080156104c4576104c2600360009054906101000a900473ffffffffffffffffffffffffffffffffffffffff16610de5565b505b505050565b600260009054906101000a900473ffffffffffffffffffffffffffffffffffffffff1681565b60006060600860009054906101000a900460ff169150816040518060400160405280600381526020017f3078300000000000000000000000000000000000000000000000000000000000815250915091509250929050565b6000600660008373ffffffffffffffffffffffffffffffffffffffff1673ffffffffffffffffffffffffffffffffffffffff168152602001908152602001600020549050919050565b600160009054906101000a900473ffffffffffffffffffffffffffffffffffffffff1673ffffffffffffffffffffffffffffffffffffffff163373ffffffffffffffffffffffffffffffffffffffff1614610620576040517f08c379a00000000000000000000000000000000000000000000000000000000081526004016106179061303b565b60405180910390fd5b60008060009054906101000a900473ffffffffffffffffffffffffffffffffffffffff169050336000806101000a81548173ffffffffffffffffffffffffffffffffffffffff021916908373ffffffffffffffffffffffffffffffffffffffff1602179055506000600160006101000a81548173ffffffffffffffffffffffffffffffffffffffff021916908373ffffffffffffffffffffffffffffffffffffffff1602179055503373ffffffffffffffffffffffffffffffffffffffff168173ffffffffffffffffffffffffffffffffffffffff167f8be0079c531659141344cd1fd0a4f28419497f9722a3daafe3b4186f6b6457e060405160405180910390a350565b6002601a9054906101000a900463ffffffff1681565b60008060009054906101000a900473ffffffffffffffffffffffffffffffffffffffff16905090565b600760205281600052604060002081609d811061078057600080fd5b01600091509150505481565b600260189054906101000a900461ffff1681565b6000805b609d8110156107e5578281609d81106107c0576107bf61305b565b5b6020020135826107d091906130b9565b915080806107dd906130ed565b9150506107a4565b5060008111610829576040517f08c379a0000000000000000000000000000000000000000000000000000000008152600401610820906131a7565b60405180910390fd5b80600260009054906101000a900473ffffffffffffffffffffffffffffffffffffffff1673ffffffffffffffffffffffffffffffffffffffff1663dd62ed3e33306040518363ffffffff1660e01b8152600401610887929190612e41565b602060405180830381865afa1580156108a4573d6000803e3d6000fd5b505050506040513d601f19601f820116820180604052508101906108c891906131dc565b1015610909576040517f08c379a00000000000000000000000000000000000000000000000000000000081526004016109009061327b565b60405180910390fd5b80600260009054906101000a900473ffffffffffffffffffffffffffffffffffffffff1673ffffffffffffffffffffffffffffffffffffffff1663dd62ed3e33306040518363ffffffff1660e01b8152600401610967929190612e41565b602060405180830381865afa158015610984573d6000803e3d6000fd5b505050506040513d601f19601f820116820180604052508101906109a891906131dc565b10156109e9576040517f08c379a00000000000000000000000000000000000000000000000000000000081526004016109e0906132e7565b60405180910390fd5b600260009054906101000a900473ffffffffffffffffffffffffffffffffffffffff1673ffffffffffffffffffffffffffffffffffffffff166323b872dd3330846040518463ffffffff1660e01b8152600401610a4893929190613307565b6020604051808303816000875af1158015610a67573d6000803e3d6000fd5b505050506040513d601f19601f82011682018060405250810190610a8b919061333e565b610aca576040517f08c379a0000000000000000000000000000000000000000000000000000000008152600401610ac1906133b7565b60405180910390fd5b81600760003373ffffffffffffffffffffffffffffffffffffffff1673ffffffffffffffffffffffffffffffffffffffff16815260200190815260200160002090609d610b18929190612805565b5033600360006101000a81548173ffffffffffffffffffffffffffffffffffffffff021916908373ffffffffffffffffffffffffffffffffffffffff160217905550600360009054906101000a900473ffffffffffffffffffffffffffffffffffffffff1673ffffffffffffffffffffffffffffffffffffffff167f43e08d78302cdf9c94e1ffd293c2a3696139ee41cf3199b6f5eed9c7f6cc609082604051610bc29190612d34565b60405180910390a26001600860006101000a81548160ff0219169083151502179055505050565b6000600660003373ffffffffffffffffffffffffffffffffffffffff1673ffffffffffffffffffffffffffffffffffffffff16815260200190815260200160002054905060008111610c70576040517f08c379a0000000000000000000000000000000000000000000000000000000008152600401610c6790613423565b60405180910390fd5b6000600660003373ffffffffffffffffffffffffffffffffffffffff1673ffffffffffffffffffffffffffffffffffffffff16815260200190815260200160002081905550600260009054906101000a900473ffffffffffffffffffffffffffffffffffffffff1673ffffffffffffffffffffffffffffffffffffffff1663a9059cbb33836040518363ffffffff1660e01b8152600401610d12929190613443565b6020604051808303816000875af1158015610d31573d6000803e3d6000fd5b505050506040513d601f19601f82011682018060405250810190610d55919061333e565b610d94576040517f08c379a0000000000000000000000000000000000000000000000000000000008152600401610d8b906134b8565b60405180910390fd5b3373ffffffffffffffffffffffffffffffffffffffff167f24215bbaf0832fa4d6ffef16dee3971d8b714921fef3ad63f793d578983c6dc282604051610dda9190612d34565b60405180910390a250565b600080600760008473ffffffffffffffffffffffffffffffffffffffff1673ffffffffffffffffffffffffffffffffffffffff16815260200190815260200160002050609d11610e6a576040517f08c379a0000000000000000000000000000000000000000000000000000000008152600401610e6190613524565b60405180910390fd5b7f000000000000000000000000000000000000000000000000000000000000000073ffffffffffffffffffffffffffffffffffffffff16635d3b1d307f00000000000000000000000000000000000000000000000000000000000000007f0000000000000000000000000000000000000000000000000000000000000000600260189054906101000a900461ffff16600260149054906101000a900463ffffffff166002601a9054906101000a900463ffffffff166040518663ffffffff1660e01b8152600401610f3f959493929190613580565b6020604051808303816000875af1158015610f5e573d6000803e3d6000fd5b505050506040513d601f19601f82011682018060405250810190610f8291906131dc565b9050816004600083815260200190815260200160002060006101000a81548173ffffffffffffffffffffffffffffffffffffffff021916908373ffffffffffffffffffffffffffffffffffffffff1602179055508173ffffffffffffffffffffffffffffffffffffffff16817f3e7fdeab84c01ce5308321caa0b460e1c4ec3c7099223d79634d9a71d99932e360405160405180910390a36000600860006101000a81548160ff02191690831515021790555080600981905550919050565b60095481565b60066020528060005260406000206000915090505481565b611067611d32565b61107081611dc2565b50565b6000600160248360008151811061108d5761108c61305b565b5b602002602001015161109f9190613602565b6110a991906130b9565b905060006004600085815260200190815260200160002060009054906101000a900473ffffffffffffffffffffffffffffffffffffffff1690506000600760008373ffffffffffffffffffffffffffffffffffffffff1673ffffffffffffffffffffffffffffffffffffffff16815260200190815260200160002090506000808285609d811061113c5761113b61305b565b5b01541115611192578184609d81106111575761115661305b565b5b015460238386609d811061116e5761116d61305b565b5b015461117a9190613633565b61118491906130b9565b8161118f91906130b9565b90505b6000602590505b6060811161124a5760008382609d81106111b6576111b561305b565b5b01541115611237576000806111ca83611eee565b91509150818714806111db57508087145b15611234578483609d81106111f3576111f261305b565b5b015460118685609d811061120a5761120961305b565b5b01546112169190613633565b61122091906130b9565b8461122b91906130b9565b9350505061124a565b50505b8080611242906130ed565b915050611199565b50600084146113405760005b600e81101561133e57600081606161126e91906130b9565b9050600060038361127f9190613633565b600161128b91906130b9565b9050600060028261129c91906130b9565b90508188101580156112ae5750808811155b80156112ce575060008684609d81106112ca576112c961305b565b5b0154115b15611328578583609d81106112e6576112e561305b565b5b0154600b8785609d81106112fd576112fc61305b565b5b01546113099190613633565b61131391906130b9565b8561131e91906130b9565b945050505061133e565b5050508080611336906130ed565b915050611256565b505b60005b601781101561149157600081606f61135b91906130b9565b90506000600160048461136e9190613602565b600360048661137d9190613675565b6113879190613633565b61139191906130b9565b61139b91906130b9565b905060006001826113ac91906130b9565b905060006003836113bd91906130b9565b905060006001826113ce91906130b9565b9050600086036113e5576000935060019150600290505b838a14806113f25750828a145b806113fc5750818a145b806114065750808a145b8015611426575060008886609d81106114225761142161305b565b5b0154115b15611479578785609d811061143e5761143d61305b565b5b015460088987609d81106114555761145461305b565b5b01546114619190613633565b61146b91906130b9565b8761147691906130b9565b96505b50505050508080611489906130ed565b915050611343565b50600084146115875760005b600b8110156115855760008160866114b591906130b9565b905060006003836114c69190613633565b60016114d291906130b9565b905060006005826114e391906130b9565b90508188101580156114f55750808811155b8015611515575060008684609d81106115115761151061305b565b5b0154115b1561156f578583609d811061152d5761152c61305b565b5b015460058785609d81106115445761154361305b565b5b01546115509190613633565b61155a91906130b9565b8561156591906130b9565b9450505050611585565b505050808061157d906130ed565b91505061149d565b505b6000841461172c57600160038561159e9190613602565b1480156115c057506000826091609d81106115bc576115bb61305b565b5b0154115b1561161957816091609d81106115d9576115d861305b565b5b01546002836091609d81106115f1576115f061305b565b5b01546115fd9190613633565b61160791906130b9565b8161161291906130b9565b905061172b565b60026003856116289190613602565b14801561164a57506000826092609d81106116465761164561305b565b5b0154115b156116a357816092609d81106116635761166261305b565b5b01546002836092609d811061167b5761167a61305b565b5b01546116879190613633565b61169191906130b9565b8161169c91906130b9565b905061172a565b60006003856116b29190613602565b1480156116d457506000826093609d81106116d0576116cf61305b565b5b0154115b1561172957816093609d81106116ed576116ec61305b565b5b01546002836093609d81106117055761170461305b565b5b01546117119190613633565b61171b91906130b9565b8161172691906130b9565b90505b5b5b5b6001841015801561173e5750600c8411155b801561175f57506000826094609d811061175b5761175a61305b565b5b0154115b156117b857816094609d81106117785761177761305b565b5b01546002836094609d81106117905761178f61305b565b5b015461179c9190613633565b6117a691906130b9565b816117b191906130b9565b90506118ce565b600d84101580156117ca575060188411155b80156117eb57506000826095609d81106117e7576117e661305b565b5b0154115b1561184457816095609d81106118045761180361305b565b5b01546002836095609d811061181c5761181b61305b565b5b01546118289190613633565b61183291906130b9565b8161183d91906130b9565b90506118cd565b60198410158015611856575060248411155b801561187757506000826096609d81106118735761187261305b565b5b0154115b156118cc57816096609d81106118905761188f61305b565b5b01546002836096609d81106118a8576118a761305b565b5b01546118b49190613633565b6118be91906130b9565b816118c991906130b9565b90505b5b5b60008414611a8857611956600a80548060200260200160405190810160405280929190818152602001828054801561194b57602002820191906000526020600020906000905b82829054906101000a900460ff1660ff16815260200190600101906020826000010492830192600103820291508084116119145790505b5050505050856127a4565b801561197757506000826097609d81106119735761197261305b565b5b0154115b156119b0576002826097609d81106119925761199161305b565b5b015461199e9190613633565b816119a991906130b9565b9050611a87565b611a30600b805480602002602001604051908101604052809291908181526020018280548015611a2557602002820191906000526020600020906000905b82829054906101000a900460ff1660ff16815260200190600101906020826000010492830192600103820291508084116119ee5790505b5050505050856127a4565b8015611a5157506000826098609d8110611a4d57611a4c61305b565b5b0154115b15611a86576002826098609d8110611a6c57611a6b61305b565b5b0154611a789190613633565b81611a8391906130b9565b90505b5b5b60018410158015611a9a575060128411155b8015611abb5750600082609a609d8110611ab757611ab661305b565b5b0154115b15611af457600282609a609d8110611ad657611ad561305b565b5b0154611ae29190613633565b81611aed91906130b9565b9050611b5d565b60138410158015611b06575060248411155b8015611b2757506000826099609d8110611b2357611b2261305b565b5b0154115b15611b5c576002826099609d8110611b4257611b4161305b565b5b0154611b4e9190613633565b81611b5991906130b9565b90505b5b60008414611c38576000600285611b749190613602565b148015611b965750600082609b609d8110611b9257611b9161305b565b5b0154115b15611bcf57600282609b609d8110611bb157611bb061305b565b5b0154611bbd9190613633565b81611bc891906130b9565b9050611c37565b6000600285611bde9190613602565b14158015611c015750600082609c609d8110611bfd57611bfc61305b565b5b0154115b15611c3657600282609c609d8110611c1c57611c1b61305b565b5b0154611c289190613633565b81611c3391906130b9565b90505b5b5b80600660008573ffffffffffffffffffffffffffffffffffffffff1673ffffffffffffffffffffffffffffffffffffffff1681526020019081526020016000206000828254611c8791906130b9565b925050819055508273ffffffffffffffffffffffffffffffffffffffff16867f3eee08802d8a972a5a7d154f33e6df603b0821ff824f9e436f03238d1b81c12a8684604051611cd79291906136a6565b60405180910390a3600760008473ffffffffffffffffffffffffffffffffffffffff1673ffffffffffffffffffffffffffffffffffffffff1681526020019081526020016000206000611d2a9190612845565b505050505050565b60008054906101000a900473ffffffffffffffffffffffffffffffffffffffff1673ffffffffffffffffffffffffffffffffffffffff163373ffffffffffffffffffffffffffffffffffffffff1614611dc0576040517f08c379a0000000000000000000000000000000000000000000000000000000008152600401611db79061371b565b60405180910390fd5b565b3373ffffffffffffffffffffffffffffffffffffffff168173ffffffffffffffffffffffffffffffffffffffff1603611e30576040517f08c379a0000000000000000000000000000000000000000000000000000000008152600401611e2790613787565b60405180910390fd5b80600160006101000a81548173ffffffffffffffffffffffffffffffffffffffff021916908373ffffffffffffffffffffffffffffffffffffffff1602179055508073ffffffffffffffffffffffffffffffffffffffff1660008054906101000a900473ffffffffffffffffffffffffffffffffffffffff1673ffffffffffffffffffffffffffffffffffffffff167fed8889f560326eb138920d842192f0eb3dd22b4f139c87a2c57538e05bae127860405160405180910390a350565b60008060006040518061078001604052806040518060400160405280600060ff168152602001600160ff1681525081526020016040518060400160405280600060ff168152602001600260ff1681525081526020016040518060400160405280600060ff168152602001600360ff1681525081526020016040518060400160405280600160ff168152602001600460ff1681525081526020016040518060400160405280600460ff168152602001600760ff1681525081526020016040518060400160405280600760ff168152602001600a60ff1681525081526020016040518060400160405280600a60ff168152602001600d60ff1681525081526020016040518060400160405280600d60ff168152602001601060ff1681525081526020016040518060400160405280601060ff168152602001601360ff1681525081526020016040518060400160405280601360ff168152602001601660ff1681525081526020016040518060400160405280601660ff168152602001601960ff1681525081526020016040518060400160405280601960ff168152602001601c60ff1681525081526020016040518060400160405280601c60ff168152602001601f60ff1681525081526020016040518060400160405280601f60ff168152602001602260ff1681525081526020016040518060400160405280600260ff168152602001600560ff1681525081526020016040518060400160405280600560ff168152602001600860ff1681525081526020016040518060400160405280600860ff168152602001600b60ff1681525081526020016040518060400160405280600b60ff168152602001600e60ff1681525081526020016040518060400160405280600e60ff168152602001601160ff1681525081526020016040518060400160405280601160ff168152602001601460ff1681525081526020016040518060400160405280601460ff168152602001601760ff1681525081526020016040518060400160405280601760ff168152602001601a60ff1681525081526020016040518060400160405280601a60ff168152602001601d60ff1681525081526020016040518060400160405280601d60ff168152602001602060ff1681525081526020016040518060400160405280602060ff168152602001602360ff1681525081526020016040518060400160405280600360ff168152602001600660ff1681525081526020016040518060400160405280600660ff168152602001600960ff1681525081526020016040518060400160405280600960ff168152602001600c60ff1681525081526020016040518060400160405280600c60ff168152602001600f60ff1681525081526020016040518060400160405280600f60ff168152602001601260ff1681525081526020016040518060400160405280601260ff168152602001601560ff1681525081526020016040518060400160405280601560ff168152602001601860ff1681525081526020016040518060400160405280601860ff168152602001601b60ff1681525081526020016040518060400160405280601b60ff168152602001601e60ff1681525081526020016040518060400160405280601e60ff168152602001602160ff1681525081526020016040518060400160405280602160ff168152602001602460ff1681525081526020016040518060400160405280600160ff168152602001600260ff1681525081526020016040518060400160405280600260ff168152602001600360ff1681525081526020016040518060400160405280600460ff168152602001600560ff1681525081526020016040518060400160405280600560ff168152602001600660ff1681525081526020016040518060400160405280600760ff168152602001600860ff1681525081526020016040518060400160405280600860ff168152602001600960ff1681525081526020016040518060400160405280600a60ff168152602001600b60ff1681525081526020016040518060400160405280600b60ff168152602001600c60ff1681525081526020016040518060400160405280600d60ff168152602001600e60ff1681525081526020016040518060400160405280600e60ff168152602001600f60ff1681525081526020016040518060400160405280601060ff168152602001601160ff1681525081526020016040518060400160405280601160ff168152602001601260ff1681525081526020016040518060400160405280601360ff168152602001601460ff1681525081526020016040518060400160405280601460ff168152602001601560ff1681525081526020016040518060400160405280601660ff168152602001601760ff1681525081526020016040518060400160405280601760ff168152602001601860ff1681525081526020016040518060400160405280601960ff168152602001601a60ff1681525081526020016040518060400160405280601a60ff168152602001601b60ff1681525081526020016040518060400160405280601c60ff168152602001601d60ff1681525081526020016040518060400160405280601d60ff168152602001601e60ff1681525081526020016040518060400160405280601f60ff168152602001602060ff1681525081526020016040518060400160405280602060ff168152602001602160ff1681525081526020016040518060400160405280602260ff168152602001602360ff1681525081526020016040518060400160405280602360ff168152602001602460ff16815250815250905060258410158015612709575060608411155b1561279657600060258561271d91906137a7565b90508181603c81106127325761273161305b565b5b602002015160006002811061274a5761274961305b565b5b60200201518282603c81106127625761276161305b565b5b602002015160016002811061277a5761277961305b565b5b60200201518160ff1691508060ff16905093509350505061279f565b60008092509250505b915091565b600080600090505b83518110156127f9578260ff168482815181106127cc576127cb61305b565b5b602002602001015160ff16036127e65760019150506127ff565b80806127f1906130ed565b9150506127ac565b50600090505b92915050565b82609d8101928215612834579160200282015b82811115612833578235825591602001919060010190612818565b5b5090506128419190612858565b5090565b5080609d01906128559190612858565b50565b5b80821115612871576000816000905550600101612859565b5090565b6000604051905090565b600080fd5b600080fd5b6000819050919050565b61289c81612889565b81146128a757600080fd5b50565b6000813590506128b981612893565b92915050565b600080fd5b6000601f19601f8301169050919050565b7f4e487b7100000000000000000000000000000000000000000000000000000000600052604160045260246000fd5b61290d826128c4565b810181811067ffffffffffffffff8211171561292c5761292b6128d5565b5b80604052505050565b600061293f612875565b905061294b8282612904565b919050565b600067ffffffffffffffff82111561296b5761296a6128d5565b5b602082029050602081019050919050565b600080fd5b600061299461298f84612950565b612935565b905080838252602082019050602084028301858111156129b7576129b661297c565b5b835b818110156129e057806129cc88826128aa565b8452602084019350506020810190506129b9565b5050509392505050565b600082601f8301126129ff576129fe6128bf565b5b8135612a0f848260208601612981565b91505092915050565b60008060408385031215612a2f57612a2e61287f565b5b6000612a3d858286016128aa565b925050602083013567ffffffffffffffff811115612a5e57612a5d612884565b5b612a6a858286016129ea565b9150509250929050565b600063ffffffff82169050919050565b612a8d81612a74565b82525050565b6000602082019050612aa86000830184612a84565b92915050565b600080fd5b60008083601f840112612ac957612ac86128bf565b5b8235905067ffffffffffffffff811115612ae657612ae5612aae565b5b602083019150836001820283011115612b0257612b0161297c565b5b9250929050565b60008060208385031215612b2057612b1f61287f565b5b600083013567ffffffffffffffff811115612b3e57612b3d612884565b5b612b4a85828601612ab3565b92509250509250929050565b600073ffffffffffffffffffffffffffffffffffffffff82169050919050565b6000819050919050565b6000612b9b612b96612b9184612b56565b612b76565b612b56565b9050919050565b6000612bad82612b80565b9050919050565b6000612bbf82612ba2565b9050919050565b612bcf81612bb4565b82525050565b6000602082019050612bea6000830184612bc6565b92915050565b60008115159050919050565b612c0581612bf0565b82525050565b600081519050919050565b600082825260208201905092915050565b60005b83811015612c45578082015181840152602081019050612c2a565b60008484015250505050565b6000612c5c82612c0b565b612c668185612c16565b9350612c76818560208601612c27565b612c7f816128c4565b840191505092915050565b6000604082019050612c9f6000830185612bfc565b8181036020830152612cb18184612c51565b90509392505050565b6000612cc582612b56565b9050919050565b612cd581612cba565b8114612ce057600080fd5b50565b600081359050612cf281612ccc565b92915050565b600060208284031215612d0e57612d0d61287f565b5b6000612d1c84828501612ce3565b91505092915050565b612d2e81612889565b82525050565b6000602082019050612d496000830184612d25565b92915050565b612d5881612cba565b82525050565b6000602082019050612d736000830184612d4f565b92915050565b60008060408385031215612d9057612d8f61287f565b5b6000612d9e85828601612ce3565b9250506020612daf858286016128aa565b9150509250929050565b600061ffff82169050919050565b612dd081612db9565b82525050565b6000602082019050612deb6000830184612dc7565b92915050565b6000819050826020609d0282011115612e0d57612e0c61297c565b5b92915050565b60006113a08284031215612e2a57612e2961287f565b5b6000612e3884828501612df1565b91505092915050565b6000604082019050612e566000830185612d4f565b612e636020830184612d4f565b9392505050565b50565b6000612e7a600083612c16565b9150612e8582612e6a565b600082019050919050565b60006020820190508181036000830152612ea981612e6d565b9050919050565b612eb981612bf0565b8114612ec457600080fd5b50565b600081519050612ed681612eb0565b92915050565b600080fd5b600067ffffffffffffffff821115612efc57612efb6128d5565b5b612f05826128c4565b9050602081019050919050565b6000612f25612f2084612ee1565b612935565b905082815260208101848484011115612f4157612f40612edc565b5b612f4c848285612c27565b509392505050565b600082601f830112612f6957612f686128bf565b5b8151612f79848260208601612f12565b91505092915050565b60008060408385031215612f9957612f9861287f565b5b6000612fa785828601612ec7565b925050602083015167ffffffffffffffff811115612fc857612fc7612884565b5b612fd485828601612f54565b9150509250929050565b600082825260208201905092915050565b7f4d7573742062652070726f706f736564206f776e657200000000000000000000600082015250565b6000613025601683612fde565b915061303082612fef565b602082019050919050565b6000602082019050818103600083015261305481613018565b9050919050565b7f4e487b7100000000000000000000000000000000000000000000000000000000600052603260045260246000fd5b7f4e487b7100000000000000000000000000000000000000000000000000000000600052601160045260246000fd5b60006130c482612889565b91506130cf83612889565b92508282019050808211156130e7576130e661308a565b5b92915050565b60006130f882612889565b91507fffffffffffffffffffffffffffffffffffffffffffffffffffffffffffffffff820361312a5761312961308a565b5b600182019050919050565b7f546f74616c2062657420616d6f756e74206d757374206265206772656174657260008201527f207468616e203000000000000000000000000000000000000000000000000000602082015250565b6000613191602783612fde565b915061319c82613135565b604082019050919050565b600060208201905081810360008301526131c081613184565b9050919050565b6000815190506131d681612893565b92915050565b6000602082840312156131f2576131f161287f565b5b6000613200848285016131c7565b91505092915050565b7f436f6e7472616374206973206e6f7420616c6c6f77656420746f207370656e6460008201527f20656e6f756768204c494e4b20746f6b656e732e000000000000000000000000602082015250565b6000613265603483612fde565b915061327082613209565b604082019050919050565b6000602082019050818103600083015261329481613258565b9050919050565b7f496e73756666696369656e74204c494e4b2062616c616e636500000000000000600082015250565b60006132d1601983612fde565b91506132dc8261329b565b602082019050919050565b60006020820190508181036000830152613300816132c4565b9050919050565b600060608201905061331c6000830186612d4f565b6133296020830185612d4f565b6133366040830184612d25565b949350505050565b6000602082840312156133545761335361287f565b5b600061336284828501612ec7565b91505092915050565b7f4661696c656420746f207472616e73666572204c494e4b20746f6b656e730000600082015250565b60006133a1601e83612fde565b91506133ac8261336b565b602082019050919050565b600060208201905081810360008301526133d081613394565b9050919050565b7f4e6f2077696e6e696e677320746f207769746864726177000000000000000000600082015250565b600061340d601783612fde565b9150613418826133d7565b602082019050919050565b6000602082019050818103600083015261343c81613400565b9050919050565b60006040820190506134586000830185612d4f565b6134656020830184612d25565b9392505050565b7f4661696c656420746f207472616e736665722077696e6e696e67730000000000600082015250565b60006134a2601b83612fde565b91506134ad8261346c565b602082019050919050565b600060208201905081810360008301526134d181613495565b9050919050565b7f4e6f2062657420706c6163656400000000000000000000000000000000000000600082015250565b600061350e600d83612fde565b9150613519826134d8565b602082019050919050565b6000602082019050818103600083015261353d81613501565b9050919050565b6000819050919050565b61355781613544565b82525050565b600067ffffffffffffffff82169050919050565b61357a8161355d565b82525050565b600060a082019050613595600083018861354e565b6135a26020830187613571565b6135af6040830186612dc7565b6135bc6060830185612a84565b6135c96080830184612a84565b9695505050505050565b7f4e487b7100000000000000000000000000000000000000000000000000000000600052601260045260246000fd5b600061360d82612889565b915061361883612889565b925082613628576136276135d3565b5b828206905092915050565b600061363e82612889565b915061364983612889565b925082820261365781612889565b9150828204841483151761366e5761366d61308a565b5b5092915050565b600061368082612889565b915061368b83612889565b92508261369b5761369a6135d3565b5b828204905092915050565b60006040820190506136bb6000830185612d25565b6136c86020830184612d25565b9392505050565b7f4f6e6c792063616c6c61626c65206279206f776e657200000000000000000000600082015250565b6000613705601683612fde565b9150613710826136cf565b602082019050919050565b60006020820190508181036000830152613734816136f8565b9050919050565b7f43616e6e6f74207472616e7366657220746f2073656c66000000000000000000600082015250565b6000613771601783612fde565b915061377c8261373b565b602082019050919050565b600060208201905081810360008301526137a081613764565b9050919050565b60006137b282612889565b91506137bd83612889565b92508282039050818111156137d5576137d461308a565b5b9291505056fea264697066735822122034f7a68b37c91f25211f8c1e0f853f3c99b5e32a980395c9bfd6efcf05bf8f6b64736f6c63430008140033",
  "linkReferences": {},
  "deployedLinkReferences": {}
}