{
  "_format": "hh-sol-artifact-1",
  "contractName": "Protocol",
  "sourceName": "contracts/ccip-examples/protocl.sol",
  "abi": [
    {
      "inputs": [
        {
          "internalType": "address",
          "name": "_router",
          "type": "address"
        },
        {
          "internalType": "address",
          "name": "link",
          "type": "address"
        }
      ],
      "stateMutability": "nonpayable",
      "type": "constructor"
    },
    {
      "inputs": [
        {
          "internalType": "address",
          "name": "owner",
          "type": "address"
        },
        {
          "internalType": "uint256",
          "name": "value",
          "type": "uint256"
        }
      ],
      "name": "FailedToWithdrawEth",
      "type": "error"
    },
    {
      "inputs": [
        {
          "internalType": "uint256",
          "name": "providedIndex",
          "type": "uint256"
        },
        {
          "internalType": "uint256",
          "name": "maxIndex",
          "type": "uint256"
        }
      ],
      "name": "IndexOutOfBound",
      "type": "error"
    },
    {
      "inputs": [
        {
          "internalType": "address",
          "name": "router",
          "type": "address"
        }
      ],
      "name": "InvalidRouter",
      "type": "error"
    },
    {
      "inputs": [
        {
          "internalType": "bytes32",
          "name": "messageId",
          "type": "bytes32"
        }
      ],
      "name": "MessageIdNotExist",
      "type": "error"
    },
    {
      "inputs": [],
      "name": "NoMessageReceived",
      "type": "error"
    },
    {
      "inputs": [
        {
          "internalType": "uint256",
          "name": "",
          "type": "uint256"
        },
        {
          "internalType": "uint256",
          "name": "",
          "type": "uint256"
        }
      ],
      "name": "NotEnoughBalance",
      "type": "error"
    },
    {
      "inputs": [],
      "name": "NothingToWithdraw",
      "type": "error"
    },
    {
      "anonymous": false,
      "inputs": [
        {
          "indexed": true,
          "internalType": "bytes32",
          "name": "messageId",
          "type": "bytes32"
        },
        {
          "indexed": true,
          "internalType": "uint64",
          "name": "sourceChainSelector",
          "type": "uint64"
        },
        {
          "indexed": false,
          "internalType": "address",
          "name": "sender",
          "type": "address"
        },
        {
          "indexed": false,
          "internalType": "address",
          "name": "depositor",
          "type": "address"
        },
        {
          "components": [
            {
              "internalType": "address",
              "name": "token",
              "type": "address"
            },
            {
              "internalType": "uint256",
              "name": "amount",
              "type": "uint256"
            }
          ],
          "indexed": false,
          "internalType": "struct Client.EVMTokenAmount",
          "name": "tokenAmount",
          "type": "tuple"
        }
      ],
      "name": "MessageReceived",
      "type": "event"
    },
    {
      "anonymous": false,
      "inputs": [
        {
          "indexed": true,
          "internalType": "bytes32",
          "name": "messageId",
          "type": "bytes32"
        },
        {
          "indexed": true,
          "internalType": "uint64",
          "name": "destinationChainSelector",
          "type": "uint64"
        },
        {
          "indexed": false,
          "internalType": "address",
          "name": "receiver",
          "type": "address"
        },
        {
          "indexed": false,
          "internalType": "address",
          "name": "borrower",
          "type": "address"
        },
        {
          "components": [
            {
              "internalType": "address",
              "name": "token",
              "type": "address"
            },
            {
              "internalType": "uint256",
              "name": "amount",
              "type": "uint256"
            }
          ],
          "indexed": false,
          "internalType": "struct Client.EVMTokenAmount",
          "name": "tokenAmount",
          "type": "tuple"
        },
        {
          "indexed": false,
          "internalType": "uint256",
          "name": "fees",
          "type": "uint256"
        }
      ],
      "name": "MessageSent",
      "type": "event"
    },
    {
      "anonymous": false,
      "inputs": [
        {
          "indexed": true,
          "internalType": "address",
          "name": "from",
          "type": "address"
        },
        {
          "indexed": true,
          "internalType": "address",
          "name": "to",
          "type": "address"
        }
      ],
      "name": "OwnershipTransferRequested",
      "type": "event"
    },
    {
      "anonymous": false,
      "inputs": [
        {
          "indexed": true,
          "internalType": "address",
          "name": "from",
          "type": "address"
        },
        {
          "indexed": true,
          "internalType": "address",
          "name": "to",
          "type": "address"
        }
      ],
      "name": "OwnershipTransferred",
      "type": "event"
    },
    {
      "inputs": [],
      "name": "acceptOwnership",
      "outputs": [],
      "stateMutability": "nonpayable",
      "type": "function"
    },
    {
      "inputs": [
        {
          "internalType": "bytes32",
          "name": "msgId",
          "type": "bytes32"
        }
      ],
      "name": "borrowUSDC",
      "outputs": [
        {
          "internalType": "uint256",
          "name": "",
          "type": "uint256"
        }
      ],
      "stateMutability": "nonpayable",
      "type": "function"
    },
    {
      "inputs": [
        {
          "internalType": "address",
          "name": "",
          "type": "address"
        },
        {
          "internalType": "address",
          "name": "",
          "type": "address"
        }
      ],
      "name": "borrowings",
      "outputs": [
        {
          "internalType": "uint256",
          "name": "",
          "type": "uint256"
        }
      ],
      "stateMutability": "view",
      "type": "function"
    },
    {
      "inputs": [
        {
          "components": [
            {
              "internalType": "bytes32",
              "name": "messageId",
              "type": "bytes32"
            },
            {
              "internalType": "uint64",
              "name": "sourceChainSelector",
              "type": "uint64"
            },
            {
              "internalType": "bytes",
              "name": "sender",
              "type": "bytes"
            },
            {
              "internalType": "bytes",
              "name": "data",
              "type": "bytes"
            },
            {
              "components": [
                {
                  "internalType": "address",
                  "name": "token",
                  "type": "address"
                },
                {
                  "internalType": "uint256",
                  "name": "amount",
                  "type": "uint256"
                }
              ],
              "internalType": "struct Client.EVMTokenAmount[]",
              "name": "destTokenAmounts",
              "type": "tuple[]"
            }
          ],
          "internalType": "struct Client.Any2EVMMessage",
          "name": "message",
          "type": "tuple"
        }
      ],
      "name": "ccipReceive",
      "outputs": [],
      "stateMutability": "nonpayable",
      "type": "function"
    },
    {
      "inputs": [
        {
          "internalType": "address",
          "name": "",
          "type": "address"
        },
        {
          "internalType": "address",
          "name": "",
          "type": "address"
        }
      ],
      "name": "deposits",
      "outputs": [
        {
          "internalType": "uint256",
          "name": "",
          "type": "uint256"
        }
      ],
      "stateMutability": "view",
      "type": "function"
    },
    {
      "inputs": [],
      "name": "getLastReceivedMessageDetails",
      "outputs": [
        {
          "internalType": "bytes32",
          "name": "messageId",
          "type": "bytes32"
        },
        {
          "internalType": "uint64",
          "name": "",
          "type": "uint64"
        },
        {
          "internalType": "address",
          "name": "",
          "type": "address"
        },
        {
          "internalType": "address",
          "name": "",
          "type": "address"
        },
        {
          "internalType": "address",
          "name": "",
          "type": "address"
        },
        {
          "internalType": "uint256",
          "name": "",
          "type": "uint256"
        }
      ],
      "stateMutability": "view",
      "type": "function"
    },
    {
      "inputs": [],
      "name": "getNumberOfReceivedMessages",
      "outputs": [
        {
          "internalType": "uint256",
          "name": "number",
          "type": "uint256"
        }
      ],
      "stateMutability": "view",
      "type": "function"
    },
    {
      "inputs": [
        {
          "internalType": "bytes32",
          "name": "messageId",
          "type": "bytes32"
        }
      ],
      "name": "getReceivedMessageDetails",
      "outputs": [
        {
          "internalType": "uint64",
          "name": "",
          "type": "uint64"
        },
        {
          "internalType": "address",
          "name": "",
          "type": "address"
        },
        {
          "internalType": "address",
          "name": "",
          "type": "address"
        },
        {
          "internalType": "address",
          "name": "token",
          "type": "address"
        },
        {
          "internalType": "uint256",
          "name": "amount",
          "type": "uint256"
        }
      ],
      "stateMutability": "view",
      "type": "function"
    },
    {
      "inputs": [],
      "name": "getRouter",
      "outputs": [
        {
          "internalType": "address",
          "name": "",
          "type": "address"
        }
      ],
      "stateMutability": "view",
      "type": "function"
    },
    {
      "inputs": [
        {
          "internalType": "uint64",
          "name": "destChainSelector",
          "type": "uint64"
        }
      ],
      "name": "isChainSupported",
      "outputs": [
        {
          "internalType": "bool",
          "name": "supported",
          "type": "bool"
        }
      ],
      "stateMutability": "view",
      "type": "function"
    },
    {
      "inputs": [
        {
          "internalType": "bytes32",
          "name": "",
          "type": "bytes32"
        }
      ],
      "name": "messageDetail",
      "outputs": [
        {
          "internalType": "uint64",
          "name": "sourceChainSelector",
          "type": "uint64"
        },
        {
          "internalType": "address",
          "name": "sender",
          "type": "address"
        },
        {
          "internalType": "address",
          "name": "depositor",
          "type": "address"
        },
        {
          "internalType": "address",
          "name": "token",
          "type": "address"
        },
        {
          "internalType": "uint256",
          "name": "amount",
          "type": "uint256"
        }
      ],
      "stateMutability": "view",
      "type": "function"
    },
    {
      "inputs": [],
      "name": "owner",
      "outputs": [
        {
          "internalType": "address",
          "name": "",
          "type": "address"
        }
      ],
      "stateMutability": "view",
      "type": "function"
    },
    {
      "inputs": [
        {
          "internalType": "uint256",
          "name": "",
          "type": "uint256"
        }
      ],
      "name": "receivedMessages",
      "outputs": [
        {
          "internalType": "bytes32",
          "name": "",
          "type": "bytes32"
        }
      ],
      "stateMutability": "view",
      "type": "function"
    },
    {
      "inputs": [
        {
          "internalType": "uint256",
          "name": "amount",
          "type": "uint256"
        },
        {
          "internalType": "uint64",
          "name": "destinationChain",
          "type": "uint64"
        },
        {
          "internalType": "address",
          "name": "receiver",
          "type": "address"
        },
        {
          "internalType": "bytes32",
          "name": "msgId",
          "type": "bytes32"
        }
      ],
      "name": "repayAndSendMessage",
      "outputs": [],
      "stateMutability": "nonpayable",
      "type": "function"
    },
    {
      "inputs": [
        {
          "internalType": "bytes4",
          "name": "interfaceId",
          "type": "bytes4"
        }
      ],
      "name": "supportsInterface",
      "outputs": [
        {
          "internalType": "bool",
          "name": "",
          "type": "bool"
        }
      ],
      "stateMutability": "pure",
      "type": "function"
    },
    {
      "inputs": [
        {
          "internalType": "address",
          "name": "to",
          "type": "address"
        }
      ],
      "name": "transferOwnership",
      "outputs": [],
      "stateMutability": "nonpayable",
      "type": "function"
    },
    {
      "inputs": [],
      "name": "usdcToken",
      "outputs": [
        {
          "internalType": "contract MockUSDC",
          "name": "",
          "type": "address"
        }
      ],
      "stateMutability": "view",
      "type": "function"
    },
    {
      "inputs": [],
      "name": "withdraw",
      "outputs": [],
      "stateMutability": "nonpayable",
      "type": "function"
    },
    {
      "inputs": [
        {
          "internalType": "address",
          "name": "token",
          "type": "address"
        }
      ],
      "name": "withdrawToken",
      "outputs": [],
      "stateMutability": "nonpayable",
      "type": "function"
    },
    {
      "stateMutability": "payable",
      "type": "receive"
    }
  ],
  "bytecode": "0x60a06040523480156200001157600080fd5b506040516200597e3803806200597e83398181016040528101906200003791906200043e565b3380600084600073ffffffffffffffffffffffffffffffffffffffff168173ffffffffffffffffffffffffffffffffffffffff1603620000b15760006040517fd7f73334000000000000000000000000000000000000000000000000000000008152600401620000a8919062000496565b60405180910390fd5b8073ffffffffffffffffffffffffffffffffffffffff1660808173ffffffffffffffffffffffffffffffffffffffff168152505050600073ffffffffffffffffffffffffffffffffffffffff168273ffffffffffffffffffffffffffffffffffffffff160362000158576040517f08c379a00000000000000000000000000000000000000000000000000000000081526004016200014f9062000514565b60405180910390fd5b816000806101000a81548173ffffffffffffffffffffffffffffffffffffffff021916908373ffffffffffffffffffffffffffffffffffffffff160217905550600073ffffffffffffffffffffffffffffffffffffffff168173ffffffffffffffffffffffffffffffffffffffff1614620001df57620001de816200029760201b60201c565b5b50505080600760006101000a81548173ffffffffffffffffffffffffffffffffffffffff021916908373ffffffffffffffffffffffffffffffffffffffff1602179055506040516200023190620003c6565b604051809103906000f0801580156200024e573d6000803e3d6000fd5b50600660006101000a81548173ffffffffffffffffffffffffffffffffffffffff021916908373ffffffffffffffffffffffffffffffffffffffff1602179055505050620005a8565b3373ffffffffffffffffffffffffffffffffffffffff168173ffffffffffffffffffffffffffffffffffffffff160362000308576040517f08c379a0000000000000000000000000000000000000000000000000000000008152600401620002ff9062000586565b60405180910390fd5b80600160006101000a81548173ffffffffffffffffffffffffffffffffffffffff021916908373ffffffffffffffffffffffffffffffffffffffff1602179055508073ffffffffffffffffffffffffffffffffffffffff1660008054906101000a900473ffffffffffffffffffffffffffffffffffffffff1673ffffffffffffffffffffffffffffffffffffffff167fed8889f560326eb138920d842192f0eb3dd22b4f139c87a2c57538e05bae127860405160405180910390a350565b6118a680620040d883390190565b600080fd5b600073ffffffffffffffffffffffffffffffffffffffff82169050919050565b60006200040682620003d9565b9050919050565b6200041881620003f9565b81146200042457600080fd5b50565b60008151905062000438816200040d565b92915050565b60008060408385031215620004585762000457620003d4565b5b6000620004688582860162000427565b92505060206200047b8582860162000427565b9150509250929050565b6200049081620003f9565b82525050565b6000602082019050620004ad600083018462000485565b92915050565b600082825260208201905092915050565b7f43616e6e6f7420736574206f776e657220746f207a65726f0000000000000000600082015250565b6000620004fc601883620004b3565b91506200050982620004c4565b602082019050919050565b600060208201905081810360008301526200052f81620004ed565b9050919050565b7f43616e6e6f74207472616e7366657220746f2073656c66000000000000000000600082015250565b60006200056e601783620004b3565b91506200057b8262000536565b602082019050919050565b60006020820190508181036000830152620005a1816200055f565b9050919050565b608051613b0d620005cb600039600081816116710152611a0a0152613b0d6000f3fe6080604052600436106101185760003560e01c806379ba5097116100a05780639c3ddb2e116100645780639c3ddb2e146103b3578063a48a9058146103f4578063b0f479a114610431578063d030366c1461045c578063f2fde38b146104995761011f565b806379ba5097146102e257806385572ffb146102f957806389476069146103225780638da5cb5b1461034b5780638f601f66146103765761011f565b806330dd9edd116100e757806330dd9edd146101e75780633ccfd60b146102245780634bca6ecf1461023b578063507f40351461027857806351bd6698146102a15761011f565b806301ffc9a7146101245780630b652d6d1461016157806311eac8551461018c578063263596a5146101b75761011f565b3661011f57005b600080fd5b34801561013057600080fd5b5061014b600480360381019061014691906125c0565b6104c2565b6040516101589190612608565b60405180910390f35b34801561016d57600080fd5b50610176610594565b604051610183919061263c565b60405180910390f35b34801561019857600080fd5b506101a16105a1565b6040516101ae91906126d6565b60405180910390f35b3480156101c357600080fd5b506101cc6105c7565b6040516101de9695949392919061274e565b60405180910390f35b3480156101f357600080fd5b5061020e600480360381019061020991906127db565b6107d0565b60405161021b919061263c565b60405180910390f35b34801561023057600080fd5b50610239610ca4565b005b34801561024757600080fd5b50610262600480360381019061025d9190612834565b610d65565b60405161026f919061263c565b60405180910390f35b34801561028457600080fd5b5061029f600480360381019061029a91906128cc565b610d8a565b005b3480156102ad57600080fd5b506102c860048036038101906102c391906127db565b6112d1565b6040516102d9959493929190612933565b60405180910390f35b3480156102ee57600080fd5b506102f76114da565b005b34801561030557600080fd5b50610320600480360381019061031b91906129aa565b61166f565b005b34801561032e57600080fd5b50610349600480360381019061034491906129f3565b611714565b005b34801561035757600080fd5b5061036061181d565b60405161036d9190612a20565b60405180910390f35b34801561038257600080fd5b5061039d60048036038101906103989190612834565b611846565b6040516103aa919061263c565b60405180910390f35b3480156103bf57600080fd5b506103da60048036038101906103d591906127db565b61186b565b6040516103eb959493929190612933565b60405180910390f35b34801561040057600080fd5b5061041b60048036038101906104169190612a3b565b611915565b6040516104289190612608565b60405180910390f35b34801561043d57600080fd5b50610446611a06565b6040516104539190612a20565b60405180910390f35b34801561046857600080fd5b50610483600480360381019061047e9190612a68565b611a2e565b6040516104909190612a95565b60405180910390f35b3480156104a557600080fd5b506104c060048036038101906104bb91906129f3565b611a52565b005b60007f85572ffb000000000000000000000000000000000000000000000000000000007bffffffffffffffffffffffffffffffffffffffffffffffffffffffff1916827bffffffffffffffffffffffffffffffffffffffffffffffffffffffff1916148061058d57507f01ffc9a7000000000000000000000000000000000000000000000000000000007bffffffffffffffffffffffffffffffffffffffffffffffffffffffff1916827bffffffffffffffffffffffffffffffffffffffffffffffffffffffff1916145b9050919050565b6000600280549050905090565b600660009054906101000a900473ffffffffffffffffffffffffffffffffffffffff1681565b60008060008060008060006002805490500361060f576040517f6ad69dd500000000000000000000000000000000000000000000000000000000815260040160405180910390fd5b600260016002805490506106239190612adf565b8154811061063457610633612b13565b5b906000526020600020015495506000600360008881526020019081526020016000206040518060a00160405290816000820160009054906101000a900467ffffffffffffffff1667ffffffffffffffff1667ffffffffffffffff1681526020016000820160089054906101000a900473ffffffffffffffffffffffffffffffffffffffff1673ffffffffffffffffffffffffffffffffffffffff1673ffffffffffffffffffffffffffffffffffffffff1681526020016001820160009054906101000a900473ffffffffffffffffffffffffffffffffffffffff1673ffffffffffffffffffffffffffffffffffffffff1673ffffffffffffffffffffffffffffffffffffffff1681526020016002820160009054906101000a900473ffffffffffffffffffffffffffffffffffffffff1673ffffffffffffffffffffffffffffffffffffffff1673ffffffffffffffffffffffffffffffffffffffff1681526020016003820154815250509050868160000151826020015183604001518460600151856080015196509650965096509650965050909192939495565b600080600560003373ffffffffffffffffffffffffffffffffffffffff1673ffffffffffffffffffffffffffffffffffffffff1681526020019081526020016000206000600660009054906101000a900473ffffffffffffffffffffffffffffffffffffffff1673ffffffffffffffffffffffffffffffffffffffff1673ffffffffffffffffffffffffffffffffffffffff168152602001908152602001600020549050600081146108b7576040517f08c379a00000000000000000000000000000000000000000000000000000000081526004016108ae90612b9f565b60405180910390fd5b60006003600085815260200190815260200160002060020160009054906101000a900473ffffffffffffffffffffffffffffffffffffffff169050600073ffffffffffffffffffffffffffffffffffffffff168173ffffffffffffffffffffffffffffffffffffffff1603610961576040517f08c379a000000000000000000000000000000000000000000000000000000000815260040161095890612c31565b60405180910390fd5b6000600460003373ffffffffffffffffffffffffffffffffffffffff1673ffffffffffffffffffffffffffffffffffffffff16815260200190815260200160002060008373ffffffffffffffffffffffffffffffffffffffff1673ffffffffffffffffffffffffffffffffffffffff168152602001908152602001600020549050600060646046836109f39190612c51565b6109fd9190612cc2565b9050600073c0f82a46033b8bdba4bb0b0e28bc2006f64355bc905060008173ffffffffffffffffffffffffffffffffffffffff1663feaf968c6040518163ffffffff1660e01b815260040160a060405180830381865afa158015610a65573d6000803e3d6000fd5b505050506040513d601f19601f82011682018060405250810190610a899190612d80565b50505091505060006402540be40082610aa29190612dfb565b905060008185610ab29190612c51565b9050600660009054906101000a900473ffffffffffffffffffffffffffffffffffffffff1673ffffffffffffffffffffffffffffffffffffffff166340c10f1933836040518363ffffffff1660e01b8152600401610b11929190612e73565b600060405180830381600087803b158015610b2b57600080fd5b505af1158015610b3f573d6000803e3d6000fd5b5050505080600560003373ffffffffffffffffffffffffffffffffffffffff1673ffffffffffffffffffffffffffffffffffffffff1681526020019081526020016000206000600660009054906101000a900473ffffffffffffffffffffffffffffffffffffffff1673ffffffffffffffffffffffffffffffffffffffff1673ffffffffffffffffffffffffffffffffffffffff1681526020019081526020016000208190555080600560003373ffffffffffffffffffffffffffffffffffffffff1673ffffffffffffffffffffffffffffffffffffffff1681526020019081526020016000206000600660009054906101000a900473ffffffffffffffffffffffffffffffffffffffff1673ffffffffffffffffffffffffffffffffffffffff1673ffffffffffffffffffffffffffffffffffffffff1681526020019081526020016000205414610c9457610c93612e9c565b5b8098505050505050505050919050565b610cac611a66565b600047905060003373ffffffffffffffffffffffffffffffffffffffff1682604051610cd790612efc565b60006040518083038185875af1925050503d8060008114610d14576040519150601f19603f3d011682016040523d82523d6000602084013e610d19565b606091505b5050905080610d615733826040517f0cd90037000000000000000000000000000000000000000000000000000000008152600401610d58929190612e73565b60405180910390fd5b5050565b6005602052816000526040600020602052806000526040600020600091509150505481565b600560003373ffffffffffffffffffffffffffffffffffffffff1673ffffffffffffffffffffffffffffffffffffffff1681526020019081526020016000206000600660009054906101000a900473ffffffffffffffffffffffffffffffffffffffff1673ffffffffffffffffffffffffffffffffffffffff1673ffffffffffffffffffffffffffffffffffffffff16815260200190815260200160002054841015610e6b576040517f08c379a0000000000000000000000000000000000000000000000000000000008152600401610e6290612f83565b60405180910390fd5b60006003600083815260200190815260200160002060020160009054906101000a900473ffffffffffffffffffffffffffffffffffffffff1690506000600460003373ffffffffffffffffffffffffffffffffffffffff1673ffffffffffffffffffffffffffffffffffffffff16815260200190815260200160002060008373ffffffffffffffffffffffffffffffffffffffff1673ffffffffffffffffffffffffffffffffffffffff1681526020019081526020016000205490506000600660009054906101000a900473ffffffffffffffffffffffffffffffffffffffff1673ffffffffffffffffffffffffffffffffffffffff166370a08231336040518263ffffffff1660e01b8152600401610f849190612a20565b602060405180830381865afa158015610fa1573d6000803e3d6000fd5b505050506040513d601f19601f82011682018060405250810190610fc59190612fa3565b90508681101561100a576040517f08c379a000000000000000000000000000000000000000000000000000000000815260040161100190613042565b60405180910390fd5b600560003373ffffffffffffffffffffffffffffffffffffffff1673ffffffffffffffffffffffffffffffffffffffff1681526020019081526020016000206000600660009054906101000a900473ffffffffffffffffffffffffffffffffffffffff1673ffffffffffffffffffffffffffffffffffffffff1673ffffffffffffffffffffffffffffffffffffffff16815260200190815260200160002054600660009054906101000a900473ffffffffffffffffffffffffffffffffffffffff1673ffffffffffffffffffffffffffffffffffffffff1663dd62ed3e33306040518363ffffffff1660e01b8152600401611106929190613062565b602060405180830381865afa158015611123573d6000803e3d6000fd5b505050506040513d601f19601f820116820180604052508101906111479190612fa3565b1015611188576040517f08c379a000000000000000000000000000000000000000000000000000000000815260040161117f906130fd565b60405180910390fd5b600660009054906101000a900473ffffffffffffffffffffffffffffffffffffffff1673ffffffffffffffffffffffffffffffffffffffff166379cc679033836040518363ffffffff1660e01b81526004016111e5929190612e73565b600060405180830381600087803b1580156111ff57600080fd5b505af1158015611213573d6000803e3d6000fd5b505050506000600560003373ffffffffffffffffffffffffffffffffffffffff1673ffffffffffffffffffffffffffffffffffffffff1681526020019081526020016000206000600660009054906101000a900473ffffffffffffffffffffffffffffffffffffffff1673ffffffffffffffffffffffffffffffffffffffff1673ffffffffffffffffffffffffffffffffffffffff168152602001908152602001600020819055506112c786868585611af6565b5050505050505050565b600080600080600080600360008881526020019081526020016000206040518060a00160405290816000820160009054906101000a900467ffffffffffffffff1667ffffffffffffffff1667ffffffffffffffff1681526020016000820160089054906101000a900473ffffffffffffffffffffffffffffffffffffffff1673ffffffffffffffffffffffffffffffffffffffff1673ffffffffffffffffffffffffffffffffffffffff1681526020016001820160009054906101000a900473ffffffffffffffffffffffffffffffffffffffff1673ffffffffffffffffffffffffffffffffffffffff1673ffffffffffffffffffffffffffffffffffffffff1681526020016002820160009054906101000a900473ffffffffffffffffffffffffffffffffffffffff1673ffffffffffffffffffffffffffffffffffffffff1673ffffffffffffffffffffffffffffffffffffffff1681526020016003820154815250509050600073ffffffffffffffffffffffffffffffffffffffff16816020015173ffffffffffffffffffffffffffffffffffffffff16036114ad57866040517f4d47bb330000000000000000000000000000000000000000000000000000000081526004016114a49190612a95565b60405180910390fd5b80600001518160200151826040015183606001518460800151955095509550955095505091939590929450565b600160009054906101000a900473ffffffffffffffffffffffffffffffffffffffff1673ffffffffffffffffffffffffffffffffffffffff163373ffffffffffffffffffffffffffffffffffffffff161461156a576040517f08c379a000000000000000000000000000000000000000000000000000000000815260040161156190613169565b60405180910390fd5b60008060009054906101000a900473ffffffffffffffffffffffffffffffffffffffff169050336000806101000a81548173ffffffffffffffffffffffffffffffffffffffff021916908373ffffffffffffffffffffffffffffffffffffffff1602179055506000600160006101000a81548173ffffffffffffffffffffffffffffffffffffffff021916908373ffffffffffffffffffffffffffffffffffffffff1602179055503373ffffffffffffffffffffffffffffffffffffffff168173ffffffffffffffffffffffffffffffffffffffff167f8be0079c531659141344cd1fd0a4f28419497f9722a3daafe3b4186f6b6457e060405160405180910390a350565b7f000000000000000000000000000000000000000000000000000000000000000073ffffffffffffffffffffffffffffffffffffffff163373ffffffffffffffffffffffffffffffffffffffff16146116ff57336040517fd7f733340000000000000000000000000000000000000000000000000000000081526004016116f69190612a20565b60405180910390fd5b6117118161170c906134d1565b612019565b50565b61171c611a66565b60008173ffffffffffffffffffffffffffffffffffffffff166370a08231306040518263ffffffff1660e01b81526004016117579190612a20565b602060405180830381865afa158015611774573d6000803e3d6000fd5b505050506040513d601f19601f820116820180604052508101906117989190612fa3565b90508173ffffffffffffffffffffffffffffffffffffffff1663a9059cbb33836040518363ffffffff1660e01b81526004016117d5929190612e73565b6020604051808303816000875af11580156117f4573d6000803e3d6000fd5b505050506040513d601f19601f820116820180604052508101906118189190613510565b505050565b60008060009054906101000a900473ffffffffffffffffffffffffffffffffffffffff16905090565b6004602052816000526040600020602052806000526040600020600091509150505481565b60036020528060005260406000206000915090508060000160009054906101000a900467ffffffffffffffff16908060000160089054906101000a900473ffffffffffffffffffffffffffffffffffffffff16908060010160009054906101000a900473ffffffffffffffffffffffffffffffffffffffff16908060020160009054906101000a900473ffffffffffffffffffffffffffffffffffffffff16908060030154905085565b60003073ffffffffffffffffffffffffffffffffffffffff1663b0f479a16040518163ffffffff1660e01b8152600401602060405180830381865afa158015611962573d6000803e3d6000fd5b505050506040513d601f19601f820116820180604052508101906119869190613552565b73ffffffffffffffffffffffffffffffffffffffff1663a48a9058836040518263ffffffff1660e01b81526004016119be919061357f565b602060405180830381865afa1580156119db573d6000803e3d6000fd5b505050506040513d601f19601f820116820180604052508101906119ff9190613510565b9050919050565b60007f0000000000000000000000000000000000000000000000000000000000000000905090565b60028181548110611a3e57600080fd5b906000526020600020016000915090505481565b611a5a611a66565b611a6381612379565b50565b60008054906101000a900473ffffffffffffffffffffffffffffffffffffffff1673ffffffffffffffffffffffffffffffffffffffff163373ffffffffffffffffffffffffffffffffffffffff1614611af4576040517f08c379a0000000000000000000000000000000000000000000000000000000008152600401611aeb906135e6565b60405180910390fd5b565b6000803390506000600167ffffffffffffffff811115611b1957611b1861319f565b5b604051908082528060200260200182016040528015611b5257816020015b611b3f612524565b815260200190600190039081611b375790505b509050600060405180604001604052808773ffffffffffffffffffffffffffffffffffffffff1681526020018681525090508082600081518110611b9957611b98612b13565b5b602002602001018190525060006040518060a0016040528089604051602001611bc29190612a20565b604051602081830303815290604052815260200185604051602001611be79190612a20565b6040516020818303038152906040528152602001848152602001600760009054906101000a900473ffffffffffffffffffffffffffffffffffffffff1673ffffffffffffffffffffffffffffffffffffffff168152602001611c59604051806020016040528062030d408152506124a5565b815250905060003073ffffffffffffffffffffffffffffffffffffffff1663b0f479a16040518163ffffffff1660e01b8152600401602060405180830381865afa158015611cab573d6000803e3d6000fd5b505050506040513d601f19601f82011682018060405250810190611ccf9190613552565b905060008173ffffffffffffffffffffffffffffffffffffffff166320487ded8c856040518363ffffffff1660e01b8152600401611d0e92919061380c565b602060405180830381865afa158015611d2b573d6000803e3d6000fd5b505050506040513d601f19601f82011682018060405250810190611d4f9190612fa3565b9050600760009054906101000a900473ffffffffffffffffffffffffffffffffffffffff1673ffffffffffffffffffffffffffffffffffffffff1663095ea7b383836040518363ffffffff1660e01b8152600401611dae929190612e73565b6020604051808303816000875af1158015611dcd573d6000803e3d6000fd5b505050506040513d601f19601f82011682018060405250810190611df19190613510565b508873ffffffffffffffffffffffffffffffffffffffff1663095ea7b3838a6040518363ffffffff1660e01b8152600401611e2d929190612e73565b6020604051808303816000875af1158015611e4c573d6000803e3d6000fd5b505050506040513d601f19601f82011682018060405250810190611e709190613510565b611eaf576040517f08c379a0000000000000000000000000000000000000000000000000000000008152600401611ea690613888565b60405180910390fd5b8173ffffffffffffffffffffffffffffffffffffffff166396f4e9f98c856040518363ffffffff1660e01b8152600401611eea92919061380c565b6020604051808303816000875af1158015611f09573d6000803e3d6000fd5b505050506040513d601f19601f82011682018060405250810190611f2d91906138bd565b96508a67ffffffffffffffff16877f2203b02ed2b5012803d6fecd082627e1cf6906cbfc26b50528c0c8bdc3a326468c898886604051611f709493929190613919565b60405180910390a387600460008873ffffffffffffffffffffffffffffffffffffffff1673ffffffffffffffffffffffffffffffffffffffff16815260200190815260200160002060008b73ffffffffffffffffffffffffffffffffffffffff1673ffffffffffffffffffffffffffffffffffffffff16815260200190815260200160002060008282546120049190612adf565b92505081905550505050505050949350505050565b60008160000151905060008260200151905060008360400151806020019051810190612045919061399c565b905060008460600151806020019051810190612061919061399c565b905060008560800151905060008160008151811061208257612081612b13565b5b60200260200101516000015190506000826000815181106120a6576120a5612b13565b5b6020026020010151602001519050600287908060018154018082558091505060019003906000526020600020016000909190919091505560006040518060a001604052808867ffffffffffffffff1681526020018773ffffffffffffffffffffffffffffffffffffffff1681526020018673ffffffffffffffffffffffffffffffffffffffff1681526020018473ffffffffffffffffffffffffffffffffffffffff16815260200183815250905080600360008a815260200190815260200160002060008201518160000160006101000a81548167ffffffffffffffff021916908367ffffffffffffffff16021790555060208201518160000160086101000a81548173ffffffffffffffffffffffffffffffffffffffff021916908373ffffffffffffffffffffffffffffffffffffffff16021790555060408201518160010160006101000a81548173ffffffffffffffffffffffffffffffffffffffff021916908373ffffffffffffffffffffffffffffffffffffffff16021790555060608201518160020160006101000a81548173ffffffffffffffffffffffffffffffffffffffff021916908373ffffffffffffffffffffffffffffffffffffffff160217905550608082015181600301559050508667ffffffffffffffff16887fb8387be1e3a7f6676cc5eb93b06b8912fd99545cd542e6296b2db1d0fd82cacd8888886000815181106122bc576122bb612b13565b5b60200260200101516040516122d3939291906139c9565b60405180910390a381600460008773ffffffffffffffffffffffffffffffffffffffff1673ffffffffffffffffffffffffffffffffffffffff16815260200190815260200160002060008573ffffffffffffffffffffffffffffffffffffffff1673ffffffffffffffffffffffffffffffffffffffff16815260200190815260200160002060008282546123679190613a00565b92505081905550505050505050505050565b3373ffffffffffffffffffffffffffffffffffffffff168173ffffffffffffffffffffffffffffffffffffffff16036123e7576040517f08c379a00000000000000000000000000000000000000000000000000000000081526004016123de90613a80565b60405180910390fd5b80600160006101000a81548173ffffffffffffffffffffffffffffffffffffffff021916908373ffffffffffffffffffffffffffffffffffffffff1602179055508073ffffffffffffffffffffffffffffffffffffffff1660008054906101000a900473ffffffffffffffffffffffffffffffffffffffff1673ffffffffffffffffffffffffffffffffffffffff167fed8889f560326eb138920d842192f0eb3dd22b4f139c87a2c57538e05bae127860405160405180910390a350565b60606397a657c960e01b826040516024016124c09190613abc565b604051602081830303815290604052907bffffffffffffffffffffffffffffffffffffffffffffffffffffffff19166020820180517bffffffffffffffffffffffffffffffffffffffffffffffffffffffff83818316178352505050509050919050565b6040518060400160405280600073ffffffffffffffffffffffffffffffffffffffff168152602001600081525090565b6000604051905090565b600080fd5b600080fd5b60007fffffffff0000000000000000000000000000000000000000000000000000000082169050919050565b61259d81612568565b81146125a857600080fd5b50565b6000813590506125ba81612594565b92915050565b6000602082840312156125d6576125d561255e565b5b60006125e4848285016125ab565b91505092915050565b60008115159050919050565b612602816125ed565b82525050565b600060208201905061261d60008301846125f9565b92915050565b6000819050919050565b61263681612623565b82525050565b6000602082019050612651600083018461262d565b92915050565b600073ffffffffffffffffffffffffffffffffffffffff82169050919050565b6000819050919050565b600061269c61269761269284612657565b612677565b612657565b9050919050565b60006126ae82612681565b9050919050565b60006126c0826126a3565b9050919050565b6126d0816126b5565b82525050565b60006020820190506126eb60008301846126c7565b92915050565b6000819050919050565b612704816126f1565b82525050565b600067ffffffffffffffff82169050919050565b6127278161270a565b82525050565b600061273882612657565b9050919050565b6127488161272d565b82525050565b600060c08201905061276360008301896126fb565b612770602083018861271e565b61277d604083018761273f565b61278a606083018661273f565b612797608083018561273f565b6127a460a083018461262d565b979650505050505050565b6127b8816126f1565b81146127c357600080fd5b50565b6000813590506127d5816127af565b92915050565b6000602082840312156127f1576127f061255e565b5b60006127ff848285016127c6565b91505092915050565b6128118161272d565b811461281c57600080fd5b50565b60008135905061282e81612808565b92915050565b6000806040838503121561284b5761284a61255e565b5b60006128598582860161281f565b925050602061286a8582860161281f565b9150509250929050565b61287d81612623565b811461288857600080fd5b50565b60008135905061289a81612874565b92915050565b6128a98161270a565b81146128b457600080fd5b50565b6000813590506128c6816128a0565b92915050565b600080600080608085870312156128e6576128e561255e565b5b60006128f48782880161288b565b9450506020612905878288016128b7565b93505060406129168782880161281f565b9250506060612927878288016127c6565b91505092959194509250565b600060a082019050612948600083018861271e565b612955602083018761273f565b612962604083018661273f565b61296f606083018561273f565b61297c608083018461262d565b9695505050505050565b600080fd5b600060a082840312156129a1576129a0612986565b5b81905092915050565b6000602082840312156129c0576129bf61255e565b5b600082013567ffffffffffffffff8111156129de576129dd612563565b5b6129ea8482850161298b565b91505092915050565b600060208284031215612a0957612a0861255e565b5b6000612a178482850161281f565b91505092915050565b6000602082019050612a35600083018461273f565b92915050565b600060208284031215612a5157612a5061255e565b5b6000612a5f848285016128b7565b91505092915050565b600060208284031215612a7e57612a7d61255e565b5b6000612a8c8482850161288b565b91505092915050565b6000602082019050612aaa60008301846126fb565b92915050565b7f4e487b7100000000000000000000000000000000000000000000000000000000600052601160045260246000fd5b6000612aea82612623565b9150612af583612623565b9250828203905081811115612b0d57612b0c612ab0565b5b92915050565b7f4e487b7100000000000000000000000000000000000000000000000000000000600052603260045260246000fd5b600082825260208201905092915050565b7f43616c6c65722068617320616c726561647920626f72726f7765642055534443600082015250565b6000612b89602083612b42565b9150612b9482612b53565b602082019050919050565b60006020820190508181036000830152612bb881612b7c565b9050919050565b7f43616c6c657220686173206e6f74207472616e7366657272656420746869732060008201527f746f6b656e000000000000000000000000000000000000000000000000000000602082015250565b6000612c1b602583612b42565b9150612c2682612bbf565b604082019050919050565b60006020820190508181036000830152612c4a81612c0e565b9050919050565b6000612c5c82612623565b9150612c6783612623565b9250828202612c7581612623565b91508282048414831517612c8c57612c8b612ab0565b5b5092915050565b7f4e487b7100000000000000000000000000000000000000000000000000000000600052601260045260246000fd5b6000612ccd82612623565b9150612cd883612623565b925082612ce857612ce7612c93565b5b828204905092915050565b600069ffffffffffffffffffff82169050919050565b612d1281612cf3565b8114612d1d57600080fd5b50565b600081519050612d2f81612d09565b92915050565b6000819050919050565b612d4881612d35565b8114612d5357600080fd5b50565b600081519050612d6581612d3f565b92915050565b600081519050612d7a81612874565b92915050565b600080600080600060a08688031215612d9c57612d9b61255e565b5b6000612daa88828901612d20565b9550506020612dbb88828901612d56565b9450506040612dcc88828901612d6b565b9350506060612ddd88828901612d6b565b9250506080612dee88828901612d20565b9150509295509295909350565b6000612e0682612d35565b9150612e1183612d35565b9250828202612e1f81612d35565b91507f80000000000000000000000000000000000000000000000000000000000000008414600084121615612e5757612e56612ab0565b5b8282058414831517612e6c57612e6b612ab0565b5b5092915050565b6000604082019050612e88600083018561273f565b612e95602083018461262d565b9392505050565b7f4e487b7100000000000000000000000000000000000000000000000000000000600052600160045260246000fd5b600081905092915050565b50565b6000612ee6600083612ecb565b9150612ef182612ed6565b600082019050919050565b6000612f0782612ed9565b9150819050919050565b7f52657061796d656e7420616d6f756e74206973206c657373207468616e20616d60008201527f6f756e7420626f72726f77656400000000000000000000000000000000000000602082015250565b6000612f6d602d83612b42565b9150612f7882612f11565b604082019050919050565b60006020820190508181036000830152612f9c81612f60565b9050919050565b600060208284031215612fb957612fb861255e565b5b6000612fc784828501612d6b565b91505092915050565b7f43616c6c65722773205553444320746f6b656e2062616c616e636520696e737560008201527f6666696369656e7420666f722072657061796d656e7400000000000000000000602082015250565b600061302c603683612b42565b915061303782612fd0565b604082019050919050565b6000602082019050818103600083015261305b8161301f565b9050919050565b6000604082019050613077600083018561273f565b613084602083018461273f565b9392505050565b7f50726f746f636f6c20616c6c6f77616e6365206973206c657373207468616e2060008201527f616d6f756e7420626f72726f7765640000000000000000000000000000000000602082015250565b60006130e7602f83612b42565b91506130f28261308b565b604082019050919050565b60006020820190508181036000830152613116816130da565b9050919050565b7f4d7573742062652070726f706f736564206f776e657200000000000000000000600082015250565b6000613153601683612b42565b915061315e8261311d565b602082019050919050565b6000602082019050818103600083015261318281613146565b9050919050565b600080fd5b6000601f19601f8301169050919050565b7f4e487b7100000000000000000000000000000000000000000000000000000000600052604160045260246000fd5b6131d78261318e565b810181811067ffffffffffffffff821117156131f6576131f561319f565b5b80604052505050565b6000613209612554565b905061321582826131ce565b919050565b600080fd5b600080fd5b600080fd5b600067ffffffffffffffff8211156132445761324361319f565b5b61324d8261318e565b9050602081019050919050565b82818337600083830152505050565b600061327c61327784613229565b6131ff565b90508281526020810184848401111561329857613297613224565b5b6132a384828561325a565b509392505050565b600082601f8301126132c0576132bf61321f565b5b81356132d0848260208601613269565b91505092915050565b600067ffffffffffffffff8211156132f4576132f361319f565b5b602082029050602081019050919050565b600080fd5b6000604082840312156133205761331f613189565b5b61332a60406131ff565b9050600061333a8482850161281f565b600083015250602061334e8482850161288b565b60208301525092915050565b600061336d613368846132d9565b6131ff565b905080838252602082019050604084028301858111156133905761338f613305565b5b835b818110156133b957806133a5888261330a565b845260208401935050604081019050613392565b5050509392505050565b600082601f8301126133d8576133d761321f565b5b81356133e884826020860161335a565b91505092915050565b600060a0828403121561340757613406613189565b5b61341160a06131ff565b90506000613421848285016127c6565b6000830152506020613435848285016128b7565b602083015250604082013567ffffffffffffffff8111156134595761345861321a565b5b613465848285016132ab565b604083015250606082013567ffffffffffffffff8111156134895761348861321a565b5b613495848285016132ab565b606083015250608082013567ffffffffffffffff8111156134b9576134b861321a565b5b6134c5848285016133c3565b60808301525092915050565b60006134dd36836133f1565b9050919050565b6134ed816125ed565b81146134f857600080fd5b50565b60008151905061350a816134e4565b92915050565b6000602082840312156135265761352561255e565b5b6000613534848285016134fb565b91505092915050565b60008151905061354c81612808565b92915050565b6000602082840312156135685761356761255e565b5b60006135768482850161353d565b91505092915050565b6000602082019050613594600083018461271e565b92915050565b7f4f6e6c792063616c6c61626c65206279206f776e657200000000000000000000600082015250565b60006135d0601683612b42565b91506135db8261359a565b602082019050919050565b600060208201905081810360008301526135ff816135c3565b9050919050565b600081519050919050565b600082825260208201905092915050565b60005b83811015613640578082015181840152602081019050613625565b60008484015250505050565b600061365782613606565b6136618185613611565b9350613671818560208601613622565b61367a8161318e565b840191505092915050565b600081519050919050565b600082825260208201905092915050565b6000819050602082019050919050565b6136ba8161272d565b82525050565b6136c981612623565b82525050565b6040820160008201516136e560008501826136b1565b5060208201516136f860208501826136c0565b50505050565b600061370a83836136cf565b60408301905092915050565b6000602082019050919050565b600061372e82613685565b6137388185613690565b9350613743836136a1565b8060005b8381101561377457815161375b88826136fe565b975061376683613716565b925050600181019050613747565b5085935050505092915050565b600060a083016000830151848203600086015261379e828261364c565b915050602083015184820360208601526137b8828261364c565b915050604083015184820360408601526137d28282613723565b91505060608301516137e760608601826136b1565b50608083015184820360808601526137ff828261364c565b9150508091505092915050565b6000604082019050613821600083018561271e565b81810360208301526138338184613781565b90509392505050565b7f4661696c656420746f20617070726f766520726f757465720000000000000000600082015250565b6000613872601883612b42565b915061387d8261383c565b602082019050919050565b600060208201905081810360008301526138a181613865565b9050919050565b6000815190506138b7816127af565b92915050565b6000602082840312156138d3576138d261255e565b5b60006138e1848285016138a8565b91505092915050565b60408201600082015161390060008501826136b1565b50602082015161391360208501826136c0565b50505050565b600060a08201905061392e600083018761273f565b61393b602083018661273f565b61394860408301856138ea565b613955608083018461262d565b95945050505050565b600061396982612657565b9050919050565b6139798161395e565b811461398457600080fd5b50565b60008151905061399681613970565b92915050565b6000602082840312156139b2576139b161255e565b5b60006139c084828501613987565b91505092915050565b60006080820190506139de600083018661273f565b6139eb602083018561273f565b6139f860408301846138ea565b949350505050565b6000613a0b82612623565b9150613a1683612623565b9250828201905080821115613a2e57613a2d612ab0565b5b92915050565b7f43616e6e6f74207472616e7366657220746f2073656c66000000000000000000600082015250565b6000613a6a601783612b42565b9150613a7582613a34565b602082019050919050565b60006020820190508181036000830152613a9981613a5d565b9050919050565b602082016000820151613ab660008501826136c0565b50505050565b6000602082019050613ad16000830184613aa0565b9291505056fea26469706673582212206f23b3caec2eeaa90d4c75d3ea336dcfd26408f77973bac5c6b940287758711e64736f6c6343000814003360806040523480156200001157600080fd5b50336040518060400160405280600881526020017f4d6f636b555344430000000000000000000000000000000000000000000000008152506040518060400160405280600581526020017f4d55534443000000000000000000000000000000000000000000000000000000815250816003908162000090919062000472565b508060049081620000a2919062000472565b505050600073ffffffffffffffffffffffffffffffffffffffff168173ffffffffffffffffffffffffffffffffffffffff16036200011a5760006040517f1e4fbdf70000000000000000000000000000000000000000000000000000000081526004016200011191906200059e565b60405180910390fd5b6200012b816200013260201b60201c565b50620005bb565b6000600560009054906101000a900473ffffffffffffffffffffffffffffffffffffffff16905081600560006101000a81548173ffffffffffffffffffffffffffffffffffffffff021916908373ffffffffffffffffffffffffffffffffffffffff1602179055508173ffffffffffffffffffffffffffffffffffffffff168173ffffffffffffffffffffffffffffffffffffffff167f8be0079c531659141344cd1fd0a4f28419497f9722a3daafe3b4186f6b6457e060405160405180910390a35050565b600081519050919050565b7f4e487b7100000000000000000000000000000000000000000000000000000000600052604160045260246000fd5b7f4e487b7100000000000000000000000000000000000000000000000000000000600052602260045260246000fd5b600060028204905060018216806200027a57607f821691505b60208210810362000290576200028f62000232565b5b50919050565b60008190508160005260206000209050919050565b60006020601f8301049050919050565b600082821b905092915050565b600060088302620002fa7fffffffffffffffffffffffffffffffffffffffffffffffffffffffffffffffff82620002bb565b620003068683620002bb565b95508019841693508086168417925050509392505050565b6000819050919050565b6000819050919050565b6000620003536200034d62000347846200031e565b62000328565b6200031e565b9050919050565b6000819050919050565b6200036f8362000332565b620003876200037e826200035a565b848454620002c8565b825550505050565b600090565b6200039e6200038f565b620003ab81848462000364565b505050565b5b81811015620003d357620003c760008262000394565b600181019050620003b1565b5050565b601f8211156200042257620003ec8162000296565b620003f784620002ab565b8101602085101562000407578190505b6200041f6200041685620002ab565b830182620003b0565b50505b505050565b600082821c905092915050565b6000620004476000198460080262000427565b1980831691505092915050565b600062000462838362000434565b9150826002028217905092915050565b6200047d82620001f8565b67ffffffffffffffff81111562000499576200049862000203565b5b620004a5825462000261565b620004b2828285620003d7565b600060209050601f831160018114620004ea5760008415620004d5578287015190505b620004e1858262000454565b86555062000551565b601f198416620004fa8662000296565b60005b828110156200052457848901518255600182019150602085019450602081019050620004fd565b8683101562000544578489015162000540601f89168262000434565b8355505b6001600288020188555050505b505050505050565b600073ffffffffffffffffffffffffffffffffffffffff82169050919050565b6000620005868262000559565b9050919050565b620005988162000579565b82525050565b6000602082019050620005b560008301846200058d565b92915050565b6112db80620005cb6000396000f3fe608060405234801561001057600080fd5b50600436106100f55760003560e01c806370a082311161009757806395d89b411161006657806395d89b4114610260578063a9059cbb1461027e578063dd62ed3e146102ae578063f2fde38b146102de576100f5565b806370a08231146101ec578063715018a61461021c57806379cc6790146102265780638da5cb5b14610242576100f5565b806323b872dd116100d357806323b872dd14610166578063313ce5671461019657806340c10f19146101b457806342966c68146101d0576100f5565b806306fdde03146100fa578063095ea7b31461011857806318160ddd14610148575b600080fd5b6101026102fa565b60405161010f9190610f02565b60405180910390f35b610132600480360381019061012d9190610fbd565b61038c565b60405161013f9190611018565b60405180910390f35b6101506103af565b60405161015d9190611042565b60405180910390f35b610180600480360381019061017b919061105d565b6103b9565b60405161018d9190611018565b60405180910390f35b61019e6103e8565b6040516101ab91906110cc565b60405180910390f35b6101ce60048036038101906101c99190610fbd565b6103f1565b005b6101ea60048036038101906101e591906110e7565b610407565b005b61020660048036038101906102019190611114565b61041b565b6040516102139190611042565b60405180910390f35b610224610463565b005b610240600480360381019061023b9190610fbd565b610477565b005b61024a610497565b6040516102579190611150565b60405180910390f35b6102686104c1565b6040516102759190610f02565b60405180910390f35b61029860048036038101906102939190610fbd565b610553565b6040516102a59190611018565b60405180910390f35b6102c860048036038101906102c3919061116b565b610576565b6040516102d59190611042565b60405180910390f35b6102f860048036038101906102f39190611114565b6105fd565b005b606060038054610309906111da565b80601f0160208091040260200160405190810160405280929190818152602001828054610335906111da565b80156103825780601f1061035757610100808354040283529160200191610382565b820191906000526020600020905b81548152906001019060200180831161036557829003601f168201915b5050505050905090565b600080610397610683565b90506103a481858561068b565b600191505092915050565b6000600254905090565b6000806103c4610683565b90506103d185828561069d565b6103dc858585610731565b60019150509392505050565b60006012905090565b6103f9610825565b61040382826108ac565b5050565b610418610412610683565b8261092e565b50565b60008060008373ffffffffffffffffffffffffffffffffffffffff1673ffffffffffffffffffffffffffffffffffffffff168152602001908152602001600020549050919050565b61046b610825565b61047560006109b0565b565b61048982610483610683565b8361069d565b610493828261092e565b5050565b6000600560009054906101000a900473ffffffffffffffffffffffffffffffffffffffff16905090565b6060600480546104d0906111da565b80601f01602080910402602001604051908101604052809291908181526020018280546104fc906111da565b80156105495780601f1061051e57610100808354040283529160200191610549565b820191906000526020600020905b81548152906001019060200180831161052c57829003601f168201915b5050505050905090565b60008061055e610683565b905061056b818585610731565b600191505092915050565b6000600160008473ffffffffffffffffffffffffffffffffffffffff1673ffffffffffffffffffffffffffffffffffffffff16815260200190815260200160002060008373ffffffffffffffffffffffffffffffffffffffff1673ffffffffffffffffffffffffffffffffffffffff16815260200190815260200160002054905092915050565b610605610825565b600073ffffffffffffffffffffffffffffffffffffffff168173ffffffffffffffffffffffffffffffffffffffff16036106775760006040517f1e4fbdf700000000000000000000000000000000000000000000000000000000815260040161066e9190611150565b60405180910390fd5b610680816109b0565b50565b600033905090565b6106988383836001610a76565b505050565b60006106a98484610576565b90507fffffffffffffffffffffffffffffffffffffffffffffffffffffffffffffffff811461072b578181101561071b578281836040517ffb8f41b20000000000000000000000000000000000000000000000000000000081526004016107129392919061120b565b60405180910390fd5b61072a84848484036000610a76565b5b50505050565b600073ffffffffffffffffffffffffffffffffffffffff168373ffffffffffffffffffffffffffffffffffffffff16036107a35760006040517f96c6fd1e00000000000000000000000000000000000000000000000000000000815260040161079a9190611150565b60405180910390fd5b600073ffffffffffffffffffffffffffffffffffffffff168273ffffffffffffffffffffffffffffffffffffffff16036108155760006040517fec442f0500000000000000000000000000000000000000000000000000000000815260040161080c9190611150565b60405180910390fd5b610820838383610c4d565b505050565b61082d610683565b73ffffffffffffffffffffffffffffffffffffffff1661084b610497565b73ffffffffffffffffffffffffffffffffffffffff16146108aa5761086e610683565b6040517f118cdaa70000000000000000000000000000000000000000000000000000000081526004016108a19190611150565b60405180910390fd5b565b600073ffffffffffffffffffffffffffffffffffffffff168273ffffffffffffffffffffffffffffffffffffffff160361091e5760006040517fec442f050000000000000000000000000000000000000000000000000000000081526004016109159190611150565b60405180910390fd5b61092a60008383610c4d565b5050565b600073ffffffffffffffffffffffffffffffffffffffff168273ffffffffffffffffffffffffffffffffffffffff16036109a05760006040517f96c6fd1e0000000000000000000000000000000000000000000000000000000081526004016109979190611150565b60405180910390fd5b6109ac82600083610c4d565b5050565b6000600560009054906101000a900473ffffffffffffffffffffffffffffffffffffffff16905081600560006101000a81548173ffffffffffffffffffffffffffffffffffffffff021916908373ffffffffffffffffffffffffffffffffffffffff1602179055508173ffffffffffffffffffffffffffffffffffffffff168173ffffffffffffffffffffffffffffffffffffffff167f8be0079c531659141344cd1fd0a4f28419497f9722a3daafe3b4186f6b6457e060405160405180910390a35050565b600073ffffffffffffffffffffffffffffffffffffffff168473ffffffffffffffffffffffffffffffffffffffff1603610ae85760006040517fe602df05000000000000000000000000000000000000000000000000000000008152600401610adf9190611150565b60405180910390fd5b600073ffffffffffffffffffffffffffffffffffffffff168373ffffffffffffffffffffffffffffffffffffffff1603610b5a5760006040517f94280d62000000000000000000000000000000000000000000000000000000008152600401610b519190611150565b60405180910390fd5b81600160008673ffffffffffffffffffffffffffffffffffffffff1673ffffffffffffffffffffffffffffffffffffffff16815260200190815260200160002060008573ffffffffffffffffffffffffffffffffffffffff1673ffffffffffffffffffffffffffffffffffffffff168152602001908152602001600020819055508015610c47578273ffffffffffffffffffffffffffffffffffffffff168473ffffffffffffffffffffffffffffffffffffffff167f8c5be1e5ebec7d5bd14f71427d1e84f3dd0314c0f7b2291e5b200ac8c7c3b92584604051610c3e9190611042565b60405180910390a35b50505050565b600073ffffffffffffffffffffffffffffffffffffffff168373ffffffffffffffffffffffffffffffffffffffff1603610c9f578060026000828254610c939190611271565b92505081905550610d72565b60008060008573ffffffffffffffffffffffffffffffffffffffff1673ffffffffffffffffffffffffffffffffffffffff16815260200190815260200160002054905081811015610d2b578381836040517fe450d38c000000000000000000000000000000000000000000000000000000008152600401610d229392919061120b565b60405180910390fd5b8181036000808673ffffffffffffffffffffffffffffffffffffffff1673ffffffffffffffffffffffffffffffffffffffff16815260200190815260200160002081905550505b600073ffffffffffffffffffffffffffffffffffffffff168273ffffffffffffffffffffffffffffffffffffffff1603610dbb5780600260008282540392505081905550610e08565b806000808473ffffffffffffffffffffffffffffffffffffffff1673ffffffffffffffffffffffffffffffffffffffff168152602001908152602001600020600082825401925050819055505b8173ffffffffffffffffffffffffffffffffffffffff168373ffffffffffffffffffffffffffffffffffffffff167fddf252ad1be2c89b69c2b068fc378daa952ba7f163c4a11628f55a4df523b3ef83604051610e659190611042565b60405180910390a3505050565b600081519050919050565b600082825260208201905092915050565b60005b83811015610eac578082015181840152602081019050610e91565b60008484015250505050565b6000601f19601f8301169050919050565b6000610ed482610e72565b610ede8185610e7d565b9350610eee818560208601610e8e565b610ef781610eb8565b840191505092915050565b60006020820190508181036000830152610f1c8184610ec9565b905092915050565b600080fd5b600073ffffffffffffffffffffffffffffffffffffffff82169050919050565b6000610f5482610f29565b9050919050565b610f6481610f49565b8114610f6f57600080fd5b50565b600081359050610f8181610f5b565b92915050565b6000819050919050565b610f9a81610f87565b8114610fa557600080fd5b50565b600081359050610fb781610f91565b92915050565b60008060408385031215610fd457610fd3610f24565b5b6000610fe285828601610f72565b9250506020610ff385828601610fa8565b9150509250929050565b60008115159050919050565b61101281610ffd565b82525050565b600060208201905061102d6000830184611009565b92915050565b61103c81610f87565b82525050565b60006020820190506110576000830184611033565b92915050565b60008060006060848603121561107657611075610f24565b5b600061108486828701610f72565b935050602061109586828701610f72565b92505060406110a686828701610fa8565b9150509250925092565b600060ff82169050919050565b6110c6816110b0565b82525050565b60006020820190506110e160008301846110bd565b92915050565b6000602082840312156110fd576110fc610f24565b5b600061110b84828501610fa8565b91505092915050565b60006020828403121561112a57611129610f24565b5b600061113884828501610f72565b91505092915050565b61114a81610f49565b82525050565b60006020820190506111656000830184611141565b92915050565b6000806040838503121561118257611181610f24565b5b600061119085828601610f72565b92505060206111a185828601610f72565b9150509250929050565b7f4e487b7100000000000000000000000000000000000000000000000000000000600052602260045260246000fd5b600060028204905060018216806111f257607f821691505b602082108103611205576112046111ab565b5b50919050565b60006060820190506112206000830186611141565b61122d6020830185611033565b61123a6040830184611033565b949350505050565b7f4e487b7100000000000000000000000000000000000000000000000000000000600052601160045260246000fd5b600061127c82610f87565b915061128783610f87565b925082820190508082111561129f5761129e611242565b5b9291505056fea2646970667358221220dc070cbd610ab8a4e23a992d7a07c047055f7d203b7d7fed6147b8151dc00f1c64736f6c63430008140033",
  "linkReferences": {},
  "deployedLinkReferences": {}
}