{
  "_format": "hh-sol-artifact-1",
  "contractName": "SimpleSlotGame",
  "sourceName": "contracts/Slots.sol",
  "abi": [
    {
      "inputs": [
        {
          "internalType": "uint64",
          "name": "subscriptionId",
          "type": "uint64"
        },
        {
          "internalType": "address",
          "name": "vrfCoordinator",
          "type": "address"
        },
        {
          "internalType": "bytes32",
          "name": "keyHash",
          "type": "bytes32"
        }
      ],
      "stateMutability": "nonpayable",
      "type": "constructor"
    },
    {
      "inputs": [
        {
          "internalType": "address",
          "name": "have",
          "type": "address"
        },
        {
          "internalType": "address",
          "name": "want",
          "type": "address"
        }
      ],
      "name": "OnlyCoordinatorCanFulfill",
      "type": "error"
    },
    {
      "anonymous": false,
      "inputs": [
        {
          "indexed": true,
          "internalType": "address",
          "name": "from",
          "type": "address"
        },
        {
          "indexed": true,
          "internalType": "address",
          "name": "to",
          "type": "address"
        }
      ],
      "name": "OwnershipTransferRequested",
      "type": "event"
    },
    {
      "anonymous": false,
      "inputs": [
        {
          "indexed": true,
          "internalType": "address",
          "name": "from",
          "type": "address"
        },
        {
          "indexed": true,
          "internalType": "address",
          "name": "to",
          "type": "address"
        }
      ],
      "name": "OwnershipTransferred",
      "type": "event"
    },
    {
      "anonymous": false,
      "inputs": [
        {
          "indexed": true,
          "internalType": "uint256",
          "name": "requestId",
          "type": "uint256"
        },
        {
          "indexed": false,
          "internalType": "uint256",
          "name": "randomNumber",
          "type": "uint256"
        }
      ],
      "name": "RandomNumberFulfilled",
      "type": "event"
    },
    {
      "anonymous": false,
      "inputs": [
        {
          "indexed": true,
          "internalType": "uint256",
          "name": "requestId",
          "type": "uint256"
        },
        {
          "indexed": true,
          "internalType": "address",
          "name": "spinner",
          "type": "address"
        }
      ],
      "name": "SpinStarted",
      "type": "event"
    },
    {
      "anonymous": false,
      "inputs": [
        {
          "indexed": true,
          "internalType": "address",
          "name": "player",
          "type": "address"
        },
        {
          "indexed": false,
          "internalType": "uint256",
          "name": "amount",
          "type": "uint256"
        }
      ],
      "name": "WinningsWithdrawn",
      "type": "event"
    },
    {
      "inputs": [],
      "name": "acceptOwnership",
      "outputs": [],
      "stateMutability": "nonpayable",
      "type": "function"
    },
    {
      "inputs": [],
      "name": "callbackGasLimit",
      "outputs": [
        {
          "internalType": "uint32",
          "name": "",
          "type": "uint32"
        }
      ],
      "stateMutability": "view",
      "type": "function"
    },
    {
      "inputs": [],
      "name": "numWords",
      "outputs": [
        {
          "internalType": "uint32",
          "name": "",
          "type": "uint32"
        }
      ],
      "stateMutability": "view",
      "type": "function"
    },
    {
      "inputs": [],
      "name": "owner",
      "outputs": [
        {
          "internalType": "address",
          "name": "",
          "type": "address"
        }
      ],
      "stateMutability": "view",
      "type": "function"
    },
    {
      "inputs": [],
      "name": "pauseContract",
      "outputs": [],
      "stateMutability": "nonpayable",
      "type": "function"
    },
    {
      "inputs": [],
      "name": "paused",
      "outputs": [
        {
          "internalType": "bool",
          "name": "",
          "type": "bool"
        }
      ],
      "stateMutability": "view",
      "type": "function"
    },
    {
      "inputs": [
        {
          "internalType": "uint256",
          "name": "requestId",
          "type": "uint256"
        },
        {
          "internalType": "uint256[]",
          "name": "randomWords",
          "type": "uint256[]"
        }
      ],
      "name": "rawFulfillRandomWords",
      "outputs": [],
      "stateMutability": "nonpayable",
      "type": "function"
    },
    {
      "inputs": [],
      "name": "requestConfirmations",
      "outputs": [
        {
          "internalType": "uint16",
          "name": "",
          "type": "uint16"
        }
      ],
      "stateMutability": "view",
      "type": "function"
    },
    {
      "inputs": [],
      "name": "resumeContract",
      "outputs": [],
      "stateMutability": "nonpayable",
      "type": "function"
    },
    {
      "inputs": [],
      "name": "spin",
      "outputs": [],
      "stateMutability": "payable",
      "type": "function"
    },
    {
      "inputs": [
        {
          "internalType": "address",
          "name": "to",
          "type": "address"
        }
      ],
      "name": "transferOwnership",
      "outputs": [],
      "stateMutability": "nonpayable",
      "type": "function"
    },
    {
      "inputs": [
        {
          "internalType": "uint256",
          "name": "newJackpotNumber",
          "type": "uint256"
        }
      ],
      "name": "updateJackpotNumber",
      "outputs": [],
      "stateMutability": "nonpayable",
      "type": "function"
    },
    {
      "inputs": [
        {
          "internalType": "bytes32",
          "name": "newKeyHash",
          "type": "bytes32"
        }
      ],
      "name": "updateKeyHash",
      "outputs": [],
      "stateMutability": "nonpayable",
      "type": "function"
    },
    {
      "inputs": [
        {
          "internalType": "uint256",
          "name": "newMultiplier",
          "type": "uint256"
        }
      ],
      "name": "updateMultiplier",
      "outputs": [],
      "stateMutability": "nonpayable",
      "type": "function"
    },
    {
      "inputs": [
        {
          "internalType": "uint64",
          "name": "newSubscriptionId",
          "type": "uint64"
        }
      ],
      "name": "updateSubscriptionId",
      "outputs": [],
      "stateMutability": "nonpayable",
      "type": "function"
    },
    {
      "inputs": [
        {
          "internalType": "address",
          "name": "",
          "type": "address"
        }
      ],
      "name": "winnings",
      "outputs": [
        {
          "internalType": "uint256",
          "name": "",
          "type": "uint256"
        }
      ],
      "stateMutability": "view",
      "type": "function"
    },
    {
      "inputs": [],
      "name": "withdrawWinnings",
      "outputs": [],
      "stateMutability": "nonpayable",
      "type": "function"
    }
  ],
  "bytecode": "0x60c0604052619c40600360006101000a81548163ffffffff021916908363ffffffff16021790555060038060046101000a81548161ffff021916908361ffff1602179055506001600360066101000a81548163ffffffff021916908363ffffffff160217905550610309600455600a6005556000600860006101000a81548160ff0219169083151502179055503480156200009957600080fd5b5060405162001d2b38038062001d2b8339818101604052810190620000bf91906200047b565b33806000848073ffffffffffffffffffffffffffffffffffffffff1660808173ffffffffffffffffffffffffffffffffffffffff168152505050600073ffffffffffffffffffffffffffffffffffffffff168273ffffffffffffffffffffffffffffffffffffffff16036200016b576040517f08c379a0000000000000000000000000000000000000000000000000000000008152600401620001629062000538565b60405180910390fd5b816000806101000a81548173ffffffffffffffffffffffffffffffffffffffff021916908373ffffffffffffffffffffffffffffffffffffffff160217905550600073ffffffffffffffffffffffffffffffffffffffff168173ffffffffffffffffffffffffffffffffffffffff1614620001f257620001f1816200026260201b60201c565b5b5050508173ffffffffffffffffffffffffffffffffffffffff1660a08173ffffffffffffffffffffffffffffffffffffffff16815250508060028190555082600160146101000a81548167ffffffffffffffff021916908367ffffffffffffffff160217905550505050620005cc565b3373ffffffffffffffffffffffffffffffffffffffff168173ffffffffffffffffffffffffffffffffffffffff1603620002d3576040517f08c379a0000000000000000000000000000000000000000000000000000000008152600401620002ca90620005aa565b60405180910390fd5b80600160006101000a81548173ffffffffffffffffffffffffffffffffffffffff021916908373ffffffffffffffffffffffffffffffffffffffff1602179055508073ffffffffffffffffffffffffffffffffffffffff1660008054906101000a900473ffffffffffffffffffffffffffffffffffffffff1673ffffffffffffffffffffffffffffffffffffffff167fed8889f560326eb138920d842192f0eb3dd22b4f139c87a2c57538e05bae127860405160405180910390a350565b600080fd5b600067ffffffffffffffff82169050919050565b620003b58162000396565b8114620003c157600080fd5b50565b600081519050620003d581620003aa565b92915050565b600073ffffffffffffffffffffffffffffffffffffffff82169050919050565b60006200040882620003db565b9050919050565b6200041a81620003fb565b81146200042657600080fd5b50565b6000815190506200043a816200040f565b92915050565b6000819050919050565b620004558162000440565b81146200046157600080fd5b50565b60008151905062000475816200044a565b92915050565b60008060006060848603121562000497576200049662000391565b5b6000620004a786828701620003c4565b9350506020620004ba8682870162000429565b9250506040620004cd8682870162000464565b9150509250925092565b600082825260208201905092915050565b7f43616e6e6f7420736574206f776e657220746f207a65726f0000000000000000600082015250565b600062000520601883620004d7565b91506200052d82620004e8565b602082019050919050565b60006020820190508181036000830152620005538162000511565b9050919050565b7f43616e6e6f74207472616e7366657220746f2073656c66000000000000000000600082015250565b600062000592601783620004d7565b91506200059f826200055a565b602082019050919050565b60006020820190508181036000830152620005c58162000583565b9050919050565b60805160a051611732620005f9600039600061095b0152600081816103a901526103fd01526117326000f3fe6080604052600436106100fe5760003560e01c80638da5cb5b11610095578063cc42e83a11610064578063cc42e83a146102c3578063e7fa67e5146102da578063ea3a149914610303578063f0acd7d514610340578063f2fde38b1461034a576100fe565b80638da5cb5b1461022d578063b0d5a31014610258578063b0fb162f14610281578063c4bc5da5146102ac576100fe565b80635c975abb116100d15780635c975abb146101975780635ffe6146146101c257806379ba5097146101eb5780637ccfd7fc14610202576100fe565b806314b1dd1b146101035780631fe543e31461012c57806324f7469714610155578063439766ce14610180575b600080fd5b34801561010f57600080fd5b5061012a60048036038101906101259190610e24565b610373565b005b34801561013857600080fd5b50610153600480360381019061014e9190610fe0565b6103a7565b005b34801561016157600080fd5b5061016a610467565b604051610177919061105b565b60405180910390f35b34801561018c57600080fd5b5061019561047d565b005b3480156101a357600080fd5b506101ac6104a2565b6040516101b99190611091565b60405180910390f35b3480156101ce57600080fd5b506101e960048036038101906101e491906110ac565b6104b5565b005b3480156101f757600080fd5b506102006104c7565b005b34801561020e57600080fd5b5061021761065c565b604051610224919061105b565b60405180910390f35b34801561023957600080fd5b50610242610672565b60405161024f919061111a565b60405180910390f35b34801561026457600080fd5b5061027f600480360381019061027a91906110ac565b61069b565b005b34801561028d57600080fd5b506102966106ad565b6040516102a39190611152565b60405180910390f35b3480156102b857600080fd5b506102c16106c1565b005b3480156102cf57600080fd5b506102d86106e6565b005b3480156102e657600080fd5b5061030160048036038101906102fc91906111a3565b61089a565b005b34801561030f57600080fd5b5061032a600480360381019061032591906111fc565b6108ac565b6040516103379190611238565b60405180910390f35b6103486108c4565b005b34801561035657600080fd5b50610371600480360381019061036c91906111fc565b610ae4565b005b61037b610af8565b80600160146101000a81548167ffffffffffffffff021916908367ffffffffffffffff16021790555050565b7f000000000000000000000000000000000000000000000000000000000000000073ffffffffffffffffffffffffffffffffffffffff163373ffffffffffffffffffffffffffffffffffffffff161461045957337f00000000000000000000000000000000000000000000000000000000000000006040517f1cf993f4000000000000000000000000000000000000000000000000000000008152600401610450929190611253565b60405180910390fd5b6104638282610b88565b5050565b600360009054906101000a900463ffffffff1681565b610485610af8565b6001600860006101000a81548160ff021916908315150217905550565b600860009054906101000a900460ff1681565b6104bd610af8565b8060058190555050565b600160009054906101000a900473ffffffffffffffffffffffffffffffffffffffff1673ffffffffffffffffffffffffffffffffffffffff163373ffffffffffffffffffffffffffffffffffffffff1614610557576040517f08c379a000000000000000000000000000000000000000000000000000000000815260040161054e906112d9565b60405180910390fd5b60008060009054906101000a900473ffffffffffffffffffffffffffffffffffffffff169050336000806101000a81548173ffffffffffffffffffffffffffffffffffffffff021916908373ffffffffffffffffffffffffffffffffffffffff1602179055506000600160006101000a81548173ffffffffffffffffffffffffffffffffffffffff021916908373ffffffffffffffffffffffffffffffffffffffff1602179055503373ffffffffffffffffffffffffffffffffffffffff168173ffffffffffffffffffffffffffffffffffffffff167f8be0079c531659141344cd1fd0a4f28419497f9722a3daafe3b4186f6b6457e060405160405180910390a350565b600360069054906101000a900463ffffffff1681565b60008060009054906101000a900473ffffffffffffffffffffffffffffffffffffffff16905090565b6106a3610af8565b8060048190555050565b600360049054906101000a900461ffff1681565b6106c9610af8565b6000600860006101000a81548160ff021916908315150217905550565b600860009054906101000a900460ff1615610736576040517f08c379a000000000000000000000000000000000000000000000000000000000815260040161072d90611345565b60405180910390fd5b6000600760003373ffffffffffffffffffffffffffffffffffffffff1673ffffffffffffffffffffffffffffffffffffffff168152602001908152602001600020549050600081116107bd576040517f08c379a00000000000000000000000000000000000000000000000000000000081526004016107b4906113b1565b60405180910390fd5b6000600760003373ffffffffffffffffffffffffffffffffffffffff1673ffffffffffffffffffffffffffffffffffffffff168152602001908152602001600020819055503373ffffffffffffffffffffffffffffffffffffffff166108fc829081150290604051600060405180830381858888f19350505050158015610848573d6000803e3d6000fd5b503373ffffffffffffffffffffffffffffffffffffffff167f24215bbaf0832fa4d6ffef16dee3971d8b714921fef3ad63f793d578983c6dc28260405161088f9190611238565b60405180910390a250565b6108a2610af8565b8060028190555050565b60076020528060005260406000206000915090505481565b600860009054906101000a900460ff1615610914576040517f08c379a000000000000000000000000000000000000000000000000000000000815260040161090b90611345565b60405180910390fd5b60003411610957576040517f08c379a000000000000000000000000000000000000000000000000000000000815260040161094e9061141d565b60405180910390fd5b60007f000000000000000000000000000000000000000000000000000000000000000073ffffffffffffffffffffffffffffffffffffffff16635d3b1d30600254600160149054906101000a900467ffffffffffffffff16600360049054906101000a900461ffff16600360009054906101000a900463ffffffff16600360069054906101000a900463ffffffff166040518663ffffffff1660e01b8152600401610a0695949392919061145b565b6020604051808303816000875af1158015610a25573d6000803e3d6000fd5b505050506040513d601f19601f82011682018060405250810190610a4991906114c3565b9050336006600083815260200190815260200160002060006101000a81548173ffffffffffffffffffffffffffffffffffffffff021916908373ffffffffffffffffffffffffffffffffffffffff1602179055503373ffffffffffffffffffffffffffffffffffffffff16817f762fab21970a23fdaed1d4ce7555ea146bfbc5a57c47b5a5d9cd7d7184cb2be860405160405180910390a350565b610aec610af8565b610af581610ca4565b50565b60008054906101000a900473ffffffffffffffffffffffffffffffffffffffff1673ffffffffffffffffffffffffffffffffffffffff163373ffffffffffffffffffffffffffffffffffffffff1614610b86576040517f08c379a0000000000000000000000000000000000000000000000000000000008152600401610b7d9061153c565b60405180910390fd5b565b600060016103e883600081518110610ba357610ba261155c565b5b6020026020010151610bb591906115ba565b610bbf919061161a565b905060006006600085815260200190815260200160002060009054906101000a900473ffffffffffffffffffffffffffffffffffffffff1690506004548203610c665760055434610c10919061164e565b600760008373ffffffffffffffffffffffffffffffffffffffff1673ffffffffffffffffffffffffffffffffffffffff1681526020019081526020016000206000828254610c5e919061161a565b925050819055505b837f8d0b85217819203ea5eebe89818986fc8f6db4913ede059bade4b8569caebbc983604051610c969190611238565b60405180910390a250505050565b3373ffffffffffffffffffffffffffffffffffffffff168173ffffffffffffffffffffffffffffffffffffffff1603610d12576040517f08c379a0000000000000000000000000000000000000000000000000000000008152600401610d09906116dc565b60405180910390fd5b80600160006101000a81548173ffffffffffffffffffffffffffffffffffffffff021916908373ffffffffffffffffffffffffffffffffffffffff1602179055508073ffffffffffffffffffffffffffffffffffffffff1660008054906101000a900473ffffffffffffffffffffffffffffffffffffffff1673ffffffffffffffffffffffffffffffffffffffff167fed8889f560326eb138920d842192f0eb3dd22b4f139c87a2c57538e05bae127860405160405180910390a350565b6000604051905090565b600080fd5b600080fd5b600067ffffffffffffffff82169050919050565b610e0181610de4565b8114610e0c57600080fd5b50565b600081359050610e1e81610df8565b92915050565b600060208284031215610e3a57610e39610dda565b5b6000610e4884828501610e0f565b91505092915050565b6000819050919050565b610e6481610e51565b8114610e6f57600080fd5b50565b600081359050610e8181610e5b565b92915050565b600080fd5b6000601f19601f8301169050919050565b7f4e487b7100000000000000000000000000000000000000000000000000000000600052604160045260246000fd5b610ed582610e8c565b810181811067ffffffffffffffff82111715610ef457610ef3610e9d565b5b80604052505050565b6000610f07610dd0565b9050610f138282610ecc565b919050565b600067ffffffffffffffff821115610f3357610f32610e9d565b5b602082029050602081019050919050565b600080fd5b6000610f5c610f5784610f18565b610efd565b90508083825260208201905060208402830185811115610f7f57610f7e610f44565b5b835b81811015610fa85780610f948882610e72565b845260208401935050602081019050610f81565b5050509392505050565b600082601f830112610fc757610fc6610e87565b5b8135610fd7848260208601610f49565b91505092915050565b60008060408385031215610ff757610ff6610dda565b5b600061100585828601610e72565b925050602083013567ffffffffffffffff81111561102657611025610ddf565b5b61103285828601610fb2565b9150509250929050565b600063ffffffff82169050919050565b6110558161103c565b82525050565b6000602082019050611070600083018461104c565b92915050565b60008115159050919050565b61108b81611076565b82525050565b60006020820190506110a66000830184611082565b92915050565b6000602082840312156110c2576110c1610dda565b5b60006110d084828501610e72565b91505092915050565b600073ffffffffffffffffffffffffffffffffffffffff82169050919050565b6000611104826110d9565b9050919050565b611114816110f9565b82525050565b600060208201905061112f600083018461110b565b92915050565b600061ffff82169050919050565b61114c81611135565b82525050565b60006020820190506111676000830184611143565b92915050565b6000819050919050565b6111808161116d565b811461118b57600080fd5b50565b60008135905061119d81611177565b92915050565b6000602082840312156111b9576111b8610dda565b5b60006111c78482850161118e565b91505092915050565b6111d9816110f9565b81146111e457600080fd5b50565b6000813590506111f6816111d0565b92915050565b60006020828403121561121257611211610dda565b5b6000611220848285016111e7565b91505092915050565b61123281610e51565b82525050565b600060208201905061124d6000830184611229565b92915050565b6000604082019050611268600083018561110b565b611275602083018461110b565b9392505050565b600082825260208201905092915050565b7f4d7573742062652070726f706f736564206f776e657200000000000000000000600082015250565b60006112c360168361127c565b91506112ce8261128d565b602082019050919050565b600060208201905081810360008301526112f2816112b6565b9050919050565b7f436f6e7472616374206973207061757365640000000000000000000000000000600082015250565b600061132f60128361127c565b915061133a826112f9565b602082019050919050565b6000602082019050818103600083015261135e81611322565b9050919050565b7f4e6f2077696e6e696e677320746f207769746864726177000000000000000000600082015250565b600061139b60178361127c565b91506113a682611365565b602082019050919050565b600060208201905081810360008301526113ca8161138e565b9050919050565b7f4d75737420626574206d6f7265207468616e2030000000000000000000000000600082015250565b600061140760148361127c565b9150611412826113d1565b602082019050919050565b60006020820190508181036000830152611436816113fa565b9050919050565b6114468161116d565b82525050565b61145581610de4565b82525050565b600060a082019050611470600083018861143d565b61147d602083018761144c565b61148a6040830186611143565b611497606083018561104c565b6114a4608083018461104c565b9695505050505050565b6000815190506114bd81610e5b565b92915050565b6000602082840312156114d9576114d8610dda565b5b60006114e7848285016114ae565b91505092915050565b7f4f6e6c792063616c6c61626c65206279206f776e657200000000000000000000600082015250565b600061152660168361127c565b9150611531826114f0565b602082019050919050565b6000602082019050818103600083015261155581611519565b9050919050565b7f4e487b7100000000000000000000000000000000000000000000000000000000600052603260045260246000fd5b7f4e487b7100000000000000000000000000000000000000000000000000000000600052601260045260246000fd5b60006115c582610e51565b91506115d083610e51565b9250826115e0576115df61158b565b5b828206905092915050565b7f4e487b7100000000000000000000000000000000000000000000000000000000600052601160045260246000fd5b600061162582610e51565b915061163083610e51565b9250828201905080821115611648576116476115eb565b5b92915050565b600061165982610e51565b915061166483610e51565b925082820261167281610e51565b91508282048414831517611689576116886115eb565b5b5092915050565b7f43616e6e6f74207472616e7366657220746f2073656c66000000000000000000600082015250565b60006116c660178361127c565b91506116d182611690565b602082019050919050565b600060208201905081810360008301526116f5816116b9565b905091905056fea26469706673582212208fad020289157510fb1150d50672ed44ff86917ee618c2d4858ddbf13ac913bd64736f6c63430008140033",
  "linkReferences": {},
  "deployedLinkReferences": {}
}