{
  "_format": "hh-sol-artifact-1",
  "contractName": "Sender",
  "sourceName": "contracts/ccip-examples/sender.sol",
  "abi": [
    {
      "inputs": [
        {
          "internalType": "address",
          "name": "_router",
          "type": "address"
        },
        {
          "internalType": "address",
          "name": "link",
          "type": "address"
        }
      ],
      "stateMutability": "nonpayable",
      "type": "constructor"
    },
    {
      "inputs": [
        {
          "internalType": "address",
          "name": "owner",
          "type": "address"
        },
        {
          "internalType": "uint256",
          "name": "value",
          "type": "uint256"
        }
      ],
      "name": "FailedToWithdrawEth",
      "type": "error"
    },
    {
      "inputs": [
        {
          "internalType": "uint256",
          "name": "providedIndex",
          "type": "uint256"
        },
        {
          "internalType": "uint256",
          "name": "maxIndex",
          "type": "uint256"
        }
      ],
      "name": "IndexOutOfBound",
      "type": "error"
    },
    {
      "inputs": [
        {
          "internalType": "address",
          "name": "router",
          "type": "address"
        }
      ],
      "name": "InvalidRouter",
      "type": "error"
    },
    {
      "inputs": [
        {
          "internalType": "bytes32",
          "name": "messageId",
          "type": "bytes32"
        }
      ],
      "name": "MessageIdNotExist",
      "type": "error"
    },
    {
      "inputs": [
        {
          "internalType": "address",
          "name": "msgSender",
          "type": "address"
        },
        {
          "internalType": "bool",
          "name": "locked",
          "type": "bool"
        }
      ],
      "name": "NoFundsLocked",
      "type": "error"
    },
    {
      "inputs": [],
      "name": "NoMessageReceived",
      "type": "error"
    },
    {
      "inputs": [
        {
          "internalType": "uint256",
          "name": "",
          "type": "uint256"
        },
        {
          "internalType": "uint256",
          "name": "",
          "type": "uint256"
        }
      ],
      "name": "NotEnoughBalance",
      "type": "error"
    },
    {
      "inputs": [],
      "name": "NothingToWithdraw",
      "type": "error"
    },
    {
      "anonymous": false,
      "inputs": [
        {
          "indexed": true,
          "internalType": "bytes32",
          "name": "messageId",
          "type": "bytes32"
        },
        {
          "indexed": true,
          "internalType": "uint64",
          "name": "sourceChainSelector",
          "type": "uint64"
        },
        {
          "indexed": false,
          "internalType": "address",
          "name": "sender",
          "type": "address"
        },
        {
          "indexed": false,
          "internalType": "address",
          "name": "borrower",
          "type": "address"
        },
        {
          "components": [
            {
              "internalType": "address",
              "name": "token",
              "type": "address"
            },
            {
              "internalType": "uint256",
              "name": "amount",
              "type": "uint256"
            }
          ],
          "indexed": false,
          "internalType": "struct Client.EVMTokenAmount",
          "name": "tokenAmount",
          "type": "tuple"
        }
      ],
      "name": "MessageReceived",
      "type": "event"
    },
    {
      "anonymous": false,
      "inputs": [
        {
          "indexed": true,
          "internalType": "bytes32",
          "name": "messageId",
          "type": "bytes32"
        },
        {
          "indexed": true,
          "internalType": "uint64",
          "name": "destinationChainSelector",
          "type": "uint64"
        },
        {
          "indexed": false,
          "internalType": "address",
          "name": "receiver",
          "type": "address"
        },
        {
          "indexed": false,
          "internalType": "address",
          "name": "depositor",
          "type": "address"
        },
        {
          "components": [
            {
              "internalType": "address",
              "name": "token",
              "type": "address"
            },
            {
              "internalType": "uint256",
              "name": "amount",
              "type": "uint256"
            }
          ],
          "indexed": false,
          "internalType": "struct Client.EVMTokenAmount",
          "name": "tokenAmount",
          "type": "tuple"
        },
        {
          "indexed": false,
          "internalType": "uint256",
          "name": "fees",
          "type": "uint256"
        }
      ],
      "name": "MessageSent",
      "type": "event"
    },
    {
      "anonymous": false,
      "inputs": [
        {
          "indexed": true,
          "internalType": "address",
          "name": "from",
          "type": "address"
        },
        {
          "indexed": true,
          "internalType": "address",
          "name": "to",
          "type": "address"
        }
      ],
      "name": "OwnershipTransferRequested",
      "type": "event"
    },
    {
      "anonymous": false,
      "inputs": [
        {
          "indexed": true,
          "internalType": "address",
          "name": "from",
          "type": "address"
        },
        {
          "indexed": true,
          "internalType": "address",
          "name": "to",
          "type": "address"
        }
      ],
      "name": "OwnershipTransferred",
      "type": "event"
    },
    {
      "inputs": [],
      "name": "acceptOwnership",
      "outputs": [],
      "stateMutability": "nonpayable",
      "type": "function"
    },
    {
      "inputs": [
        {
          "components": [
            {
              "internalType": "bytes32",
              "name": "messageId",
              "type": "bytes32"
            },
            {
              "internalType": "uint64",
              "name": "sourceChainSelector",
              "type": "uint64"
            },
            {
              "internalType": "bytes",
              "name": "sender",
              "type": "bytes"
            },
            {
              "internalType": "bytes",
              "name": "data",
              "type": "bytes"
            },
            {
              "components": [
                {
                  "internalType": "address",
                  "name": "token",
                  "type": "address"
                },
                {
                  "internalType": "uint256",
                  "name": "amount",
                  "type": "uint256"
                }
              ],
              "internalType": "struct Client.EVMTokenAmount[]",
              "name": "destTokenAmounts",
              "type": "tuple[]"
            }
          ],
          "internalType": "struct Client.Any2EVMMessage",
          "name": "message",
          "type": "tuple"
        }
      ],
      "name": "ccipReceive",
      "outputs": [],
      "stateMutability": "nonpayable",
      "type": "function"
    },
    {
      "inputs": [],
      "name": "deposit",
      "outputs": [],
      "stateMutability": "payable",
      "type": "function"
    },
    {
      "inputs": [
        {
          "internalType": "address",
          "name": "",
          "type": "address"
        }
      ],
      "name": "deposits",
      "outputs": [
        {
          "internalType": "uint256",
          "name": "amount",
          "type": "uint256"
        },
        {
          "internalType": "bool",
          "name": "locked",
          "type": "bool"
        }
      ],
      "stateMutability": "view",
      "type": "function"
    },
    {
      "inputs": [],
      "name": "getLastReceivedMessageDetails",
      "outputs": [
        {
          "internalType": "bytes32",
          "name": "messageId",
          "type": "bytes32"
        },
        {
          "internalType": "uint64",
          "name": "",
          "type": "uint64"
        },
        {
          "internalType": "address",
          "name": "",
          "type": "address"
        },
        {
          "internalType": "address",
          "name": "",
          "type": "address"
        },
        {
          "internalType": "address",
          "name": "",
          "type": "address"
        },
        {
          "internalType": "uint256",
          "name": "",
          "type": "uint256"
        }
      ],
      "stateMutability": "view",
      "type": "function"
    },
    {
      "inputs": [],
      "name": "getNumberOfReceivedMessages",
      "outputs": [
        {
          "internalType": "uint256",
          "name": "number",
          "type": "uint256"
        }
      ],
      "stateMutability": "view",
      "type": "function"
    },
    {
      "inputs": [],
      "name": "getRouter",
      "outputs": [
        {
          "internalType": "address",
          "name": "",
          "type": "address"
        }
      ],
      "stateMutability": "view",
      "type": "function"
    },
    {
      "inputs": [
        {
          "internalType": "uint64",
          "name": "destinationChainSelector",
          "type": "uint64"
        },
        {
          "internalType": "address",
          "name": "receiver",
          "type": "address"
        }
      ],
      "name": "getSendFees",
      "outputs": [
        {
          "internalType": "uint256",
          "name": "fees",
          "type": "uint256"
        },
        {
          "components": [
            {
              "internalType": "bytes",
              "name": "receiver",
              "type": "bytes"
            },
            {
              "internalType": "bytes",
              "name": "data",
              "type": "bytes"
            },
            {
              "components": [
                {
                  "internalType": "address",
                  "name": "token",
                  "type": "address"
                },
                {
                  "internalType": "uint256",
                  "name": "amount",
                  "type": "uint256"
                }
              ],
              "internalType": "struct Client.EVMTokenAmount[]",
              "name": "tokenAmounts",
              "type": "tuple[]"
            },
            {
              "internalType": "address",
              "name": "feeToken",
              "type": "address"
            },
            {
              "internalType": "bytes",
              "name": "extraArgs",
              "type": "bytes"
            }
          ],
          "internalType": "struct Client.EVM2AnyMessage",
          "name": "message",
          "type": "tuple"
        }
      ],
      "stateMutability": "view",
      "type": "function"
    },
    {
      "inputs": [
        {
          "internalType": "uint64",
          "name": "destChainSelector",
          "type": "uint64"
        }
      ],
      "name": "isChainSupported",
      "outputs": [
        {
          "internalType": "bool",
          "name": "supported",
          "type": "bool"
        }
      ],
      "stateMutability": "view",
      "type": "function"
    },
    {
      "inputs": [
        {
          "internalType": "bytes32",
          "name": "",
          "type": "bytes32"
        }
      ],
      "name": "messageDetail",
      "outputs": [
        {
          "internalType": "uint64",
          "name": "sourceChainSelector",
          "type": "uint64"
        },
        {
          "internalType": "address",
          "name": "sender",
          "type": "address"
        },
        {
          "internalType": "address",
          "name": "borrower",
          "type": "address"
        },
        {
          "internalType": "address",
          "name": "token",
          "type": "address"
        },
        {
          "internalType": "uint256",
          "name": "amount",
          "type": "uint256"
        }
      ],
      "stateMutability": "view",
      "type": "function"
    },
    {
      "inputs": [],
      "name": "owner",
      "outputs": [
        {
          "internalType": "address",
          "name": "",
          "type": "address"
        }
      ],
      "stateMutability": "view",
      "type": "function"
    },
    {
      "inputs": [
        {
          "internalType": "uint256",
          "name": "",
          "type": "uint256"
        }
      ],
      "name": "receivedMessages",
      "outputs": [
        {
          "internalType": "bytes32",
          "name": "",
          "type": "bytes32"
        }
      ],
      "stateMutability": "view",
      "type": "function"
    },
    {
      "inputs": [
        {
          "internalType": "uint64",
          "name": "destinationChainSelector",
          "type": "uint64"
        },
        {
          "internalType": "address",
          "name": "receiver",
          "type": "address"
        },
        {
          "internalType": "address",
          "name": "tokenToTransfer",
          "type": "address"
        },
        {
          "internalType": "uint256",
          "name": "transferAmount",
          "type": "uint256"
        }
      ],
      "name": "sendMessage",
      "outputs": [
        {
          "internalType": "bytes32",
          "name": "messageId",
          "type": "bytes32"
        }
      ],
      "stateMutability": "nonpayable",
      "type": "function"
    },
    {
      "inputs": [
        {
          "internalType": "bytes4",
          "name": "interfaceId",
          "type": "bytes4"
        }
      ],
      "name": "supportsInterface",
      "outputs": [
        {
          "internalType": "bool",
          "name": "",
          "type": "bool"
        }
      ],
      "stateMutability": "pure",
      "type": "function"
    },
    {
      "inputs": [
        {
          "internalType": "address",
          "name": "to",
          "type": "address"
        }
      ],
      "name": "transferOwnership",
      "outputs": [],
      "stateMutability": "nonpayable",
      "type": "function"
    },
    {
      "inputs": [],
      "name": "withdraw",
      "outputs": [],
      "stateMutability": "nonpayable",
      "type": "function"
    },
    {
      "inputs": [
        {
          "internalType": "address",
          "name": "token",
          "type": "address"
        }
      ],
      "name": "withdrawToken",
      "outputs": [],
      "stateMutability": "nonpayable",
      "type": "function"
    },
    {
      "stateMutability": "payable",
      "type": "receive"
    }
  ],
  "bytecode": "0x60a06040523480156200001157600080fd5b5060405162002f9838038062002f988339818101604052810190620000379190620003c4565b3380600084600073ffffffffffffffffffffffffffffffffffffffff168173ffffffffffffffffffffffffffffffffffffffff1603620000b15760006040517fd7f73334000000000000000000000000000000000000000000000000000000008152600401620000a891906200041c565b60405180910390fd5b8073ffffffffffffffffffffffffffffffffffffffff1660808173ffffffffffffffffffffffffffffffffffffffff168152505050600073ffffffffffffffffffffffffffffffffffffffff168273ffffffffffffffffffffffffffffffffffffffff160362000158576040517f08c379a00000000000000000000000000000000000000000000000000000000081526004016200014f906200049a565b60405180910390fd5b816000806101000a81548173ffffffffffffffffffffffffffffffffffffffff021916908373ffffffffffffffffffffffffffffffffffffffff160217905550600073ffffffffffffffffffffffffffffffffffffffff168173ffffffffffffffffffffffffffffffffffffffff1614620001df57620001de816200022b60201b60201c565b5b50505080600560006101000a81548173ffffffffffffffffffffffffffffffffffffffff021916908373ffffffffffffffffffffffffffffffffffffffff16021790555050506200052e565b3373ffffffffffffffffffffffffffffffffffffffff168173ffffffffffffffffffffffffffffffffffffffff16036200029c576040517f08c379a000000000000000000000000000000000000000000000000000000000815260040162000293906200050c565b60405180910390fd5b80600160006101000a81548173ffffffffffffffffffffffffffffffffffffffff021916908373ffffffffffffffffffffffffffffffffffffffff1602179055508073ffffffffffffffffffffffffffffffffffffffff1660008054906101000a900473ffffffffffffffffffffffffffffffffffffffff1673ffffffffffffffffffffffffffffffffffffffff167fed8889f560326eb138920d842192f0eb3dd22b4f139c87a2c57538e05bae127860405160405180910390a350565b600080fd5b600073ffffffffffffffffffffffffffffffffffffffff82169050919050565b60006200038c826200035f565b9050919050565b6200039e816200037f565b8114620003aa57600080fd5b50565b600081519050620003be8162000393565b92915050565b60008060408385031215620003de57620003dd6200035a565b5b6000620003ee85828601620003ad565b92505060206200040185828601620003ad565b9150509250929050565b62000416816200037f565b82525050565b60006020820190506200043360008301846200040b565b92915050565b600082825260208201905092915050565b7f43616e6e6f7420736574206f776e657220746f207a65726f0000000000000000600082015250565b60006200048260188362000439565b91506200048f826200044a565b602082019050919050565b60006020820190508181036000830152620004b58162000473565b9050919050565b7f43616e6e6f74207472616e7366657220746f2073656c66000000000000000000600082015250565b6000620004f460178362000439565b91506200050182620004bc565b602082019050919050565b600060208201905081810360008301526200052781620004e5565b9050919050565b608051612a476200055160003960008181610f9d01526113110152612a476000f3fe6080604052600436106101025760003560e01c80638947606911610095578063b0f479a111610064578063b0f479a11461034a578063d030366c14610375578063d0e30db0146103b2578063f2fde38b146103bc578063fc7e286d146103e557610109565b806389476069146102785780638da5cb5b146102a15780639c3ddb2e146102cc578063a48a90581461030d57610109565b80637228ea74116100d15780637228ea74146101bd57806379ba5097146101fb5780637e2038e51461021257806385572ffb1461024f57610109565b806301ffc9a71461010e5780630b652d6d1461014b578063263596a5146101765780633ccfd60b146101a657610109565b3661010957005b600080fd5b34801561011a57600080fd5b5061013560048036038101906101309190611aa0565b610423565b6040516101429190611ae8565b60405180910390f35b34801561015757600080fd5b506101606104f5565b60405161016d9190611b1c565b60405180910390f35b34801561018257600080fd5b5061018b610502565b60405161019d96959493929190611bb4565b60405180910390f35b3480156101b257600080fd5b506101bb61070b565b005b3480156101c957600080fd5b506101e460048036038101906101df9190611c6d565b6107cc565b6040516101f2929190611ec4565b60405180910390f35b34801561020757600080fd5b506102106109b4565b005b34801561021e57600080fd5b5061023960048036038101906102349190611f20565b610b49565b6040516102469190611f87565b60405180910390f35b34801561025b57600080fd5b5061027660048036038101906102719190611fc6565b610f9b565b005b34801561028457600080fd5b5061029f600480360381019061029a919061200f565b611040565b005b3480156102ad57600080fd5b506102b6611149565b6040516102c3919061203c565b60405180910390f35b3480156102d857600080fd5b506102f360048036038101906102ee9190612083565b611172565b6040516103049594939291906120b0565b60405180910390f35b34801561031957600080fd5b50610334600480360381019061032f9190612103565b61121c565b6040516103419190611ae8565b60405180910390f35b34801561035657600080fd5b5061035f61130d565b60405161036c919061203c565b60405180910390f35b34801561038157600080fd5b5061039c60048036038101906103979190612130565b611335565b6040516103a99190611f87565b60405180910390f35b6103ba611359565b005b3480156103c857600080fd5b506103e360048036038101906103de919061200f565b611365565b005b3480156103f157600080fd5b5061040c6004803603810190610407919061200f565b611379565b60405161041a92919061215d565b60405180910390f35b60007f85572ffb000000000000000000000000000000000000000000000000000000007bffffffffffffffffffffffffffffffffffffffffffffffffffffffff1916827bffffffffffffffffffffffffffffffffffffffffffffffffffffffff191614806104ee57507f01ffc9a7000000000000000000000000000000000000000000000000000000007bffffffffffffffffffffffffffffffffffffffffffffffffffffffff1916827bffffffffffffffffffffffffffffffffffffffffffffffffffffffff1916145b9050919050565b6000600280549050905090565b60008060008060008060006002805490500361054a576040517f6ad69dd500000000000000000000000000000000000000000000000000000000815260040160405180910390fd5b6002600160028054905061055e91906121b5565b8154811061056f5761056e6121e9565b5b906000526020600020015495506000600360008881526020019081526020016000206040518060a00160405290816000820160009054906101000a900467ffffffffffffffff1667ffffffffffffffff1667ffffffffffffffff1681526020016000820160089054906101000a900473ffffffffffffffffffffffffffffffffffffffff1673ffffffffffffffffffffffffffffffffffffffff1673ffffffffffffffffffffffffffffffffffffffff1681526020016001820160009054906101000a900473ffffffffffffffffffffffffffffffffffffffff1673ffffffffffffffffffffffffffffffffffffffff1673ffffffffffffffffffffffffffffffffffffffff1681526020016002820160009054906101000a900473ffffffffffffffffffffffffffffffffffffffff1673ffffffffffffffffffffffffffffffffffffffff1673ffffffffffffffffffffffffffffffffffffffff1681526020016003820154815250509050868160000151826020015183604001518460600151856080015196509650965096509650965050909192939495565b6107136113aa565b600047905060003373ffffffffffffffffffffffffffffffffffffffff168260405161073e90612249565b60006040518083038185875af1925050503d806000811461077b576040519150601f19603f3d011682016040523d82523d6000602084013e610780565b606091505b50509050806107c85733826040517f0cd900370000000000000000000000000000000000000000000000000000000081526004016107bf92919061225e565b60405180910390fd5b5050565b60006107d66119bf565b6040518060a00160405280846040516020016107f2919061203c565b604051602081830303815290604052815260200133604051602001610817919061203c565b6040516020818303038152906040528152602001600067ffffffffffffffff81111561084657610845612287565b5b60405190808252806020026020018201604052801561087f57816020015b61086c611a04565b8152602001906001900390816108645790505b508152602001600073ffffffffffffffffffffffffffffffffffffffff1681526020016108bc604051806020016040528062030d4081525061143a565b81525090503073ffffffffffffffffffffffffffffffffffffffff1663b0f479a16040518163ffffffff1660e01b8152600401602060405180830381865afa15801561090c573d6000803e3d6000fd5b505050506040513d601f19601f8201168201806040525081019061093091906122cb565b73ffffffffffffffffffffffffffffffffffffffff166320487ded85836040518363ffffffff1660e01b815260040161096a9291906122f8565b602060405180830381865afa158015610987573d6000803e3d6000fd5b505050506040513d601f19601f820116820180604052508101906109ab919061233d565b91509250929050565b600160009054906101000a900473ffffffffffffffffffffffffffffffffffffffff1673ffffffffffffffffffffffffffffffffffffffff163373ffffffffffffffffffffffffffffffffffffffff1614610a44576040517f08c379a0000000000000000000000000000000000000000000000000000000008152600401610a3b906123c7565b60405180910390fd5b60008060009054906101000a900473ffffffffffffffffffffffffffffffffffffffff169050336000806101000a81548173ffffffffffffffffffffffffffffffffffffffff021916908373ffffffffffffffffffffffffffffffffffffffff1602179055506000600160006101000a81548173ffffffffffffffffffffffffffffffffffffffff021916908373ffffffffffffffffffffffffffffffffffffffff1602179055503373ffffffffffffffffffffffffffffffffffffffff168173ffffffffffffffffffffffffffffffffffffffff167f8be0079c531659141344cd1fd0a4f28419497f9722a3daafe3b4186f6b6457e060405160405180910390a350565b60008060405180604001604052808573ffffffffffffffffffffffffffffffffffffffff1681526020018481525090506000600167ffffffffffffffff811115610b9657610b95612287565b5b604051908082528060200260200182016040528015610bcf57816020015b610bbc611a04565b815260200190600190039081610bb45790505b5090508181600081518110610be757610be66121e9565b5b6020026020010181905250600033604051602001610c05919061203c565b604051602081830303815290604052905060006040518060a0016040528089604051602001610c34919061203c565b6040516020818303038152906040528152602001838152602001848152602001600560009054906101000a900473ffffffffffffffffffffffffffffffffffffffff1673ffffffffffffffffffffffffffffffffffffffff168152602001610cac604051806020016040528062030d4081525061143a565b815250905060003073ffffffffffffffffffffffffffffffffffffffff1663b0f479a16040518163ffffffff1660e01b8152600401602060405180830381865afa158015610cfe573d6000803e3d6000fd5b505050506040513d601f19601f82011682018060405250810190610d2291906122cb565b905060008173ffffffffffffffffffffffffffffffffffffffff166320487ded8c856040518363ffffffff1660e01b8152600401610d619291906122f8565b602060405180830381865afa158015610d7e573d6000803e3d6000fd5b505050506040513d601f19601f82011682018060405250810190610da2919061233d565b9050600560009054906101000a900473ffffffffffffffffffffffffffffffffffffffff1673ffffffffffffffffffffffffffffffffffffffff1663095ea7b383836040518363ffffffff1660e01b8152600401610e0192919061225e565b6020604051808303816000875af1158015610e20573d6000803e3d6000fd5b505050506040513d601f19601f82011682018060405250810190610e449190612413565b508873ffffffffffffffffffffffffffffffffffffffff1663095ea7b3838a6040518363ffffffff1660e01b8152600401610e8092919061225e565b6020604051808303816000875af1158015610e9f573d6000803e3d6000fd5b505050506040513d601f19601f82011682018060405250810190610ec39190612413565b508173ffffffffffffffffffffffffffffffffffffffff166396f4e9f98c856040518363ffffffff1660e01b8152600401610eff9291906122f8565b6020604051808303816000875af1158015610f1e573d6000803e3d6000fd5b505050506040513d601f19601f82011682018060405250810190610f429190612455565b96508a67ffffffffffffffff16877f2203b02ed2b5012803d6fecd082627e1cf6906cbfc26b50528c0c8bdc3a326468c338a86604051610f8594939291906124b1565b60405180910390a3505050505050949350505050565b7f000000000000000000000000000000000000000000000000000000000000000073ffffffffffffffffffffffffffffffffffffffff163373ffffffffffffffffffffffffffffffffffffffff161461102b57336040517fd7f73334000000000000000000000000000000000000000000000000000000008152600401611022919061203c565b60405180910390fd5b61103d81611038906127fe565b6114b9565b50565b6110486113aa565b60008173ffffffffffffffffffffffffffffffffffffffff166370a08231306040518263ffffffff1660e01b8152600401611083919061203c565b602060405180830381865afa1580156110a0573d6000803e3d6000fd5b505050506040513d601f19601f820116820180604052508101906110c4919061233d565b90508173ffffffffffffffffffffffffffffffffffffffff1663a9059cbb33836040518363ffffffff1660e01b815260040161110192919061225e565b6020604051808303816000875af1158015611120573d6000803e3d6000fd5b505050506040513d601f19601f820116820180604052508101906111449190612413565b505050565b60008060009054906101000a900473ffffffffffffffffffffffffffffffffffffffff16905090565b60036020528060005260406000206000915090508060000160009054906101000a900467ffffffffffffffff16908060000160089054906101000a900473ffffffffffffffffffffffffffffffffffffffff16908060010160009054906101000a900473ffffffffffffffffffffffffffffffffffffffff16908060020160009054906101000a900473ffffffffffffffffffffffffffffffffffffffff16908060030154905085565b60003073ffffffffffffffffffffffffffffffffffffffff1663b0f479a16040518163ffffffff1660e01b8152600401602060405180830381865afa158015611269573d6000803e3d6000fd5b505050506040513d601f19601f8201168201806040525081019061128d91906122cb565b73ffffffffffffffffffffffffffffffffffffffff1663a48a9058836040518263ffffffff1660e01b81526004016112c59190612811565b602060405180830381865afa1580156112e2573d6000803e3d6000fd5b505050506040513d601f19601f820116820180604052508101906113069190612413565b9050919050565b60007f0000000000000000000000000000000000000000000000000000000000000000905090565b6002818154811061134557600080fd5b906000526020600020016000915090505481565b6113633334611786565b565b61136d6113aa565b61137681611893565b50565b60046020528060005260406000206000915090508060000154908060010160009054906101000a900460ff16905082565b60008054906101000a900473ffffffffffffffffffffffffffffffffffffffff1673ffffffffffffffffffffffffffffffffffffffff163373ffffffffffffffffffffffffffffffffffffffff1614611438576040517f08c379a000000000000000000000000000000000000000000000000000000000815260040161142f90612878565b60405180910390fd5b565b60606397a657c960e01b8260405160240161145591906128b4565b604051602081830303815290604052907bffffffffffffffffffffffffffffffffffffffffffffffffffffffff19166020820180517bffffffffffffffffffffffffffffffffffffffffffffffffffffffff83818316178352505050509050919050565b600081600001519050600082602001519050600083604001518060200190518101906114e5919061290d565b905060008460600151806020019051810190611501919061290d565b9050600085608001519050600081600081518110611522576115216121e9565b5b6020026020010151600001519050600082600081518110611546576115456121e9565b5b6020026020010151602001519050600287908060018154018082558091505060019003906000526020600020016000909190919091505560006040518060a001604052808867ffffffffffffffff1681526020018773ffffffffffffffffffffffffffffffffffffffff1681526020018673ffffffffffffffffffffffffffffffffffffffff1681526020018473ffffffffffffffffffffffffffffffffffffffff16815260200183815250905080600360008a815260200190815260200160002060008201518160000160006101000a81548167ffffffffffffffff021916908367ffffffffffffffff16021790555060208201518160000160086101000a81548173ffffffffffffffffffffffffffffffffffffffff021916908373ffffffffffffffffffffffffffffffffffffffff16021790555060408201518160010160006101000a81548173ffffffffffffffffffffffffffffffffffffffff021916908373ffffffffffffffffffffffffffffffffffffffff16021790555060608201518160020160006101000a81548173ffffffffffffffffffffffffffffffffffffffff021916908373ffffffffffffffffffffffffffffffffffffffff160217905550608082015181600301559050508667ffffffffffffffff16887fb8387be1e3a7f6676cc5eb93b06b8912fd99545cd542e6296b2db1d0fd82cacd88888860008151811061175c5761175b6121e9565b5b60200260200101516040516117739392919061293a565b60405180910390a3505050505050505050565b80600460008473ffffffffffffffffffffffffffffffffffffffff1673ffffffffffffffffffffffffffffffffffffffff16815260200190815260200160002060000160008282546117d89190612971565b92505081905550600460008373ffffffffffffffffffffffffffffffffffffffff1673ffffffffffffffffffffffffffffffffffffffff16815260200190815260200160002060010160009054906101000a900460ff1661188f576001600460008473ffffffffffffffffffffffffffffffffffffffff1673ffffffffffffffffffffffffffffffffffffffff16815260200190815260200160002060010160006101000a81548160ff0219169083151502179055505b5050565b3373ffffffffffffffffffffffffffffffffffffffff168173ffffffffffffffffffffffffffffffffffffffff1603611901576040517f08c379a00000000000000000000000000000000000000000000000000000000081526004016118f8906129f1565b60405180910390fd5b80600160006101000a81548173ffffffffffffffffffffffffffffffffffffffff021916908373ffffffffffffffffffffffffffffffffffffffff1602179055508073ffffffffffffffffffffffffffffffffffffffff1660008054906101000a900473ffffffffffffffffffffffffffffffffffffffff1673ffffffffffffffffffffffffffffffffffffffff167fed8889f560326eb138920d842192f0eb3dd22b4f139c87a2c57538e05bae127860405160405180910390a350565b6040518060a00160405280606081526020016060815260200160608152602001600073ffffffffffffffffffffffffffffffffffffffff168152602001606081525090565b6040518060400160405280600073ffffffffffffffffffffffffffffffffffffffff168152602001600081525090565b6000604051905090565b600080fd5b600080fd5b60007fffffffff0000000000000000000000000000000000000000000000000000000082169050919050565b611a7d81611a48565b8114611a8857600080fd5b50565b600081359050611a9a81611a74565b92915050565b600060208284031215611ab657611ab5611a3e565b5b6000611ac484828501611a8b565b91505092915050565b60008115159050919050565b611ae281611acd565b82525050565b6000602082019050611afd6000830184611ad9565b92915050565b6000819050919050565b611b1681611b03565b82525050565b6000602082019050611b316000830184611b0d565b92915050565b6000819050919050565b611b4a81611b37565b82525050565b600067ffffffffffffffff82169050919050565b611b6d81611b50565b82525050565b600073ffffffffffffffffffffffffffffffffffffffff82169050919050565b6000611b9e82611b73565b9050919050565b611bae81611b93565b82525050565b600060c082019050611bc96000830189611b41565b611bd66020830188611b64565b611be36040830187611ba5565b611bf06060830186611ba5565b611bfd6080830185611ba5565b611c0a60a0830184611b0d565b979650505050505050565b611c1e81611b50565b8114611c2957600080fd5b50565b600081359050611c3b81611c15565b92915050565b611c4a81611b93565b8114611c5557600080fd5b50565b600081359050611c6781611c41565b92915050565b60008060408385031215611c8457611c83611a3e565b5b6000611c9285828601611c2c565b9250506020611ca385828601611c58565b9150509250929050565b600081519050919050565b600082825260208201905092915050565b60005b83811015611ce7578082015181840152602081019050611ccc565b60008484015250505050565b6000601f19601f8301169050919050565b6000611d0f82611cad565b611d198185611cb8565b9350611d29818560208601611cc9565b611d3281611cf3565b840191505092915050565b600081519050919050565b600082825260208201905092915050565b6000819050602082019050919050565b611d7281611b93565b82525050565b611d8181611b03565b82525050565b604082016000820151611d9d6000850182611d69565b506020820151611db06020850182611d78565b50505050565b6000611dc28383611d87565b60408301905092915050565b6000602082019050919050565b6000611de682611d3d565b611df08185611d48565b9350611dfb83611d59565b8060005b83811015611e2c578151611e138882611db6565b9750611e1e83611dce565b925050600181019050611dff565b5085935050505092915050565b600060a0830160008301518482036000860152611e568282611d04565b91505060208301518482036020860152611e708282611d04565b91505060408301518482036040860152611e8a8282611ddb565b9150506060830151611e9f6060860182611d69565b5060808301518482036080860152611eb78282611d04565b9150508091505092915050565b6000604082019050611ed96000830185611b0d565b8181036020830152611eeb8184611e39565b90509392505050565b611efd81611b03565b8114611f0857600080fd5b50565b600081359050611f1a81611ef4565b92915050565b60008060008060808587031215611f3a57611f39611a3e565b5b6000611f4887828801611c2c565b9450506020611f5987828801611c58565b9350506040611f6a87828801611c58565b9250506060611f7b87828801611f0b565b91505092959194509250565b6000602082019050611f9c6000830184611b41565b92915050565b600080fd5b600060a08284031215611fbd57611fbc611fa2565b5b81905092915050565b600060208284031215611fdc57611fdb611a3e565b5b600082013567ffffffffffffffff811115611ffa57611ff9611a43565b5b61200684828501611fa7565b91505092915050565b60006020828403121561202557612024611a3e565b5b600061203384828501611c58565b91505092915050565b60006020820190506120516000830184611ba5565b92915050565b61206081611b37565b811461206b57600080fd5b50565b60008135905061207d81612057565b92915050565b60006020828403121561209957612098611a3e565b5b60006120a78482850161206e565b91505092915050565b600060a0820190506120c56000830188611b64565b6120d26020830187611ba5565b6120df6040830186611ba5565b6120ec6060830185611ba5565b6120f96080830184611b0d565b9695505050505050565b60006020828403121561211957612118611a3e565b5b600061212784828501611c2c565b91505092915050565b60006020828403121561214657612145611a3e565b5b600061215484828501611f0b565b91505092915050565b60006040820190506121726000830185611b0d565b61217f6020830184611ad9565b9392505050565b7f4e487b7100000000000000000000000000000000000000000000000000000000600052601160045260246000fd5b60006121c082611b03565b91506121cb83611b03565b92508282039050818111156121e3576121e2612186565b5b92915050565b7f4e487b7100000000000000000000000000000000000000000000000000000000600052603260045260246000fd5b600081905092915050565b50565b6000612233600083612218565b915061223e82612223565b600082019050919050565b600061225482612226565b9150819050919050565b60006040820190506122736000830185611ba5565b6122806020830184611b0d565b9392505050565b7f4e487b7100000000000000000000000000000000000000000000000000000000600052604160045260246000fd5b6000815190506122c581611c41565b92915050565b6000602082840312156122e1576122e0611a3e565b5b60006122ef848285016122b6565b91505092915050565b600060408201905061230d6000830185611b64565b818103602083015261231f8184611e39565b90509392505050565b60008151905061233781611ef4565b92915050565b60006020828403121561235357612352611a3e565b5b600061236184828501612328565b91505092915050565b600082825260208201905092915050565b7f4d7573742062652070726f706f736564206f776e657200000000000000000000600082015250565b60006123b160168361236a565b91506123bc8261237b565b602082019050919050565b600060208201905081810360008301526123e0816123a4565b9050919050565b6123f081611acd565b81146123fb57600080fd5b50565b60008151905061240d816123e7565b92915050565b60006020828403121561242957612428611a3e565b5b6000612437848285016123fe565b91505092915050565b60008151905061244f81612057565b92915050565b60006020828403121561246b5761246a611a3e565b5b600061247984828501612440565b91505092915050565b6040820160008201516124986000850182611d69565b5060208201516124ab6020850182611d78565b50505050565b600060a0820190506124c66000830187611ba5565b6124d36020830186611ba5565b6124e06040830185612482565b6124ed6080830184611b0d565b95945050505050565b600080fd5b61250482611cf3565b810181811067ffffffffffffffff8211171561252357612522612287565b5b80604052505050565b6000612536611a34565b905061254282826124fb565b919050565b600080fd5b600080fd5b600080fd5b600067ffffffffffffffff82111561257157612570612287565b5b61257a82611cf3565b9050602081019050919050565b82818337600083830152505050565b60006125a96125a484612556565b61252c565b9050828152602081018484840111156125c5576125c4612551565b5b6125d0848285612587565b509392505050565b600082601f8301126125ed576125ec61254c565b5b81356125fd848260208601612596565b91505092915050565b600067ffffffffffffffff82111561262157612620612287565b5b602082029050602081019050919050565b600080fd5b60006040828403121561264d5761264c6124f6565b5b612657604061252c565b9050600061266784828501611c58565b600083015250602061267b84828501611f0b565b60208301525092915050565b600061269a61269584612606565b61252c565b905080838252602082019050604084028301858111156126bd576126bc612632565b5b835b818110156126e657806126d28882612637565b8452602084019350506040810190506126bf565b5050509392505050565b600082601f8301126127055761270461254c565b5b8135612715848260208601612687565b91505092915050565b600060a08284031215612734576127336124f6565b5b61273e60a061252c565b9050600061274e8482850161206e565b600083015250602061276284828501611c2c565b602083015250604082013567ffffffffffffffff81111561278657612785612547565b5b612792848285016125d8565b604083015250606082013567ffffffffffffffff8111156127b6576127b5612547565b5b6127c2848285016125d8565b606083015250608082013567ffffffffffffffff8111156127e6576127e5612547565b5b6127f2848285016126f0565b60808301525092915050565b600061280a368361271e565b9050919050565b60006020820190506128266000830184611b64565b92915050565b7f4f6e6c792063616c6c61626c65206279206f776e657200000000000000000000600082015250565b600061286260168361236a565b915061286d8261282c565b602082019050919050565b6000602082019050818103600083015261289181612855565b9050919050565b6020820160008201516128ae6000850182611d78565b50505050565b60006020820190506128c96000830184612898565b92915050565b60006128da82611b73565b9050919050565b6128ea816128cf565b81146128f557600080fd5b50565b600081519050612907816128e1565b92915050565b60006020828403121561292357612922611a3e565b5b6000612931848285016128f8565b91505092915050565b600060808201905061294f6000830186611ba5565b61295c6020830185611ba5565b6129696040830184612482565b949350505050565b600061297c82611b03565b915061298783611b03565b925082820190508082111561299f5761299e612186565b5b92915050565b7f43616e6e6f74207472616e7366657220746f2073656c66000000000000000000600082015250565b60006129db60178361236a565b91506129e6826129a5565b602082019050919050565b60006020820190508181036000830152612a0a816129ce565b905091905056fea26469706673582212204b70cdc52baa27bee25b4e2068eb3fbd31e45a37366ee4b0e7c3f34efb175ffd64736f6c63430008140033",
  "linkReferences": {},
  "deployedLinkReferences": {}
}