{
  "_format": "hh-sol-artifact-1",
  "contractName": "LendingBorrowingContract",
  "sourceName": "contracts/PolygonLending.sol",
  "abi": [
    {
      "inputs": [
        {
          "internalType": "address",
          "name": "_borrowTokenAddress",
          "type": "address"
        },
        {
          "internalType": "uint256",
          "name": "_collateralRate",
          "type": "uint256"
        },
        {
          "internalType": "uint256",
          "name": "_interestRate",
          "type": "uint256"
        }
      ],
      "stateMutability": "nonpayable",
      "type": "constructor"
    },
    {
      "anonymous": false,
      "inputs": [
        {
          "indexed": true,
          "internalType": "address",
          "name": "borrower",
          "type": "address"
        },
        {
          "indexed": false,
          "internalType": "uint256",
          "name": "amount",
          "type": "uint256"
        }
      ],
      "name": "BorrowTokens",
      "type": "event"
    },
    {
      "anonymous": false,
      "inputs": [
        {
          "indexed": true,
          "internalType": "address",
          "name": "borrower",
          "type": "address"
        },
        {
          "indexed": false,
          "internalType": "uint256",
          "name": "amount",
          "type": "uint256"
        }
      ],
      "name": "DepositCollateral",
      "type": "event"
    },
    {
      "anonymous": false,
      "inputs": [
        {
          "indexed": true,
          "internalType": "address",
          "name": "borrower",
          "type": "address"
        },
        {
          "indexed": false,
          "internalType": "uint256",
          "name": "amount",
          "type": "uint256"
        }
      ],
      "name": "RepayLoan",
      "type": "event"
    },
    {
      "anonymous": false,
      "inputs": [
        {
          "indexed": true,
          "internalType": "address",
          "name": "borrower",
          "type": "address"
        },
        {
          "indexed": false,
          "internalType": "uint256",
          "name": "amount",
          "type": "uint256"
        }
      ],
      "name": "WithdrawCollateral",
      "type": "event"
    },
    {
      "inputs": [],
      "name": "borrowToken",
      "outputs": [
        {
          "internalType": "contract IERC20",
          "name": "",
          "type": "address"
        }
      ],
      "stateMutability": "view",
      "type": "function"
    },
    {
      "inputs": [
        {
          "internalType": "uint256",
          "name": "amount",
          "type": "uint256"
        }
      ],
      "name": "borrowTokens",
      "outputs": [],
      "stateMutability": "nonpayable",
      "type": "function"
    },
    {
      "inputs": [
        {
          "internalType": "address",
          "name": "",
          "type": "address"
        }
      ],
      "name": "borrowers",
      "outputs": [
        {
          "internalType": "uint256",
          "name": "collateralDeposited",
          "type": "uint256"
        },
        {
          "internalType": "uint256",
          "name": "tokensBorrowed",
          "type": "uint256"
        },
        {
          "internalType": "uint256",
          "name": "interestOwed",
          "type": "uint256"
        }
      ],
      "stateMutability": "view",
      "type": "function"
    },
    {
      "inputs": [],
      "name": "collateralRate",
      "outputs": [
        {
          "internalType": "uint256",
          "name": "",
          "type": "uint256"
        }
      ],
      "stateMutability": "view",
      "type": "function"
    },
    {
      "inputs": [],
      "name": "depositCollateral",
      "outputs": [],
      "stateMutability": "payable",
      "type": "function"
    },
    {
      "inputs": [
        {
          "internalType": "address",
          "name": "borrower",
          "type": "address"
        }
      ],
      "name": "getBorrowerBalance",
      "outputs": [
        {
          "internalType": "uint256",
          "name": "",
          "type": "uint256"
        }
      ],
      "stateMutability": "view",
      "type": "function"
    },
    {
      "inputs": [],
      "name": "getLatestLinkPrice",
      "outputs": [
        {
          "internalType": "int256",
          "name": "",
          "type": "int256"
        }
      ],
      "stateMutability": "view",
      "type": "function"
    },
    {
      "inputs": [],
      "name": "getLatestMaticPrice",
      "outputs": [
        {
          "internalType": "int256",
          "name": "",
          "type": "int256"
        }
      ],
      "stateMutability": "view",
      "type": "function"
    },
    {
      "inputs": [
        {
          "internalType": "address",
          "name": "borrower",
          "type": "address"
        }
      ],
      "name": "getMaxBorrowable",
      "outputs": [
        {
          "internalType": "uint256",
          "name": "",
          "type": "uint256"
        }
      ],
      "stateMutability": "view",
      "type": "function"
    },
    {
      "inputs": [
        {
          "internalType": "address",
          "name": "borrower",
          "type": "address"
        }
      ],
      "name": "getMaxWithdrawal",
      "outputs": [
        {
          "internalType": "uint256",
          "name": "",
          "type": "uint256"
        }
      ],
      "stateMutability": "view",
      "type": "function"
    },
    {
      "inputs": [],
      "name": "interestRate",
      "outputs": [
        {
          "internalType": "uint256",
          "name": "",
          "type": "uint256"
        }
      ],
      "stateMutability": "view",
      "type": "function"
    },
    {
      "inputs": [
        {
          "internalType": "uint256",
          "name": "amount",
          "type": "uint256"
        }
      ],
      "name": "repayLoan",
      "outputs": [],
      "stateMutability": "nonpayable",
      "type": "function"
    },
    {
      "inputs": [
        {
          "internalType": "uint256",
          "name": "amount",
          "type": "uint256"
        }
      ],
      "name": "withdrawCollateral",
      "outputs": [],
      "stateMutability": "nonpayable",
      "type": "function"
    }
  ],
  "bytecode": "0x60806040523480156200001157600080fd5b5060405162001b8f38038062001b8f8339818101604052810190620000379190620001dd565b826000806101000a81548173ffffffffffffffffffffffffffffffffffffffff021916908373ffffffffffffffffffffffffffffffffffffffff1602179055508160038190555080600481905550731c2252aeed50e0c9b64bdff2735ee3c932f5c408600260006101000a81548173ffffffffffffffffffffffffffffffffffffffff021916908373ffffffffffffffffffffffffffffffffffffffff16021790555073d0d5e3db44de05e9f294bb0a3beeaf030de24ada600160006101000a81548173ffffffffffffffffffffffffffffffffffffffff021916908373ffffffffffffffffffffffffffffffffffffffff16021790555050505062000239565b600080fd5b600073ffffffffffffffffffffffffffffffffffffffff82169050919050565b60006200016a826200013d565b9050919050565b6200017c816200015d565b81146200018857600080fd5b50565b6000815190506200019c8162000171565b92915050565b6000819050919050565b620001b781620001a2565b8114620001c357600080fd5b50565b600081519050620001d781620001ac565b92915050565b600080600060608486031215620001f957620001f862000138565b5b600062000209868287016200018b565b93505060206200021c86828701620001c6565b92505060406200022f86828701620001c6565b9150509250925092565b61194680620002496000396000f3fe6080604052600436106100c25760003560e01c80637e15b0b21161007f578063ab7b1c8911610059578063ab7b1c891461024b578063bf5d50c414610274578063c7286678146102b3578063e4393e92146102dc576100c2565b80637e15b0b2146101a657806395ec2c8a146101e3578063987c23e714610220576100c2565b8063456dc17a146100c757806358a6be1c146100f25780636112fe2e1461011d5780636f75814014610146578063759a6ab2146101505780637c3a00fd1461017b575b600080fd5b3480156100d357600080fd5b506100dc610319565b6040516100e99190611039565b60405180910390f35b3480156100fe57600080fd5b5061010761033d565b604051610114919061106d565b60405180910390f35b34801561012957600080fd5b50610144600480360381019061013f91906110b9565b610343565b005b61014e610570565b005b34801561015c57600080fd5b5061016561065c565b60405161017291906110ff565b60405180910390f35b34801561018757600080fd5b5061019061074e565b60405161019d919061106d565b60405180910390f35b3480156101b257600080fd5b506101cd60048036038101906101c89190611158565b610754565b6040516101da919061106d565b60405180910390f35b3480156101ef57600080fd5b5061020a60048036038101906102059190611158565b6107a0565b604051610217919061106d565b60405180910390f35b34801561022c57600080fd5b5061023561082b565b60405161024291906110ff565b60405180910390f35b34801561025757600080fd5b50610272600480360381019061026d91906110b9565b61091d565b005b34801561028057600080fd5b5061029b60048036038101906102969190611158565b610b93565b6040516102aa93929190611185565b60405180910390f35b3480156102bf57600080fd5b506102da60048036038101906102d591906110b9565b610bbd565b005b3480156102e857600080fd5b5061030360048036038101906102fe9190611158565b610e4a565b604051610310919061106d565b60405180910390f35b60008054906101000a900473ffffffffffffffffffffffffffffffffffffffff1681565b60035481565b600560003373ffffffffffffffffffffffffffffffffffffffff1673ffffffffffffffffffffffffffffffffffffffff168152602001908152602001600020600001548111156103c8576040517f08c379a00000000000000000000000000000000000000000000000000000000081526004016103bf90611219565b60405180910390fd5b60006103d333610e4a565b905080821115610418576040517f08c379a000000000000000000000000000000000000000000000000000000000815260040161040f906112ab565b60405180910390fd5b81600560003373ffffffffffffffffffffffffffffffffffffffff1673ffffffffffffffffffffffffffffffffffffffff168152602001908152602001600020600001600082825461046a91906112fa565b9250508190555060003373ffffffffffffffffffffffffffffffffffffffff16836040516104979061135f565b60006040518083038185875af1925050503d80600081146104d4576040519150601f19603f3d011682016040523d82523d6000602084013e6104d9565b606091505b505090508061051d576040517f08c379a0000000000000000000000000000000000000000000000000000000008152600401610514906113c0565b60405180910390fd5b3373ffffffffffffffffffffffffffffffffffffffff167fa8e76b822fc682be77f3b1c822ea81f6bda5aed92ba82e6873bfd889f328d1d284604051610563919061106d565b60405180910390a2505050565b600034116105b3576040517f08c379a00000000000000000000000000000000000000000000000000000000081526004016105aa9061142c565b60405180910390fd5b34600560003373ffffffffffffffffffffffffffffffffffffffff1673ffffffffffffffffffffffffffffffffffffffff1681526020019081526020016000206000016000828254610605919061144c565b925050819055503373ffffffffffffffffffffffffffffffffffffffff167f8c66c9368f6312eb21bf56acbd3a20448f7d1589d024c30482c3d0a33125523e34604051610652919061106d565b60405180910390a2565b600080600080600080600260009054906101000a900473ffffffffffffffffffffffffffffffffffffffff1673ffffffffffffffffffffffffffffffffffffffff1663feaf968c6040518163ffffffff1660e01b815260040160a060405180830381865afa1580156106d2573d6000803e3d6000fd5b505050506040513d601f19601f820116820180604052508101906106f69190611503565b9450945094509450945060008211610743576040517f08c379a000000000000000000000000000000000000000000000000000000000815260040161073a906115ca565b60405180910390fd5b839550505050505090565b60045481565b6000600560008373ffffffffffffffffffffffffffffffffffffffff1673ffffffffffffffffffffffffffffffffffffffff168152602001908152602001600020600101549050919050565b6000806305f5e1006107b061082b565b600560008673ffffffffffffffffffffffffffffffffffffffff1673ffffffffffffffffffffffffffffffffffffffff168152602001908152602001600020600001546107fd91906115ea565b610807919061165b565b905060646003548261081991906115ea565b610823919061165b565b915050919050565b600080600080600080600160009054906101000a900473ffffffffffffffffffffffffffffffffffffffff1673ffffffffffffffffffffffffffffffffffffffff1663feaf968c6040518163ffffffff1660e01b815260040160a060405180830381865afa1580156108a1573d6000803e3d6000fd5b505050506040513d601f19601f820116820180604052508101906108c59190611503565b9450945094509450945060008211610912576040517f08c379a0000000000000000000000000000000000000000000000000000000008152600401610909906115ca565b60405180910390fd5b839550505050505090565b60008111610960576040517f08c379a00000000000000000000000000000000000000000000000000000000081526004016109579061142c565b60405180910390fd5b6000600560003373ffffffffffffffffffffffffffffffffffffffff1673ffffffffffffffffffffffffffffffffffffffff16815260200190815260200160002090506000816002015482600101546109b9919061144c565b9050808311156109fe576040517f08c379a00000000000000000000000000000000000000000000000000000000081526004016109f5906116d8565b60405180910390fd5b81600201548310610a4557816002015483610a1991906112fa565b92506000826002018190555082826001016000828254610a3991906112fa565b92505081905550610a61565b82826002016000828254610a5991906112fa565b925050819055505b60008054906101000a900473ffffffffffffffffffffffffffffffffffffffff1673ffffffffffffffffffffffffffffffffffffffff166323b872dd3330866040518463ffffffff1660e01b8152600401610abe93929190611707565b6020604051808303816000875af1158015610add573d6000803e3d6000fd5b505050506040513d601f19601f82011682018060405250810190610b019190611776565b610b40576040517f08c379a0000000000000000000000000000000000000000000000000000000008152600401610b37906117ef565b60405180910390fd5b3373ffffffffffffffffffffffffffffffffffffffff167fe228353b4f08fee02276a1e9e2cddfa948f9fa59f87f7e24c18ad1b420d7966a84604051610b86919061106d565b60405180910390a2505050565b60056020528060005260406000206000915090508060000154908060010154908060020154905083565b60008111610c00576040517f08c379a0000000000000000000000000000000000000000000000000000000008152600401610bf79061142c565b60405180910390fd5b6000610c0b336107a0565b905080821115610c50576040517f08c379a0000000000000000000000000000000000000000000000000000000008152600401610c479061185b565b60405180910390fd5b81600560003373ffffffffffffffffffffffffffffffffffffffff1673ffffffffffffffffffffffffffffffffffffffff1681526020019081526020016000206001016000828254610ca2919061144c565b92505081905550606460045483610cb991906115ea565b610cc3919061165b565b600560003373ffffffffffffffffffffffffffffffffffffffff1673ffffffffffffffffffffffffffffffffffffffff1681526020019081526020016000206002016000828254610d14919061144c565b9250508190555060008054906101000a900473ffffffffffffffffffffffffffffffffffffffff1673ffffffffffffffffffffffffffffffffffffffff1663a9059cbb33846040518363ffffffff1660e01b8152600401610d7692919061187b565b6020604051808303816000875af1158015610d95573d6000803e3d6000fd5b505050506040513d601f19601f82011682018060405250810190610db99190611776565b610df8576040517f08c379a0000000000000000000000000000000000000000000000000000000008152600401610def906117ef565b60405180910390fd5b3373ffffffffffffffffffffffffffffffffffffffff167f824b877f3377732d526be2468989fd5a3968efd150ef5bfc419da0f677969b0883604051610e3e919061106d565b60405180910390a25050565b600080600560008473ffffffffffffffffffffffffffffffffffffffff1673ffffffffffffffffffffffffffffffffffffffff168152602001908152602001600020604051806060016040529081600082015481526020016001820154815260200160028201548152505090506000610ec2846107a0565b905060006305f5e100610ed361082b565b8460000151610ee291906115ea565b610eec919061165b565b905060006305f5e100610efd61065c565b8560200151610f0c91906115ea565b610f16919061165b565b9050828110610f2c576000945050505050610fb5565b60008183610f3a91906112fa565b90506000610f4661082b565b905060008111610f8b576040517f08c379a0000000000000000000000000000000000000000000000000000000008152600401610f82906118f0565b60405180910390fd5b6000816305f5e10084610f9e91906115ea565b610fa8919061165b565b9050809750505050505050505b919050565b600073ffffffffffffffffffffffffffffffffffffffff82169050919050565b6000819050919050565b6000610fff610ffa610ff584610fba565b610fda565b610fba565b9050919050565b600061101182610fe4565b9050919050565b600061102382611006565b9050919050565b61103381611018565b82525050565b600060208201905061104e600083018461102a565b92915050565b6000819050919050565b61106781611054565b82525050565b6000602082019050611082600083018461105e565b92915050565b600080fd5b61109681611054565b81146110a157600080fd5b50565b6000813590506110b38161108d565b92915050565b6000602082840312156110cf576110ce611088565b5b60006110dd848285016110a4565b91505092915050565b6000819050919050565b6110f9816110e6565b82525050565b600060208201905061111460008301846110f0565b92915050565b600061112582610fba565b9050919050565b6111358161111a565b811461114057600080fd5b50565b6000813590506111528161112c565b92915050565b60006020828403121561116e5761116d611088565b5b600061117c84828501611143565b91505092915050565b600060608201905061119a600083018661105e565b6111a7602083018561105e565b6111b4604083018461105e565b949350505050565b600082825260208201905092915050565b7f4e6f7420656e6f75676820636f6c6c61746572616c206465706f736974656400600082015250565b6000611203601f836111bc565b915061120e826111cd565b602082019050919050565b60006020820190508181036000830152611232816111f6565b9050919050565b7f5769746864726177616c20726571756573742065786365656473206d6178696d60008201527f756d20616c6c6f77656400000000000000000000000000000000000000000000602082015250565b6000611295602a836111bc565b91506112a082611239565b604082019050919050565b600060208201905081810360008301526112c481611288565b9050919050565b7f4e487b7100000000000000000000000000000000000000000000000000000000600052601160045260246000fd5b600061130582611054565b915061131083611054565b9250828203905081811115611328576113276112cb565b5b92915050565b600081905092915050565b50565b600061134960008361132e565b915061135482611339565b600082019050919050565b600061136a8261133c565b9150819050919050565b7f4661696c656420746f2073656e64204d41544943000000000000000000000000600082015250565b60006113aa6014836111bc565b91506113b582611374565b602082019050919050565b600060208201905081810360008301526113d98161139d565b9050919050565b7f416d6f756e74206d7573742062652067726561746572207468616e2030000000600082015250565b6000611416601d836111bc565b9150611421826113e0565b602082019050919050565b6000602082019050818103600083015261144581611409565b9050919050565b600061145782611054565b915061146283611054565b925082820190508082111561147a576114796112cb565b5b92915050565b600069ffffffffffffffffffff82169050919050565b61149f81611480565b81146114aa57600080fd5b50565b6000815190506114bc81611496565b92915050565b6114cb816110e6565b81146114d657600080fd5b50565b6000815190506114e8816114c2565b92915050565b6000815190506114fd8161108d565b92915050565b600080600080600060a0868803121561151f5761151e611088565b5b600061152d888289016114ad565b955050602061153e888289016114d9565b945050604061154f888289016114ee565b9350506060611560888289016114ee565b9250506080611571888289016114ad565b9150509295509295909350565b7f526f756e64206e6f7420636f6d706c6574650000000000000000000000000000600082015250565b60006115b46012836111bc565b91506115bf8261157e565b602082019050919050565b600060208201905081810360008301526115e3816115a7565b9050919050565b60006115f582611054565b915061160083611054565b925082820261160e81611054565b91508282048414831517611625576116246112cb565b5b5092915050565b7f4e487b7100000000000000000000000000000000000000000000000000000000600052601260045260246000fd5b600061166682611054565b915061167183611054565b9250826116815761168061162c565b5b828204905092915050565b7f526570617920616d6f756e742065786365656473206c6f616e206f7765640000600082015250565b60006116c2601e836111bc565b91506116cd8261168c565b602082019050919050565b600060208201905081810360008301526116f1816116b5565b9050919050565b6117018161111a565b82525050565b600060608201905061171c60008301866116f8565b61172960208301856116f8565b611736604083018461105e565b949350505050565b60008115159050919050565b6117538161173e565b811461175e57600080fd5b50565b6000815190506117708161174a565b92915050565b60006020828403121561178c5761178b611088565b5b600061179a84828501611761565b91505092915050565b7f5472616e73666572206661696c65640000000000000000000000000000000000600082015250565b60006117d9600f836111bc565b91506117e4826117a3565b602082019050919050565b60006020820190508181036000830152611808816117cc565b9050919050565b7f426f72726f7720616d6f756e742065786365656473206c696d69740000000000600082015250565b6000611845601b836111bc565b91506118508261180f565b602082019050919050565b6000602082019050818103600083015261187481611838565b9050919050565b600060408201905061189060008301856116f8565b61189d602083018461105e565b9392505050565b7f496e76616c696420636f6c6c61746572616c2070726963650000000000000000600082015250565b60006118da6018836111bc565b91506118e5826118a4565b602082019050919050565b60006020820190508181036000830152611909816118cd565b905091905056fea264697066735822122037f1f126b695d2bef35c9414a004b2e6bf6d14e19cdaf209fafa2f2cc4a1076864736f6c63430008140033",
  "linkReferences": {},
  "deployedLinkReferences": {}
}